{
  "_format": "hh-sol-artifact-1",
  "contractName": "ERC20Mint",
  "sourceName": "contracts/ERC20Mint.sol",
  "abi": [
    {
      "inputs": [],
      "stateMutability": "nonpayable",
      "type": "constructor"
    },
    {
      "anonymous": false,
      "inputs": [
        {
          "indexed": true,
          "internalType": "address",
          "name": "owner",
          "type": "address"
        },
        {
          "indexed": true,
          "internalType": "address",
          "name": "spender",
          "type": "address"
        },
        {
          "indexed": false,
          "internalType": "uint256",
          "name": "value",
          "type": "uint256"
        }
      ],
      "name": "Approval",
      "type": "event"
    },
    {
      "anonymous": false,
      "inputs": [
        {
          "indexed": true,
          "internalType": "address",
          "name": "previousOwner",
          "type": "address"
        },
        {
          "indexed": true,
          "internalType": "address",
          "name": "newOwner",
          "type": "address"
        }
      ],
      "name": "OwnershipTransferred",
      "type": "event"
    },
    {
      "anonymous": false,
      "inputs": [
        {
          "indexed": true,
          "internalType": "address",
          "name": "from",
          "type": "address"
        },
        {
          "indexed": true,
          "internalType": "address",
          "name": "to",
          "type": "address"
        },
        {
          "indexed": false,
          "internalType": "uint256",
          "name": "value",
          "type": "uint256"
        }
      ],
      "name": "Transfer",
      "type": "event"
    },
    {
      "inputs": [
        {
          "internalType": "address",
          "name": "_minter",
          "type": "address"
        }
      ],
      "name": "addMinter",
      "outputs": [],
      "stateMutability": "nonpayable",
      "type": "function"
    },
    {
      "inputs": [
        {
          "internalType": "address",
          "name": "owner",
          "type": "address"
        },
        {
          "internalType": "address",
          "name": "spender",
          "type": "address"
        }
      ],
      "name": "allowance",
      "outputs": [
        {
          "internalType": "uint256",
          "name": "",
          "type": "uint256"
        }
      ],
      "stateMutability": "view",
      "type": "function"
    },
    {
      "inputs": [
        {
          "internalType": "address",
          "name": "spender",
          "type": "address"
        },
        {
          "internalType": "uint256",
          "name": "amount",
          "type": "uint256"
        }
      ],
      "name": "approve",
      "outputs": [
        {
          "internalType": "bool",
          "name": "",
          "type": "bool"
        }
      ],
      "stateMutability": "nonpayable",
      "type": "function"
    },
    {
      "inputs": [
        {
          "internalType": "address",
          "name": "account",
          "type": "address"
        }
      ],
      "name": "balanceOf",
      "outputs": [
        {
          "internalType": "uint256",
          "name": "",
          "type": "uint256"
        }
      ],
      "stateMutability": "view",
      "type": "function"
    },
    {
      "inputs": [
        {
          "internalType": "uint256",
          "name": "amount",
          "type": "uint256"
        }
      ],
      "name": "burn",
      "outputs": [],
      "stateMutability": "nonpayable",
      "type": "function"
    },
    {
      "inputs": [
        {
          "internalType": "address",
          "name": "account",
          "type": "address"
        },
        {
          "internalType": "uint256",
          "name": "amount",
          "type": "uint256"
        }
      ],
      "name": "burnFrom",
      "outputs": [],
      "stateMutability": "nonpayable",
      "type": "function"
    },
    {
      "inputs": [],
      "name": "decimals",
      "outputs": [
        {
          "internalType": "uint8",
          "name": "",
          "type": "uint8"
        }
      ],
      "stateMutability": "view",
      "type": "function"
    },
    {
      "inputs": [
        {
          "internalType": "address",
          "name": "spender",
          "type": "address"
        },
        {
          "internalType": "uint256",
          "name": "subtractedValue",
          "type": "uint256"
        }
      ],
      "name": "decreaseAllowance",
      "outputs": [
        {
          "internalType": "bool",
          "name": "",
          "type": "bool"
        }
      ],
      "stateMutability": "nonpayable",
      "type": "function"
    },
    {
      "inputs": [
        {
          "internalType": "address",
          "name": "spender",
          "type": "address"
        },
        {
          "internalType": "uint256",
          "name": "addedValue",
          "type": "uint256"
        }
      ],
      "name": "increaseAllowance",
      "outputs": [
        {
          "internalType": "bool",
          "name": "",
          "type": "bool"
        }
      ],
      "stateMutability": "nonpayable",
      "type": "function"
    },
    {
      "inputs": [
        {
          "internalType": "address",
          "name": "to",
          "type": "address"
        },
        {
          "internalType": "uint256",
          "name": "amount",
          "type": "uint256"
        }
      ],
      "name": "mint",
      "outputs": [],
      "stateMutability": "nonpayable",
      "type": "function"
    },
    {
      "inputs": [
        {
          "internalType": "address",
          "name": "",
          "type": "address"
        }
      ],
      "name": "minter",
      "outputs": [
        {
          "internalType": "bool",
          "name": "",
          "type": "bool"
        }
      ],
      "stateMutability": "view",
      "type": "function"
    },
    {
      "inputs": [
        {
          "internalType": "address",
          "name": "",
          "type": "address"
        }
      ],
      "name": "minterIndex",
      "outputs": [
        {
          "internalType": "uint256",
          "name": "",
          "type": "uint256"
        }
      ],
      "stateMutability": "view",
      "type": "function"
    },
    {
      "inputs": [
        {
          "internalType": "uint256",
          "name": "",
          "type": "uint256"
        }
      ],
      "name": "minters",
      "outputs": [
        {
          "internalType": "address",
          "name": "",
          "type": "address"
        }
      ],
      "stateMutability": "view",
      "type": "function"
    },
    {
      "inputs": [],
      "name": "name",
      "outputs": [
        {
          "internalType": "string",
          "name": "",
          "type": "string"
        }
      ],
      "stateMutability": "view",
      "type": "function"
    },
    {
      "inputs": [],
      "name": "owner",
      "outputs": [
        {
          "internalType": "address",
          "name": "",
          "type": "address"
        }
      ],
      "stateMutability": "view",
      "type": "function"
    },
    {
      "inputs": [
        {
          "internalType": "address",
          "name": "_minter",
          "type": "address"
        }
      ],
      "name": "removeMinter",
      "outputs": [],
      "stateMutability": "nonpayable",
      "type": "function"
    },
    {
      "inputs": [],
      "name": "renounceOwnership",
      "outputs": [],
      "stateMutability": "nonpayable",
      "type": "function"
    },
    {
      "inputs": [],
      "name": "symbol",
      "outputs": [
        {
          "internalType": "string",
          "name": "",
          "type": "string"
        }
      ],
      "stateMutability": "view",
      "type": "function"
    },
    {
      "inputs": [],
      "name": "totalSupply",
      "outputs": [
        {
          "internalType": "uint256",
          "name": "",
          "type": "uint256"
        }
      ],
      "stateMutability": "view",
      "type": "function"
    },
    {
      "inputs": [
        {
          "internalType": "address",
          "name": "to",
          "type": "address"
        },
        {
          "internalType": "uint256",
          "name": "amount",
          "type": "uint256"
        }
      ],
      "name": "transfer",
      "outputs": [
        {
          "internalType": "bool",
          "name": "",
          "type": "bool"
        }
      ],
      "stateMutability": "nonpayable",
      "type": "function"
    },
    {
      "inputs": [
        {
          "internalType": "address",
          "name": "from",
          "type": "address"
        },
        {
          "internalType": "address",
          "name": "to",
          "type": "address"
        },
        {
          "internalType": "uint256",
          "name": "amount",
          "type": "uint256"
        }
      ],
      "name": "transferFrom",
      "outputs": [
        {
          "internalType": "bool",
          "name": "",
          "type": "bool"
        }
      ],
      "stateMutability": "nonpayable",
      "type": "function"
    },
    {
      "inputs": [
        {
          "internalType": "address",
          "name": "newOwner",
          "type": "address"
        }
      ],
      "name": "transferOwnership",
      "outputs": [],
      "stateMutability": "nonpayable",
      "type": "function"
    }
  ],
  "bytecode": "0x60806040523480156200001157600080fd5b50604080518082018252600681526510915513d05160d21b6020808301918252835180850190945260048452634245544f60e01b9084015281519192916200005c91600391620000eb565b50805162000072906004906020840190620000eb565b5050506200008f620000896200009560201b60201c565b62000099565b620001ce565b3390565b600580546001600160a01b038381166001600160a01b0319831681179093556040519116919082907f8be0079c531659141344cd1fd0a4f28419497f9722a3daafe3b4186f6b6457e090600090a35050565b828054620000f99062000191565b90600052602060002090601f0160209004810192826200011d576000855562000168565b82601f106200013857805160ff191683800117855562000168565b8280016001018555821562000168579182015b82811115620001685782518255916020019190600101906200014b565b50620001769291506200017a565b5090565b5b808211156200017657600081556001016200017b565b600181811c90821680620001a657607f821691505b60208210811415620001c857634e487b7160e01b600052602260045260246000fd5b50919050565b61120980620001de6000396000f3fe608060405234801561001057600080fd5b50600436106101825760003560e01c8063715018a6116100d8578063983b2d561161008c578063a9059cbb11610066578063a9059cbb1461033b578063dd62ed3e1461034e578063f2fde38b1461038757600080fd5b8063983b2d56146102f5578063a190b19214610308578063a457c2d71461032857600080fd5b80638623ec7b116100bd5780638623ec7b146102b15780638da5cb5b146102dc57806395d89b41146102ed57600080fd5b8063715018a61461029657806379cc67901461029e57600080fd5b8063313ce5671161013a57806340c10f191161011457806340c10f191461024757806342966c681461025a57806370a082311461026d57600080fd5b8063313ce5671461020257806339509351146102115780633dd08c381461022457600080fd5b806318160ddd1161016b57806318160ddd146101c857806323b872dd146101da5780633092afd5146101ed57600080fd5b806306fdde0314610187578063095ea7b3146101a5575b600080fd5b61018f61039a565b60405161019c9190610fe2565b60405180910390f35b6101b86101b3366004611053565b61042c565b604051901515815260200161019c565b6002545b60405190815260200161019c565b6101b86101e836600461107d565b610444565b6102006101fb3660046110b9565b610468565b005b6040516012815260200161019c565b6101b861021f366004611053565b61059f565b6101b86102323660046110b9565b60076020526000908152604090205460ff1681565b610200610255366004611053565b6105de565b6102006102683660046110db565b610655565b6101cc61027b3660046110b9565b6001600160a01b031660009081526020819052604090205490565b61020061065f565b6102006102ac366004611053565b610673565b6102c46102bf3660046110db565b610688565b6040516001600160a01b03909116815260200161019c565b6005546001600160a01b03166102c4565b61018f6106b2565b6102006103033660046110b9565b6106c1565b6101cc6103163660046110b9565b60086020526000908152604090205481565b6101b8610336366004611053565b610786565b6101b8610349366004611053565b610830565b6101cc61035c3660046110f4565b6001600160a01b03918216600090815260016020908152604080832093909416825291909152205490565b6102006103953660046110b9565b61083e565b6060600380546103a990611127565b80601f01602080910402602001604051908101604052809291908181526020018280546103d590611127565b80156104225780601f106103f757610100808354040283529160200191610422565b820191906000526020600020905b81548152906001019060200180831161040557829003601f168201915b5050505050905090565b60003361043a8185856108cb565b5060019392505050565b600033610452858285610a24565b61045d858585610ab6565b506001949350505050565b610470610ccd565b6001600160a01b03811660009081526007602052604090205460ff1615156001141561059c576001600160a01b0381166000908152600760209081526040808320805460ff191690556008909152812054600680549192916104d490600190611178565b815481106104e4576104e461118f565b600091825260209091200154600680546001600160a01b0390921692508291849081106105135761051361118f565b6000918252602080832091909101805473ffffffffffffffffffffffffffffffffffffffff19166001600160a01b039485161790559183168152600890915260409020829055600680548061056a5761056a6111a5565b6000828152602090208101600019908101805473ffffffffffffffffffffffffffffffffffffffff1916905501905550505b50565b3360008181526001602090815260408083206001600160a01b038716845290915281205490919061043a90829086906105d99087906111bb565b6108cb565b3360009081526007602052604090205460ff1615156001146106475760405162461bcd60e51b815260206004820152601f60248201527f4572726f723a2063616c6c6572206973206e6f7420746865206d696e7465720060448201526064015b60405180910390fd5b6106518282610d27565b5050565b61059c3382610e06565b610667610ccd565b6106716000610f83565b565b61067e823383610a24565b6106518282610e06565b6006818154811061069857600080fd5b6000918252602090912001546001600160a01b0316905081565b6060600480546103a990611127565b6106c9610ccd565b6001600160a01b03811660009081526007602052604090205460ff1661059c576001600160a01b0381166000818152600760205260408120805460ff19166001908117909155600680548083018255928190527ff652222313e28459528d920b65115c16c04f3efc82aaedc97be59f3f377c0d3f909201805473ffffffffffffffffffffffffffffffffffffffff19169093179092555461076a9190611178565b6001600160a01b03821660009081526008602052604090205550565b3360008181526001602090815260408083206001600160a01b0387168452909152812054909190838110156108235760405162461bcd60e51b815260206004820152602560248201527f45524332303a2064656372656173656420616c6c6f77616e63652062656c6f7760448201527f207a65726f000000000000000000000000000000000000000000000000000000606482015260840161063e565b61045d82868684036108cb565b60003361043a818585610ab6565b610846610ccd565b6001600160a01b0381166108c25760405162461bcd60e51b815260206004820152602660248201527f4f776e61626c653a206e6577206f776e657220697320746865207a65726f206160448201527f6464726573730000000000000000000000000000000000000000000000000000606482015260840161063e565b61059c81610f83565b6001600160a01b0383166109465760405162461bcd60e51b8152602060048201526024808201527f45524332303a20617070726f76652066726f6d20746865207a65726f2061646460448201527f7265737300000000000000000000000000000000000000000000000000000000606482015260840161063e565b6001600160a01b0382166109c25760405162461bcd60e51b815260206004820152602260248201527f45524332303a20617070726f766520746f20746865207a65726f20616464726560448201527f7373000000000000000000000000000000000000000000000000000000000000606482015260840161063e565b6001600160a01b0383811660008181526001602090815260408083209487168084529482529182902085905590518481527f8c5be1e5ebec7d5bd14f71427d1e84f3dd0314c0f7b2291e5b200ac8c7c3b92591015b60405180910390a3505050565b6001600160a01b038381166000908152600160209081526040808320938616835292905220546000198114610ab05781811015610aa35760405162461bcd60e51b815260206004820152601d60248201527f45524332303a20696e73756666696369656e7420616c6c6f77616e6365000000604482015260640161063e565b610ab084848484036108cb565b50505050565b6001600160a01b038316610b325760405162461bcd60e51b815260206004820152602560248201527f45524332303a207472616e736665722066726f6d20746865207a65726f20616460448201527f6472657373000000000000000000000000000000000000000000000000000000606482015260840161063e565b6001600160a01b038216610bae5760405162461bcd60e51b815260206004820152602360248201527f45524332303a207472616e7366657220746f20746865207a65726f206164647260448201527f6573730000000000000000000000000000000000000000000000000000000000606482015260840161063e565b6001600160a01b03831660009081526020819052604090205481811015610c3d5760405162461bcd60e51b815260206004820152602660248201527f45524332303a207472616e7366657220616d6f756e742065786365656473206260448201527f616c616e63650000000000000000000000000000000000000000000000000000606482015260840161063e565b6001600160a01b03808516600090815260208190526040808220858503905591851681529081208054849290610c749084906111bb565b92505081905550826001600160a01b0316846001600160a01b03167fddf252ad1be2c89b69c2b068fc378daa952ba7f163c4a11628f55a4df523b3ef84604051610cc091815260200190565b60405180910390a3610ab0565b6005546001600160a01b031633146106715760405162461bcd60e51b815260206004820181905260248201527f4f776e61626c653a2063616c6c6572206973206e6f7420746865206f776e6572604482015260640161063e565b6001600160a01b038216610d7d5760405162461bcd60e51b815260206004820152601f60248201527f45524332303a206d696e7420746f20746865207a65726f206164647265737300604482015260640161063e565b8060026000828254610d8f91906111bb565b90915550506001600160a01b03821660009081526020819052604081208054839290610dbc9084906111bb565b90915550506040518181526001600160a01b038316906000907fddf252ad1be2c89b69c2b068fc378daa952ba7f163c4a11628f55a4df523b3ef9060200160405180910390a35050565b6001600160a01b038216610e825760405162461bcd60e51b815260206004820152602160248201527f45524332303a206275726e2066726f6d20746865207a65726f2061646472657360448201527f7300000000000000000000000000000000000000000000000000000000000000606482015260840161063e565b6001600160a01b03821660009081526020819052604090205481811015610f115760405162461bcd60e51b815260206004820152602260248201527f45524332303a206275726e20616d6f756e7420657863656564732062616c616e60448201527f6365000000000000000000000000000000000000000000000000000000000000606482015260840161063e565b6001600160a01b0383166000908152602081905260408120838303905560028054849290610f40908490611178565b90915550506040518281526000906001600160a01b038516907fddf252ad1be2c89b69c2b068fc378daa952ba7f163c4a11628f55a4df523b3ef90602001610a17565b600580546001600160a01b0383811673ffffffffffffffffffffffffffffffffffffffff19831681179093556040519116919082907f8be0079c531659141344cd1fd0a4f28419497f9722a3daafe3b4186f6b6457e090600090a35050565b600060208083528351808285015260005b8181101561100f57858101830151858201604001528201610ff3565b81811115611021576000604083870101525b50601f01601f1916929092016040019392505050565b80356001600160a01b038116811461104e57600080fd5b919050565b6000806040838503121561106657600080fd5b61106f83611037565b946020939093013593505050565b60008060006060848603121561109257600080fd5b61109b84611037565b92506110a960208501611037565b9150604084013590509250925092565b6000602082840312156110cb57600080fd5b6110d482611037565b9392505050565b6000602082840312156110ed57600080fd5b5035919050565b6000806040838503121561110757600080fd5b61111083611037565b915061111e60208401611037565b90509250929050565b600181811c9082168061113b57607f821691505b6020821081141561115c57634e487b7160e01b600052602260045260246000fd5b50919050565b634e487b7160e01b600052601160045260246000fd5b60008282101561118a5761118a611162565b500390565b634e487b7160e01b600052603260045260246000fd5b634e487b7160e01b600052603160045260246000fd5b600082198211156111ce576111ce611162565b50019056fea26469706673582212205bc26026078b32aa39a6ec43e286f7fb5f7804d3c32bbdab9ef1ad064ff2892364736f6c634300080b0033",
  "linkReferences": {},
  "deployedLinkReferences": {}
}