{
  "_format": "hh-sol-artifact-1",
  "contractName": "WETH",
  "sourceName": "contracts/canto/WETH.sol",
  "abi": [
    {
      "inputs": [
        {
          "internalType": "string",
          "name": "name_",
          "type": "string"
        },
        {
          "internalType": "string",
          "name": "symbol_",
          "type": "string"
        }
      ],
      "stateMutability": "nonpayable",
      "type": "constructor"
    },
    {
      "anonymous": false,
      "inputs": [
        {
          "indexed": true,
          "internalType": "address",
          "name": "owner",
          "type": "address"
        },
        {
          "indexed": true,
          "internalType": "address",
          "name": "spender",
          "type": "address"
        },
        {
          "indexed": false,
          "internalType": "uint256",
          "name": "amount",
          "type": "uint256"
        }
      ],
      "name": "Approval",
      "type": "event"
    },
    {
      "anonymous": false,
      "inputs": [
        {
          "indexed": true,
          "internalType": "address",
          "name": "dst",
          "type": "address"
        },
        {
          "indexed": false,
          "internalType": "uint256",
          "name": "wad",
          "type": "uint256"
        }
      ],
      "name": "Deposit",
      "type": "event"
    },
    {
      "anonymous": false,
      "inputs": [
        {
          "indexed": true,
          "internalType": "address",
          "name": "from",
          "type": "address"
        },
        {
          "indexed": true,
          "internalType": "address",
          "name": "to",
          "type": "address"
        },
        {
          "indexed": false,
          "internalType": "uint256",
          "name": "amount",
          "type": "uint256"
        }
      ],
      "name": "Transfer",
      "type": "event"
    },
    {
      "anonymous": false,
      "inputs": [
        {
          "indexed": true,
          "internalType": "address",
          "name": "src",
          "type": "address"
        },
        {
          "indexed": false,
          "internalType": "uint256",
          "name": "wad",
          "type": "uint256"
        }
      ],
      "name": "Withdrawal",
      "type": "event"
    },
    {
      "inputs": [
        {
          "internalType": "address",
          "name": "",
          "type": "address"
        },
        {
          "internalType": "address",
          "name": "",
          "type": "address"
        }
      ],
      "name": "_allowance",
      "outputs": [
        {
          "internalType": "uint256",
          "name": "",
          "type": "uint256"
        }
      ],
      "stateMutability": "view",
      "type": "function"
    },
    {
      "inputs": [
        {
          "internalType": "address",
          "name": "",
          "type": "address"
        }
      ],
      "name": "_balanceOf",
      "outputs": [
        {
          "internalType": "uint256",
          "name": "",
          "type": "uint256"
        }
      ],
      "stateMutability": "view",
      "type": "function"
    },
    {
      "inputs": [
        {
          "internalType": "address",
          "name": "owner",
          "type": "address"
        },
        {
          "internalType": "address",
          "name": "spender",
          "type": "address"
        }
      ],
      "name": "allowance",
      "outputs": [
        {
          "internalType": "uint256",
          "name": "",
          "type": "uint256"
        }
      ],
      "stateMutability": "view",
      "type": "function"
    },
    {
      "inputs": [
        {
          "internalType": "address",
          "name": "spender",
          "type": "address"
        },
        {
          "internalType": "uint256",
          "name": "amount",
          "type": "uint256"
        }
      ],
      "name": "approve",
      "outputs": [
        {
          "internalType": "bool",
          "name": "",
          "type": "bool"
        }
      ],
      "stateMutability": "nonpayable",
      "type": "function"
    },
    {
      "inputs": [
        {
          "internalType": "address",
          "name": "owner",
          "type": "address"
        }
      ],
      "name": "balanceOf",
      "outputs": [
        {
          "internalType": "uint256",
          "name": "",
          "type": "uint256"
        }
      ],
      "stateMutability": "view",
      "type": "function"
    },
    {
      "inputs": [],
      "name": "decimals",
      "outputs": [
        {
          "internalType": "uint8",
          "name": "",
          "type": "uint8"
        }
      ],
      "stateMutability": "view",
      "type": "function"
    },
    {
      "inputs": [],
      "name": "deposit",
      "outputs": [],
      "stateMutability": "payable",
      "type": "function"
    },
    {
      "inputs": [],
      "name": "name",
      "outputs": [
        {
          "internalType": "string",
          "name": "",
          "type": "string"
        }
      ],
      "stateMutability": "view",
      "type": "function"
    },
    {
      "inputs": [],
      "name": "symbol",
      "outputs": [
        {
          "internalType": "string",
          "name": "",
          "type": "string"
        }
      ],
      "stateMutability": "view",
      "type": "function"
    },
    {
      "inputs": [],
      "name": "totalSupply",
      "outputs": [
        {
          "internalType": "uint256",
          "name": "",
          "type": "uint256"
        }
      ],
      "stateMutability": "view",
      "type": "function"
    },
    {
      "inputs": [
        {
          "internalType": "address",
          "name": "dst",
          "type": "address"
        },
        {
          "internalType": "uint256",
          "name": "wad",
          "type": "uint256"
        }
      ],
      "name": "transfer",
      "outputs": [
        {
          "internalType": "bool",
          "name": "",
          "type": "bool"
        }
      ],
      "stateMutability": "nonpayable",
      "type": "function"
    },
    {
      "inputs": [
        {
          "internalType": "address",
          "name": "src",
          "type": "address"
        },
        {
          "internalType": "address",
          "name": "dst",
          "type": "address"
        },
        {
          "internalType": "uint256",
          "name": "wad",
          "type": "uint256"
        }
      ],
      "name": "transferFrom",
      "outputs": [
        {
          "internalType": "bool",
          "name": "",
          "type": "bool"
        }
      ],
      "stateMutability": "nonpayable",
      "type": "function"
    },
    {
      "inputs": [
        {
          "internalType": "uint256",
          "name": "wamount",
          "type": "uint256"
        }
      ],
      "name": "withdraw",
      "outputs": [],
      "stateMutability": "nonpayable",
      "type": "function"
    },
    {
      "stateMutability": "payable",
      "type": "receive"
    }
  ],
  "bytecode": "0x60806040526002805460ff191660121790553480156200001e57600080fd5b5060405162000d9d38038062000d9d8339810160408190526200004191620001e8565b81516200005690600090602085019062000075565b5080516200006c90600190602084019062000075565b5050506200028f565b828054620000839062000252565b90600052602060002090601f016020900481019282620000a75760008555620000f2565b82601f10620000c257805160ff1916838001178555620000f2565b82800160010185558215620000f2579182015b82811115620000f2578251825591602001919060010190620000d5565b506200010092915062000104565b5090565b5b8082111562000100576000815560010162000105565b634e487b7160e01b600052604160045260246000fd5b600082601f8301126200014357600080fd5b81516001600160401b03808211156200016057620001606200011b565b604051601f8301601f19908116603f011681019082821181831017156200018b576200018b6200011b565b81604052838152602092508683858801011115620001a857600080fd5b600091505b83821015620001cc5785820183015181830184015290820190620001ad565b83821115620001de5760008385830101525b9695505050505050565b60008060408385031215620001fc57600080fd5b82516001600160401b03808211156200021457600080fd5b620002228683870162000131565b935060208501519150808211156200023957600080fd5b50620002488582860162000131565b9150509250929050565b600181811c908216806200026757607f821691505b602082108114156200028957634e487b7160e01b600052602260045260246000fd5b50919050565b610afe806200029f6000396000f3fe6080604052600436106100d65760003560e01c806370a082311161007f578063cca3e83211610059578063cca3e8321461022f578063d0e30db01461025c578063dd336c1214610264578063dd62ed3e1461029c57600080fd5b806370a08231146101c457806395d89b41146101fa578063a9059cbb1461020f57600080fd5b806323b872dd116100b057806323b872dd146101625780632e1a7d4d14610182578063313ce567146101a257600080fd5b806306fdde03146100ea578063095ea7b31461011557806318160ddd1461014557600080fd5b366100e5576100e36102e2565b005b600080fd5b3480156100f657600080fd5b506100ff61033d565b60405161010c919061090a565b60405180910390f35b34801561012157600080fd5b5061013561013036600461097b565b6103cf565b604051901515815260200161010c565b34801561015157600080fd5b50475b60405190815260200161010c565b34801561016e57600080fd5b5061013561017d3660046109a5565b610425565b34801561018e57600080fd5b506100e361019d3660046109e1565b610680565b3480156101ae57600080fd5b5060025460405160ff909116815260200161010c565b3480156101d057600080fd5b506101546101df3660046109fa565b6001600160a01b031660009081526003602052604090205490565b34801561020657600080fd5b506100ff61078f565b34801561021b57600080fd5b5061013561022a36600461097b565b61079e565b34801561023b57600080fd5b5061015461024a3660046109fa565b60036020526000908152604090205481565b6100e36102e2565b34801561027057600080fd5b5061015461027f366004610a15565b600460209081526000928352604080842090915290825290205481565b3480156102a857600080fd5b506101546102b7366004610a15565b6001600160a01b03918216600090815260046020908152604080832093909416825291909152205490565b3360009081526003602052604081208054349290610301908490610a5e565b909155505060405134815233907fe1fffcc4923d04b559f4d29a8bfc6cda04eb5b0d3c460751c2402c5c5cc9109c9060200160405180910390a2565b60606000805461034c90610a76565b80601f016020809104026020016040519081016040528092919081815260200182805461037890610a76565b80156103c55780601f1061039a576101008083540402835291602001916103c5565b820191906000526020600020905b8154815290600101906020018083116103a857829003601f168201915b5050505050905090565b60006103dc3384846107b2565b6040518281526001600160a01b0384169033907f8c5be1e5ebec7d5bd14f71427d1e84f3dd0314c0f7b2291e5b200ac8c7c3b9259060200160405180910390a350600192915050565b6001600160a01b0383166000908152600360205260408120548211156104b85760405162461bcd60e51b815260206004820152602760248201527f574554483a3a7472616e73666546726f6d3a2062616c616e636520696e73756660448201527f66696369656e740000000000000000000000000000000000000000000000000060648201526084015b60405180910390fd5b6001600160a01b03841633148015906104f657506001600160a01b038416600090815260046020908152604080832033845290915290205460001914155b156105cd576001600160a01b03841660009081526004602090815260408083203384529091529020548211156105945760405162461bcd60e51b815260206004820152602960248201527f574554483a3a7472616e7366657246726f6d3a616c6c6f77616e636520696e7360448201527f756666696369656e74000000000000000000000000000000000000000000000060648201526084016104af565b6001600160a01b0384166000908152600460209081526040808320338452909152812080548492906105c7908490610ab1565b90915550505b6001600160a01b038416600090815260036020526040812080548492906105f5908490610ab1565b90915550506001600160a01b03831660009081526003602052604081208054849290610622908490610a5e565b92505081905550826001600160a01b0316846001600160a01b03167fddf252ad1be2c89b69c2b068fc378daa952ba7f163c4a11628f55a4df523b3ef8460405161066e91815260200190565b60405180910390a35060019392505050565b336000908152600360205260409020548111156107055760405162461bcd60e51b815260206004820152602a60248201527f73656e6465722062616c616e636520696e73756666696369656e7420666f722060448201527f7769746864726177616c0000000000000000000000000000000000000000000060648201526084016104af565b3360009081526003602052604081208054839290610724908490610ab1565b9091555050604051339082156108fc029083906000818181858888f19350505050158015610756573d6000803e3d6000fd5b5060405181815233907f7fcf532c15f0a6db0bd6d0e038bea71d30d808c7d98cb3bf7268a95bf5081b659060200160405180910390a250565b60606001805461034c90610a76565b60006107ab338484610425565b9392505050565b6001600160a01b03831661082d5760405162461bcd60e51b8152602060048201526024808201527f45524332303a20617070726f76652066726f6d20746865207a65726f2061646460448201527f726573730000000000000000000000000000000000000000000000000000000060648201526084016104af565b6001600160a01b0382166108a95760405162461bcd60e51b815260206004820152602260248201527f45524332303a20617070726f766520746f20746865207a65726f20616464726560448201527f737300000000000000000000000000000000000000000000000000000000000060648201526084016104af565b6001600160a01b0383811660008181526004602090815260408083209487168084529482529182902085905590518481527f8c5be1e5ebec7d5bd14f71427d1e84f3dd0314c0f7b2291e5b200ac8c7c3b925910160405180910390a3505050565b600060208083528351808285015260005b818110156109375785810183015185820160400152820161091b565b81811115610949576000604083870101525b50601f01601f1916929092016040019392505050565b80356001600160a01b038116811461097657600080fd5b919050565b6000806040838503121561098e57600080fd5b6109978361095f565b946020939093013593505050565b6000806000606084860312156109ba57600080fd5b6109c38461095f565b92506109d16020850161095f565b9150604084013590509250925092565b6000602082840312156109f357600080fd5b5035919050565b600060208284031215610a0c57600080fd5b6107ab8261095f565b60008060408385031215610a2857600080fd5b610a318361095f565b9150610a3f6020840161095f565b90509250929050565b634e487b7160e01b600052601160045260246000fd5b60008219821115610a7157610a71610a48565b500190565b600181811c90821680610a8a57607f821691505b60208210811415610aab57634e487b7160e01b600052602260045260246000fd5b50919050565b600082821015610ac357610ac3610a48565b50039056fea264697066735822122069a8bbc70ca477945a05ea15adf8c72e1c7d71b74a54699ab93179c5efceade464736f6c634300080b0033",
  "linkReferences": {},
  "deployedLinkReferences": {}
}