{
  "_format": "hh-sol-artifact-1",
  "contractName": "House",
  "sourceName": "contracts/House.sol",
  "abi": [
    {
      "inputs": [
        {
          "internalType": "address",
          "name": "_beto",
          "type": "address"
        },
        {
          "internalType": "address",
          "name": "_note",
          "type": "address"
        },
        {
          "internalType": "address",
          "name": "_chip",
          "type": "address"
        },
        {
          "internalType": "address",
          "name": "_router",
          "type": "address"
        }
      ],
      "stateMutability": "nonpayable",
      "type": "constructor"
    },
    {
      "anonymous": false,
      "inputs": [
        {
          "indexed": true,
          "internalType": "address",
          "name": "previousOwner",
          "type": "address"
        },
        {
          "indexed": true,
          "internalType": "address",
          "name": "newOwner",
          "type": "address"
        }
      ],
      "name": "OwnershipTransferred",
      "type": "event"
    },
    {
      "inputs": [],
      "name": "PRECISION",
      "outputs": [
        {
          "internalType": "uint256",
          "name": "",
          "type": "uint256"
        }
      ],
      "stateMutability": "view",
      "type": "function"
    },
    {
      "inputs": [
        {
          "internalType": "enum Reward.Type",
          "name": "rewardType",
          "type": "uint8"
        },
        {
          "internalType": "uint256",
          "name": "poolId",
          "type": "uint256"
        },
        {
          "internalType": "uint256",
          "name": "amount",
          "type": "uint256"
        }
      ],
      "name": "addRound",
      "outputs": [],
      "stateMutability": "nonpayable",
      "type": "function"
    },
    {
      "inputs": [
        {
          "internalType": "address",
          "name": "player",
          "type": "address"
        },
        {
          "internalType": "uint256",
          "name": "poolId",
          "type": "uint256"
        },
        {
          "internalType": "uint256",
          "name": "gameId",
          "type": "uint256"
        },
        {
          "internalType": "uint256",
          "name": "input",
          "type": "uint256"
        }
      ],
      "name": "addShare",
      "outputs": [],
      "stateMutability": "nonpayable",
      "type": "function"
    },
    {
      "inputs": [
        {
          "internalType": "address",
          "name": "target",
          "type": "address"
        }
      ],
      "name": "allDetailPools",
      "outputs": [
        {
          "components": [
            {
              "internalType": "uint256",
              "name": "poolId",
              "type": "uint256"
            },
            {
              "internalType": "string",
              "name": "name",
              "type": "string"
            },
            {
              "internalType": "contract IERC20",
              "name": "asset",
              "type": "address"
            },
            {
              "internalType": "uint256",
              "name": "deposit",
              "type": "uint256"
            },
            {
              "internalType": "uint256",
              "name": "balance",
              "type": "uint256"
            },
            {
              "internalType": "uint256",
              "name": "myDeposit",
              "type": "uint256"
            },
            {
              "internalType": "uint256",
              "name": "price",
              "type": "uint256"
            },
            {
              "internalType": "bool",
              "name": "isActive",
              "type": "bool"
            }
          ],
          "internalType": "struct IHouse.PoolResponse[]",
          "name": "",
          "type": "tuple[]"
        }
      ],
      "stateMutability": "view",
      "type": "function"
    },
    {
      "inputs": [],
      "name": "allGames",
      "outputs": [
        {
          "components": [
            {
              "internalType": "string",
              "name": "name",
              "type": "string"
            },
            {
              "internalType": "string",
              "name": "description",
              "type": "string"
            },
            {
              "internalType": "string",
              "name": "url",
              "type": "string"
            },
            {
              "internalType": "address",
              "name": "creator",
              "type": "address"
            },
            {
              "internalType": "address",
              "name": "addr",
              "type": "address"
            },
            {
              "internalType": "bool",
              "name": "isActive",
              "type": "bool"
            }
          ],
          "internalType": "struct IHouse.GameInfo[]",
          "name": "",
          "type": "tuple[]"
        }
      ],
      "stateMutability": "view",
      "type": "function"
    },
    {
      "inputs": [],
      "name": "allPools",
      "outputs": [
        {
          "components": [
            {
              "internalType": "string",
              "name": "name",
              "type": "string"
            },
            {
              "internalType": "contract IERC20",
              "name": "asset",
              "type": "address"
            },
            {
              "internalType": "uint256",
              "name": "assetDecimals",
              "type": "uint256"
            },
            {
              "internalType": "uint256",
              "name": "deposit",
              "type": "uint256"
            },
            {
              "internalType": "uint256",
              "name": "lockPeriod",
              "type": "uint256"
            },
            {
              "internalType": "uint256",
              "name": "price",
              "type": "uint256"
            },
            {
              "internalType": "bool",
              "name": "isActive",
              "type": "bool"
            }
          ],
          "internalType": "struct IHouse.PoolInfo[]",
          "name": "",
          "type": "tuple[]"
        }
      ],
      "stateMutability": "view",
      "type": "function"
    },
    {
      "inputs": [],
      "name": "beto",
      "outputs": [
        {
          "internalType": "contract IERC20",
          "name": "",
          "type": "address"
        }
      ],
      "stateMutability": "view",
      "type": "function"
    },
    {
      "inputs": [],
      "name": "chip",
      "outputs": [
        {
          "internalType": "contract Chip",
          "name": "",
          "type": "address"
        }
      ],
      "stateMutability": "view",
      "type": "function"
    },
    {
      "inputs": [],
      "name": "chipBonus",
      "outputs": [
        {
          "internalType": "uint256",
          "name": "",
          "type": "uint256"
        }
      ],
      "stateMutability": "view",
      "type": "function"
    },
    {
      "inputs": [
        {
          "internalType": "uint256",
          "name": "poolId",
          "type": "uint256"
        }
      ],
      "name": "claim",
      "outputs": [
        {
          "internalType": "uint256",
          "name": "reward",
          "type": "uint256"
        }
      ],
      "stateMutability": "nonpayable",
      "type": "function"
    },
    {
      "inputs": [],
      "name": "claimPlayingReward",
      "outputs": [
        {
          "internalType": "uint256",
          "name": "reward",
          "type": "uint256"
        }
      ],
      "stateMutability": "nonpayable",
      "type": "function"
    },
    {
      "inputs": [
        {
          "internalType": "address",
          "name": "",
          "type": "address"
        }
      ],
      "name": "claimedPlayingReward",
      "outputs": [
        {
          "internalType": "uint256",
          "name": "",
          "type": "uint256"
        }
      ],
      "stateMutability": "view",
      "type": "function"
    },
    {
      "inputs": [],
      "name": "collect",
      "outputs": [],
      "stateMutability": "nonpayable",
      "type": "function"
    },
    {
      "inputs": [],
      "name": "collector",
      "outputs": [
        {
          "internalType": "address",
          "name": "",
          "type": "address"
        }
      ],
      "stateMutability": "view",
      "type": "function"
    },
    {
      "inputs": [
        {
          "internalType": "string",
          "name": "name",
          "type": "string"
        },
        {
          "internalType": "string",
          "name": "description",
          "type": "string"
        },
        {
          "internalType": "string",
          "name": "url",
          "type": "string"
        },
        {
          "internalType": "address",
          "name": "_address",
          "type": "address"
        }
      ],
      "name": "createGame",
      "outputs": [
        {
          "internalType": "uint256",
          "name": "gameId",
          "type": "uint256"
        }
      ],
      "stateMutability": "nonpayable",
      "type": "function"
    },
    {
      "inputs": [
        {
          "internalType": "string",
          "name": "name",
          "type": "string"
        },
        {
          "internalType": "address",
          "name": "_asset",
          "type": "address"
        },
        {
          "internalType": "uint256",
          "name": "lockPeriod",
          "type": "uint256"
        }
      ],
      "name": "createPool",
      "outputs": [
        {
          "internalType": "uint256",
          "name": "poolId",
          "type": "uint256"
        }
      ],
      "stateMutability": "nonpayable",
      "type": "function"
    },
    {
      "inputs": [
        {
          "internalType": "uint256",
          "name": "poolId",
          "type": "uint256"
        },
        {
          "internalType": "uint256",
          "name": "amount",
          "type": "uint256"
        }
      ],
      "name": "deposit",
      "outputs": [
        {
          "components": [
            {
              "internalType": "uint256",
              "name": "depositAmount",
              "type": "uint256"
            },
            {
              "internalType": "uint256",
              "name": "claimableRound",
              "type": "uint256"
            },
            {
              "internalType": "uint256",
              "name": "time",
              "type": "uint256"
            }
          ],
          "internalType": "struct IHouse.DepositInfo",
          "name": "",
          "type": "tuple"
        },
        {
          "internalType": "uint256",
          "name": "",
          "type": "uint256"
        }
      ],
      "stateMutability": "nonpayable",
      "type": "function"
    },
    {
      "inputs": [
        {
          "internalType": "address",
          "name": "",
          "type": "address"
        },
        {
          "internalType": "uint256",
          "name": "",
          "type": "uint256"
        }
      ],
      "name": "deposits",
      "outputs": [
        {
          "internalType": "uint256",
          "name": "depositAmount",
          "type": "uint256"
        },
        {
          "internalType": "uint256",
          "name": "claimableRound",
          "type": "uint256"
        },
        {
          "internalType": "uint256",
          "name": "time",
          "type": "uint256"
        }
      ],
      "stateMutability": "view",
      "type": "function"
    },
    {
      "inputs": [
        {
          "internalType": "uint256",
          "name": "poolId",
          "type": "uint256"
        },
        {
          "internalType": "address",
          "name": "target",
          "type": "address"
        }
      ],
      "name": "detailPool",
      "outputs": [
        {
          "components": [
            {
              "internalType": "uint256",
              "name": "poolId",
              "type": "uint256"
            },
            {
              "internalType": "string",
              "name": "name",
              "type": "string"
            },
            {
              "internalType": "contract IERC20",
              "name": "asset",
              "type": "address"
            },
            {
              "internalType": "uint256",
              "name": "deposit",
              "type": "uint256"
            },
            {
              "internalType": "uint256",
              "name": "balance",
              "type": "uint256"
            },
            {
              "internalType": "uint256",
              "name": "myDeposit",
              "type": "uint256"
            },
            {
              "internalType": "uint256",
              "name": "price",
              "type": "uint256"
            },
            {
              "internalType": "bool",
              "name": "isActive",
              "type": "bool"
            }
          ],
          "internalType": "struct IHouse.PoolResponse",
          "name": "",
          "type": "tuple"
        }
      ],
      "stateMutability": "view",
      "type": "function"
    },
    {
      "inputs": [],
      "name": "distributor",
      "outputs": [
        {
          "internalType": "address",
          "name": "",
          "type": "address"
        }
      ],
      "stateMutability": "view",
      "type": "function"
    },
    {
      "inputs": [
        {
          "internalType": "address",
          "name": "",
          "type": "address"
        }
      ],
      "name": "exp",
      "outputs": [
        {
          "internalType": "uint256",
          "name": "",
          "type": "uint256"
        }
      ],
      "stateMutability": "view",
      "type": "function"
    },
    {
      "inputs": [
        {
          "internalType": "address",
          "name": "",
          "type": "address"
        }
      ],
      "name": "gameIndex",
      "outputs": [
        {
          "internalType": "uint256",
          "name": "",
          "type": "uint256"
        }
      ],
      "stateMutability": "view",
      "type": "function"
    },
    {
      "inputs": [
        {
          "internalType": "uint256",
          "name": "",
          "type": "uint256"
        }
      ],
      "name": "games",
      "outputs": [
        {
          "internalType": "string",
          "name": "name",
          "type": "string"
        },
        {
          "internalType": "string",
          "name": "description",
          "type": "string"
        },
        {
          "internalType": "string",
          "name": "url",
          "type": "string"
        },
        {
          "internalType": "address",
          "name": "creator",
          "type": "address"
        },
        {
          "internalType": "address",
          "name": "addr",
          "type": "address"
        },
        {
          "internalType": "bool",
          "name": "isActive",
          "type": "bool"
        }
      ],
      "stateMutability": "view",
      "type": "function"
    },
    {
      "inputs": [],
      "name": "getCurrentRound",
      "outputs": [
        {
          "internalType": "uint256",
          "name": "",
          "type": "uint256"
        }
      ],
      "stateMutability": "view",
      "type": "function"
    },
    {
      "inputs": [],
      "name": "getGameLength",
      "outputs": [
        {
          "internalType": "uint256",
          "name": "",
          "type": "uint256"
        }
      ],
      "stateMutability": "view",
      "type": "function"
    },
    {
      "inputs": [],
      "name": "getPoolLength",
      "outputs": [
        {
          "internalType": "uint256",
          "name": "",
          "type": "uint256"
        }
      ],
      "stateMutability": "view",
      "type": "function"
    },
    {
      "inputs": [
        {
          "internalType": "uint256",
          "name": "start",
          "type": "uint256"
        },
        {
          "internalType": "uint256",
          "name": "limit",
          "type": "uint256"
        }
      ],
      "name": "getTotalPlayingAmountByRound",
      "outputs": [
        {
          "internalType": "uint256[]",
          "name": "",
          "type": "uint256[]"
        }
      ],
      "stateMutability": "view",
      "type": "function"
    },
    {
      "inputs": [],
      "name": "isGameActive",
      "outputs": [
        {
          "components": [
            {
              "internalType": "string",
              "name": "name",
              "type": "string"
            },
            {
              "internalType": "string",
              "name": "description",
              "type": "string"
            },
            {
              "internalType": "string",
              "name": "url",
              "type": "string"
            },
            {
              "internalType": "address",
              "name": "creator",
              "type": "address"
            },
            {
              "internalType": "address",
              "name": "addr",
              "type": "address"
            },
            {
              "internalType": "bool",
              "name": "isActive",
              "type": "bool"
            }
          ],
          "internalType": "struct IHouse.GameInfo[]",
          "name": "",
          "type": "tuple[]"
        }
      ],
      "stateMutability": "view",
      "type": "function"
    },
    {
      "inputs": [
        {
          "internalType": "address",
          "name": "game",
          "type": "address"
        }
      ],
      "name": "isGameActive",
      "outputs": [
        {
          "internalType": "bool",
          "name": "",
          "type": "bool"
        }
      ],
      "stateMutability": "view",
      "type": "function"
    },
    {
      "inputs": [
        {
          "internalType": "address",
          "name": "",
          "type": "address"
        }
      ],
      "name": "lastClaimRound",
      "outputs": [
        {
          "internalType": "uint256",
          "name": "",
          "type": "uint256"
        }
      ],
      "stateMutability": "view",
      "type": "function"
    },
    {
      "inputs": [],
      "name": "maxOutputRate",
      "outputs": [
        {
          "internalType": "uint16",
          "name": "",
          "type": "uint16"
        }
      ],
      "stateMutability": "view",
      "type": "function"
    },
    {
      "inputs": [],
      "name": "note",
      "outputs": [
        {
          "internalType": "contract IERC20",
          "name": "",
          "type": "address"
        }
      ],
      "stateMutability": "view",
      "type": "function"
    },
    {
      "inputs": [],
      "name": "owner",
      "outputs": [
        {
          "internalType": "address",
          "name": "",
          "type": "address"
        }
      ],
      "stateMutability": "view",
      "type": "function"
    },
    {
      "inputs": [
        {
          "internalType": "address",
          "name": "",
          "type": "address"
        },
        {
          "internalType": "uint256",
          "name": "",
          "type": "uint256"
        }
      ],
      "name": "playingAmountByRound",
      "outputs": [
        {
          "internalType": "uint256",
          "name": "",
          "type": "uint256"
        }
      ],
      "stateMutability": "view",
      "type": "function"
    },
    {
      "inputs": [
        {
          "internalType": "uint256",
          "name": "",
          "type": "uint256"
        }
      ],
      "name": "playingRewardRatioByRound",
      "outputs": [
        {
          "internalType": "uint256",
          "name": "",
          "type": "uint256"
        }
      ],
      "stateMutability": "view",
      "type": "function"
    },
    {
      "inputs": [
        {
          "internalType": "uint256",
          "name": "poolId",
          "type": "uint256"
        }
      ],
      "name": "poolInfo",
      "outputs": [
        {
          "components": [
            {
              "internalType": "string",
              "name": "name",
              "type": "string"
            },
            {
              "internalType": "contract IERC20",
              "name": "asset",
              "type": "address"
            },
            {
              "internalType": "uint256",
              "name": "assetDecimals",
              "type": "uint256"
            },
            {
              "internalType": "uint256",
              "name": "deposit",
              "type": "uint256"
            },
            {
              "internalType": "uint256",
              "name": "lockPeriod",
              "type": "uint256"
            },
            {
              "internalType": "uint256",
              "name": "price",
              "type": "uint256"
            },
            {
              "internalType": "bool",
              "name": "isActive",
              "type": "bool"
            }
          ],
          "internalType": "struct IHouse.PoolInfo",
          "name": "",
          "type": "tuple"
        }
      ],
      "stateMutability": "view",
      "type": "function"
    },
    {
      "inputs": [
        {
          "internalType": "uint256",
          "name": "",
          "type": "uint256"
        },
        {
          "internalType": "uint256",
          "name": "",
          "type": "uint256"
        }
      ],
      "name": "poolRewardRatioByRound",
      "outputs": [
        {
          "internalType": "uint256",
          "name": "",
          "type": "uint256"
        }
      ],
      "stateMutability": "view",
      "type": "function"
    },
    {
      "inputs": [
        {
          "internalType": "uint256",
          "name": "",
          "type": "uint256"
        }
      ],
      "name": "pools",
      "outputs": [
        {
          "internalType": "string",
          "name": "name",
          "type": "string"
        },
        {
          "internalType": "contract IERC20",
          "name": "asset",
          "type": "address"
        },
        {
          "internalType": "uint256",
          "name": "assetDecimals",
          "type": "uint256"
        },
        {
          "internalType": "uint256",
          "name": "deposit",
          "type": "uint256"
        },
        {
          "internalType": "uint256",
          "name": "lockPeriod",
          "type": "uint256"
        },
        {
          "internalType": "uint256",
          "name": "price",
          "type": "uint256"
        },
        {
          "internalType": "bool",
          "name": "isActive",
          "type": "bool"
        }
      ],
      "stateMutability": "view",
      "type": "function"
    },
    {
      "inputs": [
        {
          "internalType": "uint256",
          "name": "poolId",
          "type": "uint256"
        },
        {
          "internalType": "address",
          "name": "target",
          "type": "address"
        }
      ],
      "name": "previewClaim",
      "outputs": [
        {
          "internalType": "uint256",
          "name": "",
          "type": "uint256"
        }
      ],
      "stateMutability": "view",
      "type": "function"
    },
    {
      "inputs": [
        {
          "internalType": "address",
          "name": "target",
          "type": "address"
        }
      ],
      "name": "previewClaimPlayingReward",
      "outputs": [
        {
          "internalType": "uint256",
          "name": "reward",
          "type": "uint256"
        }
      ],
      "stateMutability": "view",
      "type": "function"
    },
    {
      "inputs": [],
      "name": "renounceOwnership",
      "outputs": [],
      "stateMutability": "nonpayable",
      "type": "function"
    },
    {
      "inputs": [],
      "name": "rewarder",
      "outputs": [
        {
          "internalType": "address",
          "name": "",
          "type": "address"
        }
      ],
      "stateMutability": "view",
      "type": "function"
    },
    {
      "inputs": [],
      "name": "router",
      "outputs": [
        {
          "internalType": "contract BaseV1Router01",
          "name": "",
          "type": "address"
        }
      ],
      "stateMutability": "view",
      "type": "function"
    },
    {
      "inputs": [
        {
          "internalType": "address",
          "name": "_beto",
          "type": "address"
        }
      ],
      "name": "setBeto",
      "outputs": [],
      "stateMutability": "nonpayable",
      "type": "function"
    },
    {
      "inputs": [
        {
          "internalType": "uint256",
          "name": "_chipBonus",
          "type": "uint256"
        }
      ],
      "name": "setChipBonus",
      "outputs": [],
      "stateMutability": "nonpayable",
      "type": "function"
    },
    {
      "inputs": [
        {
          "internalType": "address",
          "name": "_collector",
          "type": "address"
        }
      ],
      "name": "setCollector",
      "outputs": [],
      "stateMutability": "nonpayable",
      "type": "function"
    },
    {
      "inputs": [
        {
          "internalType": "address",
          "name": "_distributor",
          "type": "address"
        }
      ],
      "name": "setDistributor",
      "outputs": [],
      "stateMutability": "nonpayable",
      "type": "function"
    },
    {
      "inputs": [
        {
          "internalType": "uint256",
          "name": "gameId",
          "type": "uint256"
        },
        {
          "internalType": "bool",
          "name": "isActive",
          "type": "bool"
        }
      ],
      "name": "setGameIsActive",
      "outputs": [
        {
          "components": [
            {
              "internalType": "string",
              "name": "name",
              "type": "string"
            },
            {
              "internalType": "string",
              "name": "description",
              "type": "string"
            },
            {
              "internalType": "string",
              "name": "url",
              "type": "string"
            },
            {
              "internalType": "address",
              "name": "creator",
              "type": "address"
            },
            {
              "internalType": "address",
              "name": "addr",
              "type": "address"
            },
            {
              "internalType": "bool",
              "name": "isActive",
              "type": "bool"
            }
          ],
          "internalType": "struct IHouse.GameInfo",
          "name": "",
          "type": "tuple"
        }
      ],
      "stateMutability": "nonpayable",
      "type": "function"
    },
    {
      "inputs": [
        {
          "internalType": "uint256",
          "name": "poolId",
          "type": "uint256"
        },
        {
          "internalType": "uint256",
          "name": "newLockPeriod",
          "type": "uint256"
        }
      ],
      "name": "setLockPeriod",
      "outputs": [],
      "stateMutability": "nonpayable",
      "type": "function"
    },
    {
      "inputs": [
        {
          "internalType": "uint16",
          "name": "_maxOutputRate",
          "type": "uint16"
        }
      ],
      "name": "setMaxOutputRate",
      "outputs": [],
      "stateMutability": "nonpayable",
      "type": "function"
    },
    {
      "inputs": [
        {
          "internalType": "uint256",
          "name": "poolId",
          "type": "uint256"
        },
        {
          "internalType": "bool",
          "name": "isActive",
          "type": "bool"
        }
      ],
      "name": "setPoolIsActive",
      "outputs": [
        {
          "components": [
            {
              "internalType": "string",
              "name": "name",
              "type": "string"
            },
            {
              "internalType": "contract IERC20",
              "name": "asset",
              "type": "address"
            },
            {
              "internalType": "uint256",
              "name": "assetDecimals",
              "type": "uint256"
            },
            {
              "internalType": "uint256",
              "name": "deposit",
              "type": "uint256"
            },
            {
              "internalType": "uint256",
              "name": "lockPeriod",
              "type": "uint256"
            },
            {
              "internalType": "uint256",
              "name": "price",
              "type": "uint256"
            },
            {
              "internalType": "bool",
              "name": "isActive",
              "type": "bool"
            }
          ],
          "internalType": "struct IHouse.PoolInfo",
          "name": "",
          "type": "tuple"
        }
      ],
      "stateMutability": "nonpayable",
      "type": "function"
    },
    {
      "inputs": [
        {
          "internalType": "address",
          "name": "_rewarder",
          "type": "address"
        }
      ],
      "name": "setRewarder",
      "outputs": [],
      "stateMutability": "nonpayable",
      "type": "function"
    },
    {
      "inputs": [
        {
          "internalType": "address",
          "name": "_treasury",
          "type": "address"
        }
      ],
      "name": "setTreasury",
      "outputs": [],
      "stateMutability": "nonpayable",
      "type": "function"
    },
    {
      "inputs": [
        {
          "internalType": "address",
          "name": "player",
          "type": "address"
        },
        {
          "internalType": "uint256",
          "name": "poolId",
          "type": "uint256"
        },
        {
          "internalType": "uint256",
          "name": "gameId",
          "type": "uint256"
        },
        {
          "internalType": "uint256",
          "name": "input",
          "type": "uint256"
        },
        {
          "internalType": "uint256",
          "name": "output",
          "type": "uint256"
        }
      ],
      "name": "settle",
      "outputs": [],
      "stateMutability": "nonpayable",
      "type": "function"
    },
    {
      "inputs": [],
      "name": "totalPlayingAmount",
      "outputs": [
        {
          "internalType": "uint256",
          "name": "",
          "type": "uint256"
        }
      ],
      "stateMutability": "view",
      "type": "function"
    },
    {
      "inputs": [
        {
          "internalType": "uint256",
          "name": "",
          "type": "uint256"
        }
      ],
      "name": "totalPlayingAmountByRound",
      "outputs": [
        {
          "internalType": "uint256",
          "name": "",
          "type": "uint256"
        }
      ],
      "stateMutability": "view",
      "type": "function"
    },
    {
      "inputs": [
        {
          "internalType": "address",
          "name": "newOwner",
          "type": "address"
        }
      ],
      "name": "transferOwnership",
      "outputs": [],
      "stateMutability": "nonpayable",
      "type": "function"
    },
    {
      "inputs": [],
      "name": "treasury",
      "outputs": [
        {
          "internalType": "address",
          "name": "",
          "type": "address"
        }
      ],
      "stateMutability": "view",
      "type": "function"
    },
    {
      "inputs": [
        {
          "internalType": "uint256",
          "name": "poolId",
          "type": "uint256"
        }
      ],
      "name": "updatePrice",
      "outputs": [],
      "stateMutability": "nonpayable",
      "type": "function"
    },
    {
      "inputs": [
        {
          "internalType": "uint256",
          "name": "poolId",
          "type": "uint256"
        },
        {
          "internalType": "uint256",
          "name": "amount",
          "type": "uint256"
        }
      ],
      "name": "withdraw",
      "outputs": [
        {
          "internalType": "uint256",
          "name": "",
          "type": "uint256"
        },
        {
          "internalType": "uint256",
          "name": "",
          "type": "uint256"
        }
      ],
      "stateMutability": "nonpayable",
      "type": "function"
    }
  ],
  "bytecode": "0x60a06040526445d964b800600c5564e8d4a510006080523480156200002357600080fd5b50604051620048f8380380620048f8833981016040819052620000469162000112565b6200005133620000a5565b600280546001600160a01b039586166001600160a01b03199182161790915560018054948616948216949094179093556003805492851692841692909217909155600880549190931691161790556200016f565b600080546001600160a01b038381166001600160a01b0319831681178455604051919092169283917f8be0079c531659141344cd1fd0a4f28419497f9722a3daafe3b4186f6b6457e09190a35050565b80516001600160a01b03811681146200010d57600080fd5b919050565b600080600080608085870312156200012957600080fd5b6200013485620000f5565b93506200014460208601620000f5565b92506200015460408601620000f5565b91506200016460608601620000f5565b905092959194509250565b60805161473c620001bc600039600081816106d70152818161121c01528181611a3a01528181611c2e01528181612922015281816129e501528181612b5e0152613748015261473c6000f3fe608060405234801561001057600080fd5b50600436106103a45760003560e01c80638d6cc56d116101e9578063c5c63e651161010f578063ed3f5641116100ad578063f331de4c1161007c578063f331de4c14610919578063f869fab91461092c578063f887ea401461093f578063fb5b82d01461095257600080fd5b8063ed3f5641146108c0578063f0f44260146108c8578063f271f172146108db578063f2fde38b1461090657600080fd5b8063d6d68177116100e9578063d6d6817714610816578063dcc3e06e1461086b578063e2bbb1581461087e578063e5225381146108b857600080fd5b8063c5c63e65146107b9578063c857830c146107ce578063d1c959d0146107f657600080fd5b8063ae43a71b11610187578063b8ae007d11610156578063b8ae007d1461076d578063bd05229814610780578063bfe1092814610793578063c52a977a146107a657600080fd5b8063ae43a71b1461071f578063b3944d521461073f578063b61500e414610747578063b748ab741461075a57600080fd5b8063a32bf597116101c3578063a32bf597146106aa578063a5a48d6b146106b2578063aaf5eb68146106d2578063ac4afa38146106f957600080fd5b80638d6cc56d146106735780638da5cb5b14610686578063913e77ad1461069757600080fd5b80634934c27c116102ce578063715018a61161026c57806375e44c5c1161023b57806375e44c5c1461060d57806382d3b6021461062d578063878742c81461064057806389a583661461066057600080fd5b8063715018a6146105bf57806372b04ab4146105c757806372dfd178146105da57806375619ab5146105fa57600080fd5b806361d027b3116102a857806361d027b314610570578063633a8bcf14610583578063670f44bc146105a35780636e13ba6f146105ac57600080fd5b80634934c27c1461051a5780634a41baaa1461053a578063565ec1331461054d57600080fd5b80632f5c69ed1161034657806343fb86d21161031557806343fb86d2146104cf578063441a3e70146104d7578063465542f0146104ff5780634778a6821461050757600080fd5b80632f5c69ed14610476578063379607f5146104895780633a6462e41461049c5780633d39c879146104af57600080fd5b80631526fe27116103825780631526fe27146104035780632494696a1461042357806326d111f514610436578063293604a31461046157600080fd5b80630c0ef2b0146103a957806311361429146103c7578063117a5b90146103de575b600080fd5b6103b1610965565b6040516103be9190613e35565b60405180910390f35b6103d060155481565b6040519081526020016103be565b6103f16103ec366004613e97565b610bb3565b6040516103be96959493929190613eb0565b610416610411366004613e97565b610daa565b6040516103be9190613f7c565b6103d0610431366004613fe6565b610f04565b600154610449906001600160a01b031681565b6040516001600160a01b0390911681526020016103be565b61047461046f366004613e97565b611157565b005b610474610484366004614094565b611164565b6103d0610497366004613e97565b61118e565b6104746104aa366004614094565b6112fe565b6103d06104bd366004613e97565b60106020526000908152604090205481565b6009546103d0565b6104ea6104e53660046140b1565b611328565b604080519283526020830191909152016103be565b6103b16115c3565b6104166105153660046140e1565b611808565b6103d0610528366004614094565b60136020526000908152604090205481565b610474610548366004614111565b6119a9565b61056061055b366004614094565b611dc6565b60405190151581526020016103be565b600754610449906001600160a01b031681565b6103d0610591366004614094565b60126020526000908152604090205481565b6103d0600c5481565b6103d06105ba36600461414a565b611e18565b610474611fc4565b6104746105d53660046140b1565b611fd8565b6103d06105e8366004614094565b60146020526000908152604090205481565b610474610608366004614094565b61200d565b61062061061b3660046141a7565b612037565b6040516103be9190614240565b6103d061063b3660046140b1565b61228a565b61065361064e3660046140b1565b6122bb565b6040516103be9190614253565b6103d061066e366004613e97565b61235f565b610474610681366004613e97565b612380565b6000546001600160a01b0316610449565b600554610449906001600160a01b031681565b600f546103d0565b6103d06106c0366004614094565b600b6020526000908152604090205481565b6103d07f000000000000000000000000000000000000000000000000000000000000000081565b61070c610707366004613e97565b6126d8565b6040516103be9796959493929190614297565b61073261072d366004614094565b6127c2565b6040516103be91906142e6565b600a546103d0565b600354610449906001600160a01b031681565b6103d0610768366004614094565b6128b8565b6103d061077b3660046141a7565b612a1a565b61047461078e36600461433b565b612b8c565b600654610449906001600160a01b031681565b6104746107b436600461435f565b612bd0565b6107c1612eae565b6040516103be91906143a3565b6007546107e390600160a01b900461ffff1681565b60405161ffff90911681526020016103be565b6108096108043660046140e1565b612fe6565b6040516103be91906143f8565b61085061082436600461440b565b600e60209081526000928352604080842090915290825290208054600182015460029092015490919083565b604080519384526020840192909252908201526060016103be565b600454610449906001600160a01b031681565b61089161088c3660046140b1565b613295565b604080518351815260208085015190820152928101519083015260608201526080016103be565b610474613464565b6103d061362a565b6104746108d6366004614094565b613834565b6103d06108e936600461440b565b601160209081526000928352604080842090915290825290205481565b610474610914366004614094565b61385e565b610474610927366004614437565b6138eb565b600254610449906001600160a01b031681565b600854610449906001600160a01b031681565b610474610960366004614094565b613b41565b60606009805480602002602001604051908101604052809291908181526020016000905b82821015610baa57838290600052602060002090600502016040518060c00160405290816000820180546109bc90614472565b80601f01602080910402602001604051908101604052809291908181526020018280546109e890614472565b8015610a355780601f10610a0a57610100808354040283529160200191610a35565b820191906000526020600020905b815481529060010190602001808311610a1857829003601f168201915b50505050508152602001600182018054610a4e90614472565b80601f0160208091040260200160405190810160405280929190818152602001828054610a7a90614472565b8015610ac75780601f10610a9c57610100808354040283529160200191610ac7565b820191906000526020600020905b815481529060010190602001808311610aaa57829003601f168201915b50505050508152602001600282018054610ae090614472565b80601f0160208091040260200160405190810160405280929190818152602001828054610b0c90614472565b8015610b595780601f10610b2e57610100808354040283529160200191610b59565b820191906000526020600020905b815481529060010190602001808311610b3c57829003601f168201915b505050918352505060038201546001600160a01b039081166020808401919091526004909301549081166040830152600160a01b900460ff1615156060909101529082526001929092019101610989565b50505050905090565b60098181548110610bc357600080fd5b9060005260206000209060050201600091509050806000018054610be690614472565b80601f0160208091040260200160405190810160405280929190818152602001828054610c1290614472565b8015610c5f5780601f10610c3457610100808354040283529160200191610c5f565b820191906000526020600020905b815481529060010190602001808311610c4257829003601f168201915b505050505090806001018054610c7490614472565b80601f0160208091040260200160405190810160405280929190818152602001828054610ca090614472565b8015610ced5780601f10610cc257610100808354040283529160200191610ced565b820191906000526020600020905b815481529060010190602001808311610cd057829003601f168201915b505050505090806002018054610d0290614472565b80601f0160208091040260200160405190810160405280929190818152602001828054610d2e90614472565b8015610d7b5780601f10610d5057610100808354040283529160200191610d7b565b820191906000526020600020905b815481529060010190602001808311610d5e57829003601f168201915b50505050600383015460049093015491926001600160a01b03908116929081169150600160a01b900460ff1686565b610df56040518060e001604052806060815260200160006001600160a01b03168152602001600081526020016000815260200160008152602001600081526020016000151581525090565b600a8281548110610e0857610e086144a7565b90600052602060002090600702016040518060e0016040529081600082018054610e3190614472565b80601f0160208091040260200160405190810160405280929190818152602001828054610e5d90614472565b8015610eaa5780601f10610e7f57610100808354040283529160200191610eaa565b820191906000526020600020905b815481529060010190602001808311610e8d57829003601f168201915b505050918352505060018201546001600160a01b03166020820152600282015460408201526003820154606082015260048201546080820152600582015460a082015260069091015460ff16151560c09091015292915050565b6000610f0e613b6b565b6040805160e06020601f8b01819004028201810190925260c081018981526009928291908c908c9081908501838280828437600092019190915250505090825250604080516020601f8b0181900481028201810190925289815291810191908a908a9081908401838280828437600092019190915250505090825250604080516020601f89018190048102820181019092528781529181019190889088908190840183828082843760009201829052509385525050336020808501919091526001600160a01b03881660408501526001606090940184905285549384018655948252508390208251805193946005909302909101926110109284920190613ccb565b5060208281015180516110299260018501920190613ccb565b5060408201518051611045916002840191602090910190613ccb565b5060608201516003820180546001600160a01b0319166001600160a01b0392831617905560808301516004909201805460a090940151929091167fffffffffffffffffffffff00000000000000000000000000000000000000000090931692909217600160a01b911515919091021790556009546110c5906001906144d3565b6001600160a01b0383166000818152600b602052604090819020839055517f5926cf130000000000000000000000000000000000000000000000000000000081526004810183905291925090635926cf1390602401600060405180830381600087803b15801561113457600080fd5b505af1158015611148573d6000803e3d6000fd5b50505050979650505050505050565b61115f613b6b565b600c55565b61116c613b6b565b600280546001600160a01b0319166001600160a01b0392909216919091179055565b336000908152600e6020908152604080832084845290915281208054156112f8576000838152600d6020526040902054600182015410156112f85760018101545b6000848152600d602052604090205481101561125e576000848152600d60205260409020805461124091908390811061120a5761120a6144a7565b906000526020600020015483600001547f0000000000000000000000000000000000000000000000000000000000000000613bc5565b61124a90846144ea565b92508061125681614502565b9150506111cf565b506000838152600d602052604090205460018201556004546001600160a01b031663fb932108336040516001600160e01b031960e084901b1681526001600160a01b039091166004820152602481018590526044016020604051808303816000875af11580156112d2573d6000803e3d6000fd5b505050506040513d601f19601f820116820180604052508101906112f6919061451d565b505b50919050565b611306613b6b565b600480546001600160a01b0319166001600160a01b0392909216919091179055565b6000806000600a8581548110611340576113406144a7565b906000526020600020906007020190506000600e600061135d3390565b6001600160a01b03168152602080820192909252604090810160009081208982529092529020600683015490915060ff1615156001146113e45760405162461bcd60e51b815260206004820152600e60248201527f496e6163746976656420506f6f6c00000000000000000000000000000000000060448201526064015b60405180910390fd5b80548511156114355760405162461bcd60e51b815260206004820152601360248201527f4e6f7420656e6f75676874204465706f7369740000000000000000000000000060448201526064016113db565b84826003015410156114895760405162461bcd60e51b815260206004820152601060248201527f4e6f7420656e6f7567687420506f6f6c0000000000000000000000000000000060448201526064016113db565b428260040154826002015461149e91906144ea565b106114ed5760405162461bcd60e51b81526004016113db9060208082526004908201527f4c4f434b00000000000000000000000000000000000000000000000000000000604082015260600190565b60006114f88761118e565b90508582600001600082825461150e91906144d3565b925050819055508583600301600082825461152991906144d3565b909155505060018301546001600160a01b031663a9059cbb336040516001600160e01b031960e084901b1681526001600160a01b039091166004820152602481018990526044016020604051808303816000875af115801561158f573d6000803e3d6000fd5b505050506040513d601f19601f820116820180604052508101906115b39190614536565b50935084925050505b9250929050565b60606009805480602002602001604051908101604052809291908181526020016000905b82821015610baa57838290600052602060002090600502016040518060c001604052908160008201805461161a90614472565b80601f016020809104026020016040519081016040528092919081815260200182805461164690614472565b80156116935780601f1061166857610100808354040283529160200191611693565b820191906000526020600020905b81548152906001019060200180831161167657829003601f168201915b505050505081526020016001820180546116ac90614472565b80601f01602080910402602001604051908101604052809291908181526020018280546116d890614472565b80156117255780601f106116fa57610100808354040283529160200191611725565b820191906000526020600020905b81548152906001019060200180831161170857829003601f168201915b5050505050815260200160028201805461173e90614472565b80601f016020809104026020016040519081016040528092919081815260200182805461176a90614472565b80156117b75780601f1061178c576101008083540402835291602001916117b7565b820191906000526020600020905b81548152906001019060200180831161179a57829003601f168201915b505050918352505060038201546001600160a01b039081166020808401919091526004909301549081166040830152600160a01b900460ff16151560609091015290825260019290920191016115e7565b6118536040518060e001604052806060815260200160006001600160a01b03168152602001600081526020016000815260200160008152602001600081526020016000151581525090565b61185b613b6b565b81600a848154811061186f5761186f6144a7565b906000526020600020906007020160060160006101000a81548160ff021916908315150217905550600a83815481106118aa576118aa6144a7565b90600052602060002090600702016040518060e00160405290816000820180546118d390614472565b80601f01602080910402602001604051908101604052809291908181526020018280546118ff90614472565b801561194c5780601f106119215761010080835404028352916020019161194c565b820191906000526020600020905b81548152906001019060200180831161192f57829003601f168201915b505050918352505060018201546001600160a01b03166020820152600282015460408201526003820154606082015260048201546080820152600582015460a082015260069091015460ff16151560c09091015290505b92915050565b6006546001600160a01b0316336001600160a01b0316146119fb5760405162461bcd60e51b815260206004820152600c60248201526b155b985d5d1a1bdc9a5e995960a21b60448201526064016113db565b6000836001811115611a0f57611a0f614553565b1415611bda57600f546000908152601060205260408120549081611a34576000611a5f565b611a5f837f000000000000000000000000000000000000000000000000000000000000000084613bc5565b90508015611b12576002546001600160a01b03166323b872dd3360075460405160e084901b6001600160e01b03191681526001600160a01b03928316600482015291166024820152604481018690526064016020604051808303816000875af1158015611ad0573d6000803e3d6000fd5b505050506040513d601f19601f82011682018060405250810190611af49190614536565b508160156000828254611b0791906144ea565b90915550611ba19050565b6002546001600160a01b03166323b872dd3360055460405160e084901b6001600160e01b03191681526001600160a01b03928316600482015291166024820152604481018690526064016020604051808303816000875af1158015611b7b573d6000803e3d6000fd5b505050506040513d601f19601f82011682018060405250810190611b9f9190614536565b505b600f80546001810182556000919091527f8d1108e10bcb7c27dddfc02ed9d693a074039d026cf4ea4240b40f7d581ac802015550505050565b6001836001811115611bee57611bee614553565b1415611dc157600080600a8481548110611c0a57611c0a6144a7565b90600052602060002090600702016003015411611c28576000611c77565b611c77827f0000000000000000000000000000000000000000000000000000000000000000600a8681548110611c6057611c606144a7565b906000526020600020906007020160030154613bc5565b90508015611d12576002546001600160a01b03166323b872dd3360075460405160e084901b6001600160e01b03191681526001600160a01b03928316600482015291166024820152604481018590526064016020604051808303816000875af1158015611ce8573d6000803e3d6000fd5b505050506040513d601f19601f82011682018060405250810190611d0c9190614536565b50611da1565b6002546001600160a01b03166323b872dd3360055460405160e084901b6001600160e01b03191681526001600160a01b03928316600482015291166024820152604481018590526064016020604051808303816000875af1158015611d7b573d6000803e3d6000fd5b505050506040513d601f19601f82011682018060405250810190611d9f9190614536565b505b6000838152600d6020908152604082208054600181018255908352912001555b505050565b6001600160a01b0381166000908152600b6020526040812054600980549091908110611df457611df46144a7565b6000918252602090912060059091020160040154600160a01b900460ff1692915050565b6000611e22613b6b565b60008390506000816001600160a01b031663313ce5676040518163ffffffff1660e01b8152600401602060405180830381865afa158015611e67573d6000803e3d6000fd5b505050506040513d601f19601f82011682018060405250810190611e8b9190614569565b60ff169050600a6040518060e0016040528089898080601f01602080910402602001604051908101604052809392919081815260200183838082843760009201829052509385525050506001600160a01b03861660208084019190915260408301869052606083018290526080830189905260a08301829052600160c090930183905284549283018555938152839020825180519394600790930290910192611f379284920190613ccb565b506020820151600182810180546001600160a01b0319166001600160a01b039093169290921790915560408301516002830155606083015160038301556080830151600483015560a0830151600583015560c0909201516006909101805460ff1916911515919091179055600a54611faf91906144d3565b9250611fba83612380565b5050949350505050565b611fcc613b6b565b611fd66000613c7b565b565b611fe0613b6b565b80600a8381548110611ff457611ff46144a7565b9060005260206000209060070201600401819055505050565b612015613b6b565b600680546001600160a01b0319166001600160a01b0392909216919091179055565b61208a604051806101000160405280600081526020016060815260200160006001600160a01b03168152602001600081526020016000815260200160008152602001600081526020016000151581525090565b6000600a848154811061209f5761209f6144a7565b90600052602060002090600702016040518060e00160405290816000820180546120c890614472565b80601f01602080910402602001604051908101604052809291908181526020018280546120f490614472565b80156121415780601f1061211657610100808354040283529160200191612141565b820191906000526020600020905b81548152906001019060200180831161212457829003601f168201915b505050918352505060018201546001600160a01b039081166020808401919091526002840154604080850191909152600385015460608501526004808601546080860152600586015460a086015260069095015460ff16151560c09094019390935284015191516370a0823160e01b8152309381019390935292935060009216906370a0823190602401602060405180830381865afa1580156121e8573d6000803e3d6000fd5b505050506040513d601f19601f8201168201806040525081019061220c919061451d565b60408051610100810182528781528451602080830191909152808601516001600160a01b0390811683850152606080880151908401526080830194909452969092166000908152600e875281812097815296909552939094205460a08085019190915281015160c0808501919091520151151560e083015250919050565b600d60205281600052604060002081815481106122a657600080fd5b90600052602060002001600091509150505481565b606060008267ffffffffffffffff8111156122d8576122d861458c565b604051908082528060200260200182016040528015612301578160200160208202803683370190505b509050835b61231084866144ea565b81101561235757600081815260106020526040902054825183908390811061233a5761233a6144a7565b60209081029190910101528061234f81614502565b915050612306565b509392505050565b600f818154811061236f57600080fd5b600091825260209091200154905081565b6000600a8281548110612395576123956144a7565b60009182526020909120600180546007909302909101908101549092506001600160a01b03908116911614156123de5760126002820155670de0b6b3a764000060058201555050565b60035460018201546001600160a01b03908116911614156124905760126002820155600354604080517f98d5fdca00000000000000000000000000000000000000000000000000000000815290516001600160a01b03909216916398d5fdca916004808201926020929091908290030181865afa158015612463573d6000803e3d6000fd5b505050506040513d601f19601f82011682018060405250810190612487919061451d565b60058201555050565b60018181015460085491546040517f4c1ee03e0000000000000000000000000000000000000000000000000000000081526001600160a01b0391821660048201529181166024830181905260006044840181905290939092911690634c1ee03e90606401602060405180830381865afa158015612511573d6000803e3d6000fd5b505050506040513d601f19601f8201168201806040525081019061253591906145a2565b6008546040517fe5e31b130000000000000000000000000000000000000000000000000000000081526001600160a01b03808416600483015292935091169063e5e31b1390602401602060405180830381865afa15801561259a573d6000803e3d6000fd5b505050506040513d601f19601f820116820180604052508101906125be9190614536565b6125ce57600060058401556126d2565b816001600160a01b031663313ce5676040518163ffffffff1660e01b8152600401602060405180830381865afa15801561260c573d6000803e3d6000fd5b505050506040513d601f19601f820116820180604052508101906126309190614569565b60ff16600284018190556001600160a01b03821690639e8cc04b90849061265890600a6146a3565b6040516001600160e01b031960e085901b1681526001600160a01b039092166004830152602482015260016044820152606401602060405180830381865afa1580156126a8573d6000803e3d6000fd5b505050506040513d601f19601f820116820180604052508101906126cc919061451d565b60058401555b50505050565b600a81815481106126e857600080fd5b906000526020600020906007020160009150905080600001805461270b90614472565b80601f016020809104026020016040519081016040528092919081815260200182805461273790614472565b80156127845780601f1061275957610100808354040283529160200191612784565b820191906000526020600020905b81548152906001019060200180831161276757829003601f168201915b5050506001840154600285015460038601546004870154600588015460069098015496976001600160a01b0390941696929550909350919060ff1687565b600a5460609060009067ffffffffffffffff8111156127e3576127e361458c565b60405190808252806020026020018201604052801561286757816020015b612854604051806101000160405280600081526020016060815260200160006001600160a01b03168152602001600081526020016000815260200160008152602001600081526020016000151581525090565b8152602001906001900390816128015790505b50905060005b600a548110156128b1576128818185612037565b828281518110612893576128936144a7565b602002602001018190525080806128a990614502565b91505061286d565b5092915050565b33600090815260126020526040812054805b600f54811015612966576001600160a01b038416600090815260116020908152604080832084845290915290205480156129535761294681600f8481548110612915576129156144a7565b90600052602060002001547f0000000000000000000000000000000000000000000000000000000000000000613bc5565b61295090856144ea565b93505b508061295e81614502565b9150506128ca565b508115612a115760048054604051632b07ce8560e01b815260009281018390526001600160a01b0390911690632b07ce8590602401602060405180830381865afa1580156129b8573d6000803e3d6000fd5b505050506040513d601f19601f820116820180604052508101906129dc919061451d565b9050612a0983827f0000000000000000000000000000000000000000000000000000000000000000613bc5565b949350505050565b50600092915050565b6001600160a01b0381166000908152600e6020908152604080832085845290915281208054829015612ae6576000858152600d602052604090205460018301541015612ae65760018201545b6000868152600d6020526040902054811015612ae45782546000878152600d60205260409020805464e8d4a5100092919084908110612aa757612aa76144a7565b9060005260206000200154612abc91906146af565b612ac691906146e4565b612ad090836144ea565b915080612adc81614502565b915050612a66565b505b60048054604051632b07ce8560e01b815260009281018390526001600160a01b0390911690632b07ce8590602401602060405180830381865afa158015612b31573d6000803e3d6000fd5b505050506040513d601f19601f82011682018060405250810190612b55919061451d565b9050612b8282827f0000000000000000000000000000000000000000000000000000000000000000613bc5565b9695505050505050565b612b94613b6b565b6007805461ffff909216600160a01b027fffffffffffffffffffff0000ffffffffffffffffffffffffffffffffffffffff909216919091179055565b336001600160a01b031660098481548110612bed57612bed6144a7565b60009182526020909120600460059092020101546001600160a01b031614612c575760405162461bcd60e51b815260206004820152600260248201527f554100000000000000000000000000000000000000000000000000000000000060448201526064016113db565b6000600a8581548110612c6c57612c6c6144a7565b60009182526020909120600790910201600681015490915060ff16612cbf5760405162461bcd60e51b8152602060048201526009602482015268125b9858dd1a5d995960ba1b60448201526064016113db565b8215612d5b57600581015415612d5b576000612cf08483600501548460020154600a612ceb91906146a3565b613bc5565b90508015612d5957600f5460009081526010602052604081208054839290612d199084906144ea565b90915550506001600160a01b0387166000908152601160209081526040808320600f54845290915281208054839290612d539084906144ea565b90915550505b505b8115612ea65760075460018201546040516370a0823160e01b8152306004820152600092620f424092600160a01b90910461ffff16916001600160a01b03909116906370a0823190602401602060405180830381865afa158015612dc3573d6000803e3d6000fd5b505050506040513d601f19601f82011682018060405250810190612de7919061451d565b612df191906146af565b612dfb91906146e4565b90506000818411612e0c5783612e0e565b815b60018401546040517fa9059cbb0000000000000000000000000000000000000000000000000000000081526001600160a01b038b811660048301526024820184905292935091169063a9059cbb906044016020604051808303816000875af1158015612e7e573d6000803e3d6000fd5b505050506040513d601f19601f82011682018060405250810190612ea29190614536565b5050505b505050505050565b6060600a805480602002602001604051908101604052809291908181526020016000905b82821015610baa57838290600052602060002090600702016040518060e0016040529081600082018054612f0590614472565b80601f0160208091040260200160405190810160405280929190818152602001828054612f3190614472565b8015612f7e5780601f10612f5357610100808354040283529160200191612f7e565b820191906000526020600020905b815481529060010190602001808311612f6157829003601f168201915b50505091835250506001828101546001600160a01b0316602080840191909152600284015460408401526003840154606084015260048401546080840152600584015460a084015260069093015460ff16151560c09092019190915291835292019101612ed2565b6130336040518060c0016040528060608152602001606081526020016060815260200160006001600160a01b0316815260200160006001600160a01b031681526020016000151581525090565b61303b613b6b565b816009848154811061304f5761304f6144a7565b906000526020600020906005020160040160146101000a81548160ff0219169083151502179055506009838154811061308a5761308a6144a7565b90600052602060002090600502016040518060c00160405290816000820180546130b390614472565b80601f01602080910402602001604051908101604052809291908181526020018280546130df90614472565b801561312c5780601f106131015761010080835404028352916020019161312c565b820191906000526020600020905b81548152906001019060200180831161310f57829003601f168201915b5050505050815260200160018201805461314590614472565b80601f016020809104026020016040519081016040528092919081815260200182805461317190614472565b80156131be5780601f10613193576101008083540402835291602001916131be565b820191906000526020600020905b8154815290600101906020018083116131a157829003601f168201915b505050505081526020016002820180546131d790614472565b80601f016020809104026020016040519081016040528092919081815260200182805461320390614472565b80156132505780601f1061322557610100808354040283529160200191613250565b820191906000526020600020905b81548152906001019060200180831161323357829003601f168201915b505050918352505060038201546001600160a01b0390811660208301526004909201549182166040820152600160a01b90910460ff1615156060909101529392505050565b6132b960405180606001604052806000815260200160008152602001600081525090565b600080600a85815481106132cf576132cf6144a7565b6000918252602090912060066007909202019081015490915060ff16151560011461333c5760405162461bcd60e51b815260206004820152600e60248201527f496e6163746976656420506f6f6c00000000000000000000000000000000000060448201526064016113db565b336000818152600e602090815260408083208984528252808320600186015482517f23b872dd0000000000000000000000000000000000000000000000000000000081526004810196909652306024870152604486018a9052915190946001600160a01b03909216936323b872dd936064808501949193929183900301908290875af11580156133d0573d6000803e3d6000fd5b505050506040513d601f19601f820116820180604052508101906133f49190614536565b5060006134008761118e565b90508583600301600082825461341691906144ea565b909155505081548690839060009061342f9084906144ea565b909155505042600283018190556040805160608101825284548152600190940154602085015283015290969095509350505050565b6005546001600160a01b0316336001600160a01b0316146134b65760405162461bcd60e51b815260206004820152600c60248201526b155b985d5d1a1bdc9a5e995960a21b60448201526064016113db565b60005b600a54811015613627576000600a82815481106134d8576134d86144a7565b6000918252602082206007919091020160018101546040516370a0823160e01b81523060048201529193506001600160a01b0316906370a0823190602401602060405180830381865afa158015613533573d6000803e3d6000fd5b505050506040513d601f19601f82011682018060405250810190613557919061451d565b600683015490915060ff1680156135715750816003015481115b1561361257600182015460055460038401546001600160a01b039283169263a9059cbb9216906135a190856144d3565b6040516001600160e01b031960e085901b1681526001600160a01b03909216600483015260248201526044016020604051808303816000875af11580156135ec573d6000803e3d6000fd5b505050506040513d601f19601f820116820180604052508101906136109190614536565b505b5050808061361f90614502565b9150506134b9565b50565b3360009081526012602052604081205481815b600f548110156136ab5733600090815260116020908152604080832084845290915290205480156136985761367f81600f8481548110612915576129156144a7565b61368990866144ea565b945061369581846144ea565b92505b50806136a381614502565b91505061363d565b5033600090815260146020526040812080548392906136cb9084906144ea565b909155505060048054604051632b07ce8560e01b815260009281018390526001600160a01b0390911690632b07ce8590602401602060405180830381865afa15801561371b573d6000803e3d6000fd5b505050506040513d601f19601f8201168201806040525081019061373f919061451d565b905061376c84827f0000000000000000000000000000000000000000000000000000000000000000613bc5565b336000908152601360205260408120805490919061378b9084906144ea565b9091555050600f5433600090815260126020526040902055831561382e576004546001600160a01b031663fb932108336040516001600160e01b031960e084901b1681526001600160a01b039091166004820152602481018790526044016020604051808303816000875af1158015613808573d6000803e3d6000fd5b505050506040513d601f19601f8201168201806040525081019061382c919061451d565b505b50505090565b61383c613b6b565b600780546001600160a01b0319166001600160a01b0392909216919091179055565b613866613b6b565b6001600160a01b0381166138e25760405162461bcd60e51b815260206004820152602660248201527f4f776e61626c653a206e6577206f776e657220697320746865207a65726f206160448201527f646472657373000000000000000000000000000000000000000000000000000060648201526084016113db565b61362781613c7b565b336001600160a01b031660098381548110613908576139086144a7565b60009182526020909120600460059092020101546001600160a01b0316146139615760405162461bcd60e51b815260206004820152600c60248201526b155b985d5d1a1bdc9a5e995960a21b60448201526064016113db565b6000600a8481548110613976576139766144a7565b90600052602060002090600702016040518060e001604052908160008201805461399f90614472565b80601f01602080910402602001604051908101604052809291908181526020018280546139cb90614472565b8015613a185780601f106139ed57610100808354040283529160200191613a18565b820191906000526020600020905b8154815290600101906020018083116139fb57829003601f168201915b505050918352505060018201546001600160a01b03166020820152600282015460408201526003820154606082015260048201546080820152600582015460a082015260069091015460ff16151560c091820152810151909150613aaa5760405162461bcd60e51b8152602060048201526009602482015268125b9858dd1a5d995960ba1b60448201526064016113db565b60a081015115613b3a576000613ad0838360a001518460400151600a612ceb91906146a3565b90508015612ea657600f5460009081526010602052604081208054839290613af99084906144ea565b90915550506001600160a01b0386166000908152601160209081526040808320600f54845290915281208054839290613b339084906144ea565b9091555050505b5050505050565b613b49613b6b565b600580546001600160a01b0319166001600160a01b0392909216919091179055565b6000546001600160a01b03163314611fd65760405162461bcd60e51b815260206004820181905260248201527f4f776e61626c653a2063616c6c6572206973206e6f7420746865206f776e657260448201526064016113db565b600080806000198587098587029250828110838203039150508060001415613c0057838281613bf657613bf66146ce565b0492505050613c74565b808411613c0c57600080fd5b600084868809851960019081018716968790049682860381900495909211909303600082900391909104909201919091029190911760038402600290811880860282030280860282030280860282030280860282030280860282030280860290910302029150505b9392505050565b600080546001600160a01b038381166001600160a01b0319831681178455604051919092169283917f8be0079c531659141344cd1fd0a4f28419497f9722a3daafe3b4186f6b6457e09190a35050565b828054613cd790614472565b90600052602060002090601f016020900481019282613cf95760008555613d3f565b82601f10613d1257805160ff1916838001178555613d3f565b82800160010185558215613d3f579182015b82811115613d3f578251825591602001919060010190613d24565b50613d4b929150613d4f565b5090565b5b80821115613d4b5760008155600101613d50565b6000815180845260005b81811015613d8a57602081850181015186830182015201613d6e565b81811115613d9c576000602083870101525b50601f01601f19169290920160200192915050565b6000815160c08452613dc660c0850182613d64565b905060208301518482036020860152613ddf8282613d64565b91505060408301518482036040860152613df98282613d64565b91505060608301516001600160a01b038082166060870152806080860151166080870152505060a0830151151560a08501528091505092915050565b6000602080830181845280855180835260408601915060408160051b870101925083870160005b82811015613e8a57603f19888603018452613e78858351613db1565b94509285019290850190600101613e5c565b5092979650505050505050565b600060208284031215613ea957600080fd5b5035919050565b60c081526000613ec360c0830189613d64565b8281036020840152613ed58189613d64565b90508281036040840152613ee98188613d64565b6001600160a01b0396871660608501529490951660808301525090151560a090910152949350505050565b6000815160e08452613f2960e0850182613d64565b90506001600160a01b03602084015116602085015260408301516040850152606083015160608501526080830151608085015260a083015160a085015260c0830151151560c08501528091505092915050565b602081526000613c746020830184613f14565b60008083601f840112613fa157600080fd5b50813567ffffffffffffffff811115613fb957600080fd5b6020830191508360208285010111156115bc57600080fd5b6001600160a01b038116811461362757600080fd5b60008060008060008060006080888a03121561400157600080fd5b873567ffffffffffffffff8082111561401957600080fd5b6140258b838c01613f8f565b909950975060208a013591508082111561403e57600080fd5b61404a8b838c01613f8f565b909750955060408a013591508082111561406357600080fd5b506140708a828b01613f8f565b909450925050606088013561408481613fd1565b8091505092959891949750929550565b6000602082840312156140a657600080fd5b8135613c7481613fd1565b600080604083850312156140c457600080fd5b50508035926020909101359150565b801515811461362757600080fd5b600080604083850312156140f457600080fd5b823591506020830135614106816140d3565b809150509250929050565b60008060006060848603121561412657600080fd5b83356002811061413557600080fd5b95602085013595506040909401359392505050565b6000806000806060858703121561416057600080fd5b843567ffffffffffffffff81111561417757600080fd5b61418387828801613f8f565b909550935050602085013561419781613fd1565b9396929550929360400135925050565b600080604083850312156141ba57600080fd5b82359150602083013561410681613fd1565b60006101008251845260208301518160208601526141ec82860182613d64565b9150506001600160a01b036040840151166040850152606083015160608501526080830151608085015260a083015160a085015260c083015160c085015260e0830151151560e08501528091505092915050565b602081526000613c7460208301846141cc565b6020808252825182820181905260009190848201906040850190845b8181101561428b5783518352928401929184019160010161426f565b50909695505050505050565b60e0815260006142aa60e083018a613d64565b6001600160a01b039890981660208301525060408101959095526060850193909352608084019190915260a0830152151560c090910152919050565b6000602080830181845280855180835260408601915060408160051b870101925083870160005b82811015613e8a57603f198886030184526143298583516141cc565b9450928501929085019060010161430d565b60006020828403121561434d57600080fd5b813561ffff81168114613c7457600080fd5b600080600080600060a0868803121561437757600080fd5b853561438281613fd1565b97602087013597506040870135966060810135965060800135945092505050565b6000602080830181845280855180835260408601915060408160051b870101925083870160005b82811015613e8a57603f198886030184526143e6858351613f14565b945092850192908501906001016143ca565b602081526000613c746020830184613db1565b6000806040838503121561441e57600080fd5b823561442981613fd1565b946020939093013593505050565b6000806000806080858703121561444d57600080fd5b843561445881613fd1565b966020860135965060408601359560600135945092505050565b600181811c9082168061448657607f821691505b602082108114156112f857634e487b7160e01b600052602260045260246000fd5b634e487b7160e01b600052603260045260246000fd5b634e487b7160e01b600052601160045260246000fd5b6000828210156144e5576144e56144bd565b500390565b600082198211156144fd576144fd6144bd565b500190565b6000600019821415614516576145166144bd565b5060010190565b60006020828403121561452f57600080fd5b5051919050565b60006020828403121561454857600080fd5b8151613c74816140d3565b634e487b7160e01b600052602160045260246000fd5b60006020828403121561457b57600080fd5b815160ff81168114613c7457600080fd5b634e487b7160e01b600052604160045260246000fd5b6000602082840312156145b457600080fd5b8151613c7481613fd1565b600181815b808511156145fa5781600019048211156145e0576145e06144bd565b808516156145ed57918102915b93841c93908002906145c4565b509250929050565b600082614611575060016119a3565b8161461e575060006119a3565b8160018114614634576002811461463e5761465a565b60019150506119a3565b60ff84111561464f5761464f6144bd565b50506001821b6119a3565b5060208310610133831016604e8410600b841016171561467d575081810a6119a3565b61468783836145bf565b806000190482111561469b5761469b6144bd565b029392505050565b6000613c748383614602565b60008160001904831182151516156146c9576146c96144bd565b500290565b634e487b7160e01b600052601260045260246000fd5b60008261470157634e487b7160e01b600052601260045260246000fd5b50049056fea2646970667358221220debf69e123e573f9349d77c49d2cf291ce84c7ad3b7a8adcf9d386d6db685b6864736f6c634300080b0033",
  "linkReferences": {},
  "deployedLinkReferences": {}
}