{
  "_format": "hh-sol-artifact-1",
  "contractName": "Dice",
  "sourceName": "contracts/games/Dice.sol",
  "abi": [
    {
      "inputs": [],
      "stateMutability": "nonpayable",
      "type": "constructor"
    },
    {
      "anonymous": false,
      "inputs": [
        {
          "indexed": false,
          "internalType": "uint256",
          "name": "betId",
          "type": "uint256"
        }
      ],
      "name": "Bet",
      "type": "event"
    },
    {
      "anonymous": false,
      "inputs": [
        {
          "indexed": true,
          "internalType": "address",
          "name": "previousOwner",
          "type": "address"
        },
        {
          "indexed": true,
          "internalType": "address",
          "name": "newOwner",
          "type": "address"
        }
      ],
      "name": "OwnershipTransferred",
      "type": "event"
    },
    {
      "anonymous": false,
      "inputs": [
        {
          "indexed": false,
          "internalType": "address",
          "name": "target",
          "type": "address"
        },
        {
          "indexed": false,
          "internalType": "bool",
          "name": "isWin",
          "type": "bool"
        },
        {
          "indexed": false,
          "internalType": "uint8",
          "name": "luckyNumber",
          "type": "uint8"
        }
      ],
      "name": "Settle",
      "type": "event"
    },
    {
      "anonymous": false,
      "inputs": [
        {
          "indexed": false,
          "internalType": "uint256",
          "name": "lastBetId",
          "type": "uint256"
        }
      ],
      "name": "SettleAll",
      "type": "event"
    },
    {
      "inputs": [],
      "name": "PRECISION",
      "outputs": [
        {
          "internalType": "uint256",
          "name": "",
          "type": "uint256"
        }
      ],
      "stateMutability": "view",
      "type": "function"
    },
    {
      "inputs": [
        {
          "internalType": "uint256",
          "name": "poolId",
          "type": "uint256"
        },
        {
          "internalType": "uint256",
          "name": "amount",
          "type": "uint256"
        },
        {
          "internalType": "uint16",
          "name": "randomKey",
          "type": "uint16"
        },
        {
          "internalType": "uint8",
          "name": "prediction",
          "type": "uint8"
        },
        {
          "internalType": "bool",
          "name": "isOver",
          "type": "bool"
        }
      ],
      "name": "bet",
      "outputs": [
        {
          "internalType": "uint256",
          "name": "betId",
          "type": "uint256"
        }
      ],
      "stateMutability": "nonpayable",
      "type": "function"
    },
    {
      "inputs": [
        {
          "internalType": "uint256",
          "name": "betId",
          "type": "uint256"
        }
      ],
      "name": "betInfo",
      "outputs": [
        {
          "internalType": "address",
          "name": "player",
          "type": "address"
        },
        {
          "internalType": "uint128",
          "name": "prize",
          "type": "uint128"
        },
        {
          "internalType": "uint64",
          "name": "blockNumber",
          "type": "uint64"
        },
        {
          "internalType": "uint32",
          "name": "poolId",
          "type": "uint32"
        },
        {
          "internalType": "uint8",
          "name": "luckyNumber",
          "type": "uint8"
        },
        {
          "internalType": "uint8",
          "name": "prediction",
          "type": "uint8"
        },
        {
          "internalType": "bool",
          "name": "isOver",
          "type": "bool"
        },
        {
          "internalType": "bool",
          "name": "isEnd",
          "type": "bool"
        }
      ],
      "stateMutability": "view",
      "type": "function"
    },
    {
      "inputs": [
        {
          "internalType": "address",
          "name": "target",
          "type": "address"
        }
      ],
      "name": "betInfo",
      "outputs": [
        {
          "internalType": "address",
          "name": "player",
          "type": "address"
        },
        {
          "internalType": "uint128",
          "name": "prize",
          "type": "uint128"
        },
        {
          "internalType": "uint64",
          "name": "blockNumber",
          "type": "uint64"
        },
        {
          "internalType": "uint32",
          "name": "poolId",
          "type": "uint32"
        },
        {
          "internalType": "uint8",
          "name": "luckyNumber",
          "type": "uint8"
        },
        {
          "internalType": "uint8",
          "name": "prediction",
          "type": "uint8"
        },
        {
          "internalType": "bool",
          "name": "isOver",
          "type": "bool"
        },
        {
          "internalType": "bool",
          "name": "isEnd",
          "type": "bool"
        }
      ],
      "stateMutability": "view",
      "type": "function"
    },
    {
      "inputs": [
        {
          "internalType": "address",
          "name": "",
          "type": "address"
        }
      ],
      "name": "betMap",
      "outputs": [
        {
          "internalType": "uint256",
          "name": "",
          "type": "uint256"
        }
      ],
      "stateMutability": "view",
      "type": "function"
    },
    {
      "inputs": [
        {
          "internalType": "uint256",
          "name": "",
          "type": "uint256"
        }
      ],
      "name": "bets",
      "outputs": [
        {
          "internalType": "address",
          "name": "",
          "type": "address"
        }
      ],
      "stateMutability": "view",
      "type": "function"
    },
    {
      "inputs": [
        {
          "internalType": "uint256",
          "name": "data",
          "type": "uint256"
        }
      ],
      "name": "decodeBetData",
      "outputs": [
        {
          "internalType": "uint128",
          "name": "prize",
          "type": "uint128"
        },
        {
          "internalType": "uint64",
          "name": "blockNumber",
          "type": "uint64"
        },
        {
          "internalType": "uint32",
          "name": "poolId",
          "type": "uint32"
        },
        {
          "internalType": "uint8",
          "name": "luckyNumber",
          "type": "uint8"
        },
        {
          "internalType": "uint8",
          "name": "prediction",
          "type": "uint8"
        },
        {
          "internalType": "bool",
          "name": "isOver",
          "type": "bool"
        },
        {
          "internalType": "bool",
          "name": "isEnd",
          "type": "bool"
        }
      ],
      "stateMutability": "pure",
      "type": "function"
    },
    {
      "inputs": [
        {
          "internalType": "uint128",
          "name": "prize",
          "type": "uint128"
        },
        {
          "internalType": "uint64",
          "name": "blockNumber",
          "type": "uint64"
        },
        {
          "internalType": "uint32",
          "name": "poolId",
          "type": "uint32"
        },
        {
          "internalType": "uint8",
          "name": "luckyNumber",
          "type": "uint8"
        },
        {
          "internalType": "uint8",
          "name": "prediction",
          "type": "uint8"
        },
        {
          "internalType": "bool",
          "name": "isOver",
          "type": "bool"
        },
        {
          "internalType": "bool",
          "name": "isEnd",
          "type": "bool"
        }
      ],
      "name": "encodeBetData",
      "outputs": [
        {
          "internalType": "uint256",
          "name": "data",
          "type": "uint256"
        }
      ],
      "stateMutability": "pure",
      "type": "function"
    },
    {
      "inputs": [],
      "name": "gameId",
      "outputs": [
        {
          "internalType": "uint256",
          "name": "",
          "type": "uint256"
        }
      ],
      "stateMutability": "view",
      "type": "function"
    },
    {
      "inputs": [],
      "name": "houseContract",
      "outputs": [
        {
          "internalType": "contract IHouse",
          "name": "",
          "type": "address"
        }
      ],
      "stateMutability": "view",
      "type": "function"
    },
    {
      "inputs": [],
      "name": "nextSettleBetId",
      "outputs": [
        {
          "internalType": "uint256",
          "name": "",
          "type": "uint256"
        }
      ],
      "stateMutability": "view",
      "type": "function"
    },
    {
      "inputs": [],
      "name": "owner",
      "outputs": [
        {
          "internalType": "address",
          "name": "",
          "type": "address"
        }
      ],
      "stateMutability": "view",
      "type": "function"
    },
    {
      "inputs": [],
      "name": "protocolFee",
      "outputs": [
        {
          "internalType": "uint256",
          "name": "",
          "type": "uint256"
        }
      ],
      "stateMutability": "view",
      "type": "function"
    },
    {
      "inputs": [],
      "name": "randomContract",
      "outputs": [
        {
          "internalType": "contract IRandom",
          "name": "",
          "type": "address"
        }
      ],
      "stateMutability": "view",
      "type": "function"
    },
    {
      "inputs": [],
      "name": "renounceOwnership",
      "outputs": [],
      "stateMutability": "nonpayable",
      "type": "function"
    },
    {
      "inputs": [
        {
          "internalType": "address",
          "name": "target",
          "type": "address"
        }
      ],
      "name": "requestRandom",
      "outputs": [],
      "stateMutability": "nonpayable",
      "type": "function"
    },
    {
      "inputs": [
        {
          "internalType": "uint256",
          "name": "id",
          "type": "uint256"
        }
      ],
      "name": "setGameId",
      "outputs": [],
      "stateMutability": "nonpayable",
      "type": "function"
    },
    {
      "inputs": [
        {
          "internalType": "address",
          "name": "addr",
          "type": "address"
        }
      ],
      "name": "setHouseContract",
      "outputs": [],
      "stateMutability": "nonpayable",
      "type": "function"
    },
    {
      "inputs": [
        {
          "internalType": "uint256",
          "name": "fee",
          "type": "uint256"
        }
      ],
      "name": "setProtocolFee",
      "outputs": [],
      "stateMutability": "nonpayable",
      "type": "function"
    },
    {
      "inputs": [
        {
          "internalType": "address",
          "name": "addr",
          "type": "address"
        }
      ],
      "name": "setRandomContract",
      "outputs": [],
      "stateMutability": "nonpayable",
      "type": "function"
    },
    {
      "inputs": [
        {
          "internalType": "address",
          "name": "target",
          "type": "address"
        }
      ],
      "name": "settle",
      "outputs": [],
      "stateMutability": "nonpayable",
      "type": "function"
    },
    {
      "inputs": [],
      "name": "settleAll",
      "outputs": [],
      "stateMutability": "nonpayable",
      "type": "function"
    },
    {
      "inputs": [
        {
          "internalType": "address",
          "name": "newOwner",
          "type": "address"
        }
      ],
      "name": "transferOwnership",
      "outputs": [],
      "stateMutability": "nonpayable",
      "type": "function"
    }
  ],
  "bytecode": "0x60a060405234801561001057600080fd5b5061001a33610026565b620f4240608052610076565b600080546001600160a01b038381166001600160a01b0319831681178455604051919092169283917f8be0079c531659141344cd1fd0a4f28419497f9722a3daafe3b4186f6b6457e09190a35050565b60805161199b6100ad60003960008181610351015281816109e101528181610a1701528181610a8a0152610ac0015261199b6000f3fe608060405234801561001057600080fd5b506004361061018d5760003560e01c8063715018a6116100e3578063b0e21e8a1161008c578063d7c81b5511610066578063d7c81b55146103a2578063de3ef6f1146103ab578063f2fde38b1461041f57600080fd5b8063b0e21e8a14610373578063c3b9ed021461037c578063ccf69e9b1461038f57600080fd5b8063910f4794116100bd578063910f479414610324578063a015aefe14610344578063aaf5eb681461034c57600080fd5b8063715018a6146102f8578063787dce3d146103005780638da5cb5b1461031357600080fd5b80632d629ed4116101455780635c22aa691161011f5780635c22aa69146102bf5780636830e764146102d25780636a256b29146102e557600080fd5b80632d629ed41461021457806331754b22146102995780635926cf13146102ac57600080fd5b80630fdc0744116101765780630fdc0744146101ba578063134836db146101cd57806322af00fa146101e957600080fd5b806304389898146101925780630933e3a7146101a7575b600080fd5b6101a56101a036600461157a565b610432565b005b6101a56101b536600461157a565b6104da565b6101a56101c836600461157a565b610511565b6101d660055481565b6040519081526020015b60405180910390f35b6101fc6101f736600461159e565b610548565b6040516001600160a01b0390911681526020016101e0565b61022761022236600461159e565b610572565b604080516001600160a01b0390991689526fffffffffffffffffffffffffffffffff909716602089015267ffffffffffffffff9095169587019590955263ffffffff909216606086015260ff90811660808601521660a084015290151560c0830152151560e0820152610100016101e0565b6101d66102a73660046115e6565b6105ea565b6101a56102ba36600461159e565b6106c4565b6002546101fc906001600160a01b031681565b6101d66102e036600461169d565b610731565b6101a56102f336600461157a565b610ca9565b6101a5610fb6565b6101a561030e36600461159e565b610fca565b6000546001600160a01b03166101fc565b6101d661033236600461157a565b60076020526000908152604090205481565b6101a5610fd7565b6101d67f000000000000000000000000000000000000000000000000000000000000000081565b6101d660045481565b61022761038a36600461157a565b6112f5565b6001546101fc906001600160a01b031681565b6101d660035481565b6103be6103b936600461159e565b611322565b604080516fffffffffffffffffffffffffffffffff909816885267ffffffffffffffff909616602088015263ffffffff9094169486019490945260ff918216606086015216608084015290151560a0830152151560c082015260e0016101e0565b6101a561042d36600461157a565b61141e565b61043a6114ae565b6001600160a01b038116600090815260076020526040812054908061045e83611322565b965050505050925050806104d45760015460405163075022b160e11b815267ffffffffffffffff841660048201526001600160a01b0390911690630ea0456290602401600060405180830381600087803b1580156104bb57600080fd5b505af11580156104cf573d6000803e3d6000fd5b505050505b50505050565b6104e26114ae565b6001805473ffffffffffffffffffffffffffffffffffffffff19166001600160a01b0392909216919091179055565b6105196114ae565b6002805473ffffffffffffffffffffffffffffffffffffffff19166001600160a01b0392909216919091179055565b6006818154811061055857600080fd5b6000918252602090912001546001600160a01b0316905081565b6000806000806000806000806006898154811061059157610591611701565b60009182526020808320909101546001600160a01b031680835260079091526040909120549098506105c281611322565b809850819950829a50839b50849c50859d50869e505050505050505050919395975091939597565b7fffffffffffffffffffffffffffffffff00000000000000000000000000000000608088901b166106316fffffffffffffffff0000000000000000604089901b168261172d565b905061064b67ffffffff00000000602088901b168261172d565b90506106606203fc00600a87901b168261172d565b90506106746103fc600286901b168261172d565b9050600183610684576000610687565b60015b60ff16901b60ff168161069a919061172d565b9050816106a85760006106ab565b60015b6106b89060ff168261172d565b98975050505050505050565b6002546001600160a01b0316336001600160a01b03161461072c5760405162461bcd60e51b815260206004820152600c60248201527f556e617574686f72697a6564000000000000000000000000000000000000000060448201526064015b60405180910390fd5b600355565b6002546040517fac4afa380000000000000000000000000000000000000000000000000000000081526004810187905260009182916001600160a01b039091169063ac4afa3890602401600060405180830381865afa158015610798573d6000803e3d6000fd5b505050506040513d6000823e601f3d908101601f191682016040526107c09190810190611771565b505050505091505060648460ff161061081b5760405162461bcd60e51b815260206004820152600360248201527f50544200000000000000000000000000000000000000000000000000000000006044820152606401610723565b33600090815260076020526040902054158061085257503360009081526007602052604090205461084e90600290611893565b6001145b61089e5760405162461bcd60e51b815260206004820152600260248201527f41420000000000000000000000000000000000000000000000000000000000006044820152606401610723565b6002546040517f23b872dd0000000000000000000000000000000000000000000000000000000081523360048201526001600160a01b03918216602482015260448101889052908216906323b872dd906064016020604051808303816000875af1158015610910573d6000803e3d6000fd5b505050506040513d601f19601f8201168201806040525081019061093491906118a7565b506002546003546040517ff331de4c000000000000000000000000000000000000000000000000000000008152336004820152602481018a90526044810191909152606481018890526001600160a01b039091169063f331de4c90608401600060405180830381600087803b1580156109ac57600080fd5b505af11580156109c0573d6000803e3d6000fd5b5050505060008315610a7f5760006109d98660636118c4565b60ff16610a077f000000000000000000000000000000000000000000000000000000000000000060646118e7565b610a119190611906565b905060007f000000000000000000000000000000000000000000000000000000000000000082600454620f4240610a48919061191a565b610a5291906118e7565b610a5c9190611906565b9050620f4240610a6c8a836118e7565b610a769190611906565b92505050610b24565b600060ff8616610ab07f000000000000000000000000000000000000000000000000000000000000000060646118e7565b610aba9190611906565b905060007f000000000000000000000000000000000000000000000000000000000000000082600454620f4240610af1919061191a565b610afb91906118e7565b610b059190611906565b9050620f4240610b158a836118e7565b610b1f9190611906565b925050505b6fffffffffffffffffffffffffffffffff8110610b835760405162461bcd60e51b815260206004820152600260248201527f54420000000000000000000000000000000000000000000000000000000000006044820152606401610723565b6000610b9682438b60008a8a60006105ea565b6006805460018082019092557ff652222313e28459528d920b65115c16c04f3efc82aaedc97be59f3f377c0d3f01805473ffffffffffffffffffffffffffffffffffffffff191633908117909155600090815260076020526040908190208390559054905163075022b160e11b81524360048201529192506001600160a01b031690630ea0456290602401600060405180830381600087803b158015610c3b57600080fd5b505af1158015610c4f573d6000803e3d6000fd5b5050600654610c6292506001915061191a565b93507fba8cded7746259c7979994e44c8ada572a5f3d4647f58f8286b9132e142e397784604051610c9591815260200190565b60405180910390a150505095945050505050565b6001600160a01b03811660009081526007602052604081205490808080808080610cd288611322565b959c50939a5091985096509450925090508015610d315760405162461bcd60e51b815260206004820152600260248201527f41450000000000000000000000000000000000000000000000000000000000006044820152606401610723565b600154604051633bd3898160e11b815267ffffffffffffffff8816600482015260009182916001600160a01b03909116906377a71302906024016020604051808303816000875af1158015610d8a573d6000803e3d6000fd5b505050506040513d601f19601f82011682018060405250810190610dae9190611931565b905080610dfd5760405162461bcd60e51b815260206004820152600260248201527f4e490000000000000000000000000000000000000000000000000000000000006044820152606401610723565b6040517fffffffffffffffff00000000000000000000000000000000000000000000000060c08a901b1660208201526bffffffffffffffffffffffff1960608d901b166028820152600090603c0160408051808303601f19018152919052805160209091012060649083010696508490508015610e7f57508560ff168560ff16105b80610e98575083158015610e9857508560ff168560ff16115b15610f36576002546003546040516362954bbd60e11b81526001600160a01b038e8116600483015263ffffffff8b1660248301526044820192909252600060648201526fffffffffffffffffffffffffffffffff8c16608482015291169063c52a977a9060a401600060405180830381600087803b158015610f1957600080fd5b505af1158015610f2d573d6000803e3d6000fd5b50505050600191505b50610f4788888888888860016105ea565b6001600160a01b038b166000818152600760209081526040918290209390935580519182528315159282019290925260ff87168183015290517fd0d586484ff283be486ab2e964d38a8a539d29317ae554b1f5b0ebeec1ff6e9d9181900360600190a150505050505050505050565b610fbe6114ae565b610fc86000611508565b565b610fd26114ae565b600455565b6005546000805b6006548310156112ae57600060068481548110610ffd57610ffd611701565b60009182526020808320909101546001600160a01b0316808352600790915260408220549092509080808080808061103488611322565b9650965096509650965096509650438667ffffffffffffffff161015611284576001811515141561106d5750505050505050505061129c565b8567ffffffffffffffff168b67ffffffffffffffff161461111a57600154604051633bd3898160e11b815267ffffffffffffffff88166004820152969b508b966001600160a01b03909116906377a71302906024016020604051808303816000875af11580156110e1573d6000803e3d6000fd5b505050506040513d601f19601f820116820180604052508101906111059190611931565b99508961111a575050505050505050506112ae565b6040517fffffffffffffffff00000000000000000000000000000000000000000000000060c088901b1660208201526bffffffffffffffffffffffff1960608b901b166028820152600090603c0160408051808303601f1901815291905280516020909101206064908c010694506000905082801561119e57508460ff168460ff16105b806111b75750821580156111b757508460ff168460ff16115b15611255576002546003546040516362954bbd60e11b81526001600160a01b038d8116600483015263ffffffff8a1660248301526044820192909252600060648201526fffffffffffffffffffffffffffffffff8b16608482015291169063c52a977a9060a401600060405180830381600087803b15801561123857600080fd5b505af115801561124c573d6000803e3d6000fd5b50505050600190505b61126588888888888860016105ea565b6001600160a01b038b1660009081526007602052604090205550611292565b5050505050505050506112ae565b5050505050505050505b826112a68161194a565b935050610fde565b60058390557fca55f04608ce91185bf3cc3bb886597184b1509a5111097f7f2c1712e28b4ee36112df60018561191a565b60405190815260200160405180910390a1505050565b6001600160a01b0381166000908152600760205260408120548291908190819081908190819081906105c2815b608081901c60008080808080604061134b7001000000000000000000000000000000008a611893565b901c9550602061137478010000000000000000000000000000000000000000000000008a611893565b901c9450600a6113a17c01000000000000000000000000000000000000000000000000000000008a611893565b901c935060026113cf7d0400000000000000000000000000000000000000000000000000000000008a611893565b901c92506113e2600260018a901c611893565b6001146113f05760006113f3565b60015b9150611400600289611893565b60011461140e576000611411565b60015b9050919395979092949650565b6114266114ae565b6001600160a01b0381166114a25760405162461bcd60e51b815260206004820152602660248201527f4f776e61626c653a206e6577206f776e657220697320746865207a65726f206160448201527f64647265737300000000000000000000000000000000000000000000000000006064820152608401610723565b6114ab81611508565b50565b6000546001600160a01b03163314610fc85760405162461bcd60e51b815260206004820181905260248201527f4f776e61626c653a2063616c6c6572206973206e6f7420746865206f776e65726044820152606401610723565b600080546001600160a01b0383811673ffffffffffffffffffffffffffffffffffffffff19831681178455604051919092169283917f8be0079c531659141344cd1fd0a4f28419497f9722a3daafe3b4186f6b6457e09190a35050565b6001600160a01b03811681146114ab57600080fd5b60006020828403121561158c57600080fd5b813561159781611565565b9392505050565b6000602082840312156115b057600080fd5b5035919050565b803560ff811681146115c857600080fd5b919050565b80151581146114ab57600080fd5b80356115c8816115cd565b600080600080600080600060e0888a03121561160157600080fd5b87356fffffffffffffffffffffffffffffffff8116811461162157600080fd5b9650602088013567ffffffffffffffff8116811461163e57600080fd5b9550604088013563ffffffff8116811461165757600080fd5b9450611665606089016115b7565b9350611673608089016115b7565b925061168160a089016115db565b915061168f60c089016115db565b905092959891949750929550565b600080600080600060a086880312156116b557600080fd5b8535945060208601359350604086013561ffff811681146116d557600080fd5b92506116e3606087016115b7565b915060808601356116f3816115cd565b809150509295509295909350565b634e487b7160e01b600052603260045260246000fd5b634e487b7160e01b600052601160045260246000fd5b6000821982111561174057611740611717565b500190565b634e487b7160e01b600052604160045260246000fd5b80516115c881611565565b80516115c8816115cd565b600080600080600080600060e0888a03121561178c57600080fd5b875167ffffffffffffffff808211156117a457600080fd5b818a0191508a601f8301126117b857600080fd5b8151818111156117ca576117ca611745565b604051601f8201601f19908116603f011681019083821181831017156117f2576117f2611745565b81604052828152602093508d8484870101111561180e57600080fd5b600091505b828210156118305784820184015181830185015290830190611813565b828211156118415760008484830101525b9a506118519150508a820161175b565b9750505060408801519450606088015193506080880151925060a0880151915061168f60c08901611766565b634e487b7160e01b600052601260045260246000fd5b6000826118a2576118a261187d565b500690565b6000602082840312156118b957600080fd5b8151611597816115cd565b600060ff821660ff8416808210156118de576118de611717565b90039392505050565b600081600019048311821515161561190157611901611717565b500290565b6000826119155761191561187d565b500490565b60008282101561192c5761192c611717565b500390565b60006020828403121561194357600080fd5b5051919050565b600060001982141561195e5761195e611717565b506001019056fea2646970667358221220898bdad42294dea41cf6b1ec847a223702b1e12f7de2c7399b36d939aae7917964736f6c634300080b0033",
  "linkReferences": {},
  "deployedLinkReferences": {}
}