{
  "_format": "hh-sol-artifact-1",
  "contractName": "BaseV1Factory",
  "sourceName": "contracts/canto/BaseV1-core.sol",
  "abi": [
    {
      "inputs": [],
      "stateMutability": "nonpayable",
      "type": "constructor"
    },
    {
      "anonymous": false,
      "inputs": [
        {
          "indexed": true,
          "internalType": "address",
          "name": "token0",
          "type": "address"
        },
        {
          "indexed": true,
          "internalType": "address",
          "name": "token1",
          "type": "address"
        },
        {
          "indexed": false,
          "internalType": "bool",
          "name": "stable",
          "type": "bool"
        },
        {
          "indexed": false,
          "internalType": "address",
          "name": "pair",
          "type": "address"
        },
        {
          "indexed": false,
          "internalType": "uint256",
          "name": "",
          "type": "uint256"
        }
      ],
      "name": "PairCreated",
      "type": "event"
    },
    {
      "inputs": [],
      "name": "acceptPauser",
      "outputs": [],
      "stateMutability": "nonpayable",
      "type": "function"
    },
    {
      "inputs": [],
      "name": "admin",
      "outputs": [
        {
          "internalType": "address",
          "name": "",
          "type": "address"
        }
      ],
      "stateMutability": "view",
      "type": "function"
    },
    {
      "inputs": [
        {
          "internalType": "uint256",
          "name": "",
          "type": "uint256"
        }
      ],
      "name": "allPairs",
      "outputs": [
        {
          "internalType": "address",
          "name": "",
          "type": "address"
        }
      ],
      "stateMutability": "view",
      "type": "function"
    },
    {
      "inputs": [],
      "name": "allPairsLength",
      "outputs": [
        {
          "internalType": "uint256",
          "name": "",
          "type": "uint256"
        }
      ],
      "stateMutability": "view",
      "type": "function"
    },
    {
      "inputs": [
        {
          "internalType": "address",
          "name": "tokenA",
          "type": "address"
        },
        {
          "internalType": "address",
          "name": "tokenB",
          "type": "address"
        },
        {
          "internalType": "bool",
          "name": "stable",
          "type": "bool"
        }
      ],
      "name": "createPair",
      "outputs": [
        {
          "internalType": "address",
          "name": "pair",
          "type": "address"
        }
      ],
      "stateMutability": "nonpayable",
      "type": "function"
    },
    {
      "inputs": [],
      "name": "getInitializable",
      "outputs": [
        {
          "internalType": "address",
          "name": "",
          "type": "address"
        },
        {
          "internalType": "address",
          "name": "",
          "type": "address"
        },
        {
          "internalType": "bool",
          "name": "",
          "type": "bool"
        }
      ],
      "stateMutability": "view",
      "type": "function"
    },
    {
      "inputs": [
        {
          "internalType": "address",
          "name": "",
          "type": "address"
        },
        {
          "internalType": "address",
          "name": "",
          "type": "address"
        },
        {
          "internalType": "bool",
          "name": "",
          "type": "bool"
        }
      ],
      "name": "getPair",
      "outputs": [
        {
          "internalType": "address",
          "name": "",
          "type": "address"
        }
      ],
      "stateMutability": "view",
      "type": "function"
    },
    {
      "inputs": [
        {
          "internalType": "address",
          "name": "",
          "type": "address"
        }
      ],
      "name": "isPair",
      "outputs": [
        {
          "internalType": "bool",
          "name": "",
          "type": "bool"
        }
      ],
      "stateMutability": "view",
      "type": "function"
    },
    {
      "inputs": [],
      "name": "isPaused",
      "outputs": [
        {
          "internalType": "bool",
          "name": "",
          "type": "bool"
        }
      ],
      "stateMutability": "view",
      "type": "function"
    },
    {
      "inputs": [],
      "name": "pairCodeHash",
      "outputs": [
        {
          "internalType": "bytes32",
          "name": "",
          "type": "bytes32"
        }
      ],
      "stateMutability": "pure",
      "type": "function"
    },
    {
      "inputs": [],
      "name": "pauser",
      "outputs": [
        {
          "internalType": "address",
          "name": "",
          "type": "address"
        }
      ],
      "stateMutability": "view",
      "type": "function"
    },
    {
      "inputs": [],
      "name": "pendingPauser",
      "outputs": [
        {
          "internalType": "address",
          "name": "",
          "type": "address"
        }
      ],
      "stateMutability": "view",
      "type": "function"
    },
    {
      "inputs": [
        {
          "internalType": "address",
          "name": "admin_",
          "type": "address"
        }
      ],
      "name": "setAdmin",
      "outputs": [],
      "stateMutability": "nonpayable",
      "type": "function"
    },
    {
      "inputs": [
        {
          "internalType": "bool",
          "name": "_state",
          "type": "bool"
        }
      ],
      "name": "setPause",
      "outputs": [],
      "stateMutability": "nonpayable",
      "type": "function"
    },
    {
      "inputs": [
        {
          "internalType": "address",
          "name": "_pauser",
          "type": "address"
        }
      ],
      "name": "setPauser",
      "outputs": [],
      "stateMutability": "nonpayable",
      "type": "function"
    },
    {
      "inputs": [
        {
          "internalType": "uint256",
          "name": "newPeriod",
          "type": "uint256"
        }
      ],
      "name": "setPeriodSize",
      "outputs": [],
      "stateMutability": "nonpayable",
      "type": "function"
    }
  ],
  "bytecode": "0x6080604052610e1060035534801561001657600080fd5b50600080546001600160a81b03191633610100810260ff1916919091178255600280546001600160a01b0319169091179055614f1490819061005890396000f3fe60806040523480156200001157600080fd5b5060043610620001155760003560e01c80639aab924811620000a3578063e5e31b13116200006e578063e5e31b13146200025c578063eb13c4cf1462000282578063ed12c5b414620002bb578063f851a44014620002d257600080fd5b80639aab924814620002035780639fd0506d146200020d578063b187bd261462000226578063bedb86fb146200024557600080fd5b80636801cc3011620000e45780636801cc301462000184578063704b6c0214620001c157806382dfdce414620001d85780639a7165e414620001ef57600080fd5b8063167a6f90146200011a5780631e3dd18b14620001265780632d88af4a146200015a578063574f2ba31462000171575b600080fd5b62000124620002e6565b005b6200013d62000137366004620008c1565b62000340565b6040516001600160a01b0390911681526020015b60405180910390f35b620001246200016b366004620008f8565b6200036b565b6005545b60405190815260200162000151565b6200013d620001953660046200092e565b60046020908152600093845260408085208252928452828420905282529020546001600160a01b031681565b62000124620001d2366004620008f8565b620003b7565b6200013d620001e93660046200092e565b620003fe565b6001546200013d906001600160a01b031681565b6200017562000771565b6000546200013d9061010090046001600160a01b031681565b600054620002349060ff1681565b604051901515815260200162000151565b620001246200025636600462000978565b620007a5565b620002346200026d366004620008f8565b60066020526000908152604090205460ff1681565b600754600854604080516001600160a01b0393841681529282166020840152600160a01b90910460ff1615159082015260600162000151565b62000124620002cc366004620008c1565b620007d5565b6002546200013d906001600160a01b031681565b6001546001600160a01b03163314620002fe57600080fd5b600154600080546001600160a01b03909216610100027fffffffffffffffffffffff0000000000000000000000000000000000000000ff909216919091179055565b600581815481106200035157600080fd5b6000918252602090912001546001600160a01b0316905081565b60005461010090046001600160a01b031633146200038857600080fd5b6001805473ffffffffffffffffffffffffffffffffffffffff19166001600160a01b0392909216919091179055565b6002546001600160a01b03163314620003cf57600080fd5b6002805473ffffffffffffffffffffffffffffffffffffffff19166001600160a01b0392909216919091179055565b6000826001600160a01b0316846001600160a01b03161415620004685760405162461bcd60e51b815260206004820152600260248201527f494100000000000000000000000000000000000000000000000000000000000060448201526064015b60405180910390fd5b600080846001600160a01b0316866001600160a01b0316106200048d57848662000490565b85855b90925090506001600160a01b038216620004ed5760405162461bcd60e51b815260206004820152600260248201527f5a4100000000000000000000000000000000000000000000000000000000000060448201526064016200045f565b6001600160a01b03828116600090815260046020908152604080832085851684528252808320881515845290915290205416156200056e5760405162461bcd60e51b815260206004820152600260248201527f504500000000000000000000000000000000000000000000000000000000000060448201526064016200045f565b6040516bffffffffffffffffffffffff19606084811b8216602084015283901b16603482015284151560f81b604882015260009060490160408051601f19818403018152908290528051602090910120600880546001600160a01b0380871673ffffffffffffffffffffffffffffffffffffffff198b1515600160a01b0281167fffffffffffffffffffffff00000000000000000000000000000000000000000090941693909317179092556007805492881692909116919091179055915081906200063a90620008b3565b8190604051809103906000f59050801580156200065b573d6000803e3d6000fd5b506001600160a01b0384811660008181526004602081815260408084208987168086529083528185208d15158087529084528286208054988a1673ffffffffffffffffffffffffffffffffffffffff19998a16811790915582875294845282862087875284528286208187528452828620805489168617905560058054600181810183557f036b6384b5eca791c62761152d0c79bb0604c104a5fb6f4eb0703f3154bb3db09091018054909a1687179099558587526006855295839020805460ff1916909817909755935481519687529186019290925290840152929650907fc4805696c66d7cf352fc1d6bb633ad5ee82f6cb577c453024b6e0eb8306c6fc99060600160405180910390a35050509392505050565b6000604051806020016200078590620008b3565b6020820181038252601f19601f8201166040525080519060200120905090565b60005461010090046001600160a01b03163314620007c257600080fd5b6000805460ff1916911515919091179055565b6002546001600160a01b03163314620007ed57600080fd5b600354811115620007fd57600080fd5b60005b600554811015620008af576005818154811062000821576200082162000996565b6000918252602090912001546040517fed12c5b4000000000000000000000000000000000000000000000000000000008152600481018490526001600160a01b039091169063ed12c5b490602401600060405180830381600087803b1580156200088a57600080fd5b505af11580156200089f573d6000803e3d6000fd5b5050505080600101905062000800565b5050565b61451980620009c683390190565b600060208284031215620008d457600080fd5b5035919050565b80356001600160a01b0381168114620008f357600080fd5b919050565b6000602082840312156200090b57600080fd5b6200091682620008db565b9392505050565b80358015158114620008f357600080fd5b6000806000606084860312156200094457600080fd5b6200094f84620008db565b92506200095f60208501620008db565b91506200096f604085016200091d565b90509250925092565b6000602082840312156200098b57600080fd5b62000916826200091d565b7f4e487b7100000000000000000000000000000000000000000000000000000000600052603260045260246000fdfe610140604052600060025561070860075560016011553480156200002257600080fd5b50336001600160a01b031660e0816001600160a01b0316815250506000806000336001600160a01b031663eb13c4cf6040518163ffffffff1660e01b8152600401606060405180830381865afa15801562000081573d6000803e3d6000fd5b505050506040513d601f19601f82011682018060405250810190620000a791906200078e565b801580156080526001600160a01b0380841660c052841660a0529295509093509150620002ec57826001600160a01b03166395d89b416040518163ffffffff1660e01b8152600401600060405180830381865afa1580156200010d573d6000803e3d6000fd5b505050506040513d6000823e601f3d908101601f1916820160405262000137919081019062000829565b826001600160a01b03166395d89b416040518163ffffffff1660e01b8152600401600060405180830381865afa15801562000176573d6000803e3d6000fd5b505050506040513d6000823e601f3d908101601f19168201604052620001a0919081019062000829565b604051602001620001b3929190620008e1565b60405160208183030381529060405260009080519060200190620001d9929190620006cb565b50826001600160a01b03166395d89b416040518163ffffffff1660e01b8152600401600060405180830381865afa15801562000219573d6000803e3d6000fd5b505050506040513d6000823e601f3d908101601f1916820160405262000243919081019062000829565b826001600160a01b03166395d89b416040518163ffffffff1660e01b8152600401600060405180830381865afa15801562000282573d6000803e3d6000fd5b505050506040513d6000823e601f3d908101601f19168201604052620002ac919081019062000829565b604051602001620002bf9291906200093c565b60405160208183030381529060405260019080519060200190620002e5929190620006cb565b5062000505565b826001600160a01b03166395d89b416040518163ffffffff1660e01b8152600401600060405180830381865afa1580156200032b573d6000803e3d6000fd5b505050506040513d6000823e601f3d908101601f1916820160405262000355919081019062000829565b826001600160a01b03166395d89b416040518163ffffffff1660e01b8152600401600060405180830381865afa15801562000394573d6000803e3d6000fd5b505050506040513d6000823e601f3d908101601f19168201604052620003be919081019062000829565b604051602001620003d19291906200098d565b60405160208183030381529060405260009080519060200190620003f7929190620006cb565b50826001600160a01b03166395d89b416040518163ffffffff1660e01b8152600401600060405180830381865afa15801562000437573d6000803e3d6000fd5b505050506040513d6000823e601f3d908101601f1916820160405262000461919081019062000829565b826001600160a01b03166395d89b416040518163ffffffff1660e01b8152600401600060405180830381865afa158015620004a0573d6000803e3d6000fd5b505050506040513d6000823e601f3d908101601f19168201604052620004ca919081019062000829565b604051602001620004dd929190620009ea565b6040516020818303038152906040526001908051906020019062000503929190620006cb565b505b826001600160a01b031663313ce5676040518163ffffffff1660e01b8152600401602060405180830381865afa15801562000544573d6000803e3d6000fd5b505050506040513d601f19601f820116820180604052508101906200056a919062000a0c565b6200057790600a62000b4d565b6101008181525050816001600160a01b031663313ce5676040518163ffffffff1660e01b8152600401602060405180830381865afa158015620005be573d6000803e3d6000fd5b505050506040513d601f19601f82011682018060405250810190620005e4919062000a0c565b620005f190600a62000b4d565b610120525050604080516080810182524281526000602082018181529282018181526060830182815260088054600181018255935292517ff3f7a9fe364faab93b216da50a3214154f22a0a2b415b23a84c8169e8b636ee360049093029283015592517ff3f7a9fe364faab93b216da50a3214154f22a0a2b415b23a84c8169e8b636ee482015591517ff3f7a9fe364faab93b216da50a3214154f22a0a2b415b23a84c8169e8b636ee5830155517ff3f7a9fe364faab93b216da50a3214154f22a0a2b415b23a84c8169e8b636ee6909101555062000b9b565b828054620006d99062000b5e565b90600052602060002090601f016020900481019282620006fd576000855562000748565b82601f106200071857805160ff191683800117855562000748565b8280016001018555821562000748579182015b82811115620007485782518255916020019190600101906200072b565b50620007569291506200075a565b5090565b5b808211156200075657600081556001016200075b565b80516001600160a01b03811681146200078957600080fd5b919050565b600080600060608486031215620007a457600080fd5b620007af8462000771565b9250620007bf6020850162000771565b915060408401518015158114620007d557600080fd5b809150509250925092565b634e487b7160e01b600052604160045260246000fd5b60005b8381101562000813578181015183820152602001620007f9565b8381111562000823576000848401525b50505050565b6000602082840312156200083c57600080fd5b81516001600160401b03808211156200085457600080fd5b818401915084601f8301126200086957600080fd5b8151818111156200087e576200087e620007e0565b604051601f8201601f19908116603f01168101908382118183101715620008a957620008a9620007e0565b81604052828152876020848701011115620008c357600080fd5b620008d6836020830160208801620007f6565b979650505050505050565b6e029ba30b13632ab189020a6a690169608d1b8152600083516200090d81600f850160208801620007f6565b602f60f81b600f91840191820152835162000930816010840160208801620007f6565b01601001949350505050565b6473414d4d2d60d81b8152600083516200095e816005850160208801620007f6565b602f60f81b600591840191820152835162000981816006840160208801620007f6565b01600601949350505050565b7002b37b630ba34b632ab189020a6a690169607d1b815260008351620009bb816011850160208801620007f6565b602f60f81b6011918401918201528351620009de816012840160208801620007f6565b01601201949350505050565b6476414d4d2d60d81b8152600083516200095e816005850160208801620007f6565b60006020828403121562000a1f57600080fd5b815160ff8116811462000a3157600080fd5b9392505050565b634e487b7160e01b600052601160045260246000fd5b600181815b8085111562000a8f57816000190482111562000a735762000a7362000a38565b8085161562000a8157918102915b93841c939080029062000a53565b509250929050565b60008262000aa85750600162000b47565b8162000ab75750600062000b47565b816001811462000ad0576002811462000adb5762000afb565b600191505062000b47565b60ff84111562000aef5762000aef62000a38565b50506001821b62000b47565b5060208310610133831016604e8410600b841016171562000b20575081810a62000b47565b62000b2c838362000a4e565b806000190482111562000b435762000b4362000a38565b0290505b92915050565b600062000a3160ff84168362000a97565b600181811c9082168062000b7357607f821691505b6020821081141562000b9557634e487b7160e01b600052602260045260246000fd5b50919050565b60805160a05160c05160e051610100516101205161384e62000ccb600039600081816104f101528181611c4f01528181612b9201528181612c540152612d5f0152600081816104ce01528181611c0e01528181612b5301528181612c960152612d3901526000818161089001526123de01526000818161057b015281816106f70152818161079b01528181610a0001528181610d0a015281816115bc0152818161186101528181611dff015261279001526000818161038f01528181610553015281816106d2015281816109df01528181610ce8015281816115260152818161183f01528181611ddd0152818161270801528181612bd401528181612c1b01528181612d000152612da30152600081816104400152818161052301528181611be60152612b1f015261384e6000f3fe608060405234801561001057600080fd5b506004361061030a5760003560e01c806389afcb441161019c578063c5700a02116100ee578063ebeb31db11610097578063f3f24eb111610071578063f3f24eb114610845578063f99f51a61461084e578063fff6cae91461086f57600080fd5b8063ebeb31db14610817578063ed12c5b41461081f578063f140a35a1461083257600080fd5b8063dd62ed3e116100c8578063dd62ed3e146107d0578063e4463eb2146107fb578063eba6aef91461080457600080fd5b8063c5700a021461078d578063d21220a714610796578063d505accf146107bd57600080fd5b80639e8cc04b11610150578063bc25cf771161012a578063bc25cf7714610768578063bf944dbc1461077b578063c245febc1461078457600080fd5b80639e8cc04b146107225780639f767c8814610735578063a9059cbb1461075557600080fd5b806395d89b411161018157806395d89b41146106a95780639cf42614146106b15780639d63848a146106c457600080fd5b806389afcb441461065b5780638a7b8cf21461066e57600080fd5b806323b872dd116102605780635881c4751161020957806370a08231116101e357806370a08231146105f35780637ecebe00146106135780638334278d1461063357600080fd5b80635881c475146105c45780635a76f25e146105d75780636a627842146105e057600080fd5b8063392f37e91161023a578063392f37e9146104c2578063443cb4bc146105a8578063517b3f82146105b157600080fd5b806323b872dd14610462578063252c09d714610475578063313ce567146104a857600080fd5b806313345fe1116102c25780631ed4202e1161029c5780631ed4202e14610408578063205aabf11461041b57806322be3de11461043b57600080fd5b806313345fe1146103c957806318160ddd146103e95780631df8c7171461040057600080fd5b80630902f1ac116102f35780630902f1ac14610342578063095ea7b3146103675780630dfe16811461038a57600080fd5b8063022c0d9f1461030f57806306fdde0314610324575b600080fd5b61032261031d36600461327b565b610877565b005b61032c610ec3565b604051610339919061333f565b60405180910390f35b600954600a54600b545b60408051938452602084019290925290820152606001610339565b61037a610375366004613372565b610f51565b6040519015158152602001610339565b6103b17f000000000000000000000000000000000000000000000000000000000000000081565b6040516001600160a01b039091168152602001610339565b6103dc6103d736600461339c565b610fbe565b6040516103399190613410565b6103f260025481565b604051908152602001610339565b61034c61121f565b6103f2610416366004613423565b61128e565b6103f261042936600461343c565b60106020526000908152604090205481565b61037a7f000000000000000000000000000000000000000000000000000000000000000081565b61037a610470366004613457565b6112ed565b610488610483366004613423565b6113b6565b604080519485526020850193909352918301526060820152608001610339565b6104b0601281565b60405160ff9091168152602001610339565b600954600a54604080517f000000000000000000000000000000000000000000000000000000000000000081527f000000000000000000000000000000000000000000000000000000000000000060208201529081019290925260608201527f0000000000000000000000000000000000000000000000000000000000000000151560808201526001600160a01b037f0000000000000000000000000000000000000000000000000000000000000000811660a08301527f00000000000000000000000000000000000000000000000000000000000000001660c082015260e001610339565b6103f260095481565b6103f26105bf366004613372565b6113f0565b6103dc6105d2366004613493565b6114e3565b6103f2600a5481565b6103f26105ee36600461343c565b6114f2565b6103f261060136600461343c565b60046020526000908152604090205481565b6103f261062136600461343c565b60066020526000908152604090205481565b610646610641366004613423565b611769565b60408051928352602083019190915201610339565b61064661066936600461343c565b61180d565b610676611b44565b60405161033991908151815260208083015190820152604080830151908201526060918201519181019190915260800190565b61032c611bd5565b6103f26106bf3660046134c6565b611be2565b604080516001600160a01b037f0000000000000000000000000000000000000000000000000000000000000000811682527f000000000000000000000000000000000000000000000000000000000000000016602082015201610339565b6103f2610730366004613493565b611d2e565b6103f261074336600461343c565b600f6020526000908152604090205481565b61037a610763366004613372565b611d9b565b61032261077636600461343c565b611db1565b6103f2600c5481565b6103f2600d5481565b6103f2600b5481565b6103b17f000000000000000000000000000000000000000000000000000000000000000081565b6103226107cb3660046134e8565b611ecf565b6103f26107de36600461355b565b600360209081526000928352604080842090915290825290205481565b6103f260075481565b6103dc6108123660046134c6565b6121ed565b6008546103f2565b61032261082d366004613423565b6123d3565b6103f261084036600461358e565b61240d565b6103f2600e5481565b61086161085c3660046134c6565b61242c565b6040516103399291906135b1565b6103226126db565b60115460011461088657600080fd5b60026011819055507f00000000000000000000000000000000000000000000000000000000000000006001600160a01b031663b187bd266040518163ffffffff1660e01b8152600401602060405180830381865afa1580156108ec573d6000803e3d6000fd5b505050506040513d601f19601f8201168201806040525081019061091091906135d6565b1561091a57600080fd5b60008511806109295750600084115b61097a5760405162461bcd60e51b815260206004820152600360248201527f494f41000000000000000000000000000000000000000000000000000000000060448201526064015b60405180910390fd5b600954600a54818710801561098e57508086105b6109da5760405162461bcd60e51b815260206004820152600260248201527f494c0000000000000000000000000000000000000000000000000000000000006044820152606401610971565b6000807f00000000000000000000000000000000000000000000000000000000000000007f00000000000000000000000000000000000000000000000000000000000000006001600160a01b0389811690831614801590610a4d5750806001600160a01b0316896001600160a01b031614155b610a995760405162461bcd60e51b815260206004820152600260248201527f49540000000000000000000000000000000000000000000000000000000000006044820152606401610971565b8a15610aaa57610aaa828a8d612815565b8915610abb57610abb818a8c612815565b8615610b41576040517f9a7bff790000000000000000000000000000000000000000000000000000000081526001600160a01b038a1690639a7bff7990610b0e9033908f908f908e908e906004016135f8565b600060405180830381600087803b158015610b2857600080fd5b505af1158015610b3c573d6000803e3d6000fd5b505050505b6040516370a0823160e01b81523060048201526001600160a01b038316906370a0823190602401602060405180830381865afa158015610b85573d6000803e3d6000fd5b505050506040513d601f19601f82011682018060405250810190610ba99190613645565b6040516370a0823160e01b81523060048201529094506001600160a01b038216906370a0823190602401602060405180830381865afa158015610bf0573d6000803e3d6000fd5b505050506040513d601f19601f82011682018060405250810190610c149190613645565b9250505060008985610c269190613674565b8311610c33576000610c47565b610c3d8a86613674565b610c479084613674565b90506000610c558a86613674565b8311610c62576000610c76565b610c6c8a86613674565b610c769084613674565b90506000821180610c875750600081115b610cd35760405162461bcd60e51b815260206004820152600360248201527f49494100000000000000000000000000000000000000000000000000000000006044820152606401610971565b6040516370a0823160e01b81523060048201527f0000000000000000000000000000000000000000000000000000000000000000907f0000000000000000000000000000000000000000000000000000000000000000906001600160a01b038316906370a0823190602401602060405180830381865afa158015610d5b573d6000803e3d6000fd5b505050506040513d601f19601f82011682018060405250810190610d7f9190613645565b6040516370a0823160e01b81523060048201529096506001600160a01b038216906370a0823190602401602060405180830381865afa158015610dc6573d6000803e3d6000fd5b505050506040513d601f19601f82011682018060405250810190610dea9190613645565b9450610df68888611be2565b610e008787611be2565b1015610e4e5760405162461bcd60e51b815260206004820152600160248201527f4b000000000000000000000000000000000000000000000000000000000000006044820152606401610971565b5050610e5c84848888612932565b60408051838152602081018390529081018c9052606081018b90526001600160a01b038a169033907fd78ad95fa46c994b6551d0da85fc275fe613ce37657fb8d5e3d130840159d8229060800160405180910390a350506001601155505050505050505050565b60008054610ed09061368b565b80601f0160208091040260200160405190810160405280929190818152602001828054610efc9061368b565b8015610f495780601f10610f1e57610100808354040283529160200191610f49565b820191906000526020600020905b815481529060010190602001808311610f2c57829003601f168201915b505050505081565b3360008181526003602090815260408083206001600160a01b038716808552925280832085905551919290917f8c5be1e5ebec7d5bd14f71427d1e84f3dd0314c0f7b2291e5b200ac8c7c3b92590610fac9086815260200190565b60405180910390a35060015b92915050565b606060008367ffffffffffffffff811115610fdb57610fdb6136c0565b604051908082528060200260200182016040528015611004578160200160208202803683370190505b5060085490915060009061101a90600190613674565b905061102684866136d6565b8110156110755760405162461bcd60e51b815260206004820152601b60248201527f504149523a3a4e4f5420524541445920464f522050524943494e4700000000006044820152606401610971565b600061108185876136d6565b61108b9083613674565b90506000805b8383101561120f576110a387846136f5565b91506000600884815481106110ba576110ba61370d565b906000526020600020906004020160000154600884815481106110df576110df61370d565b9060005260206000209060040201600001546110fb9190613674565b9050600081600886815481106111135761111361370d565b906000526020600020906004020160010154600886815481106111385761113861370d565b9060005260206000209060040201600101546111549190613674565b61115e9190613723565b9050600082600887815481106111765761117661370d565b9060005260206000209060040201600201546008878154811061119b5761119b61370d565b9060005260206000209060040201600201546111b79190613674565b6111c19190613723565b90506111cf8c8e8484612b1b565b8885815181106111e1576111e161370d565b60209081029190910101526111f78460016136f5565b9350505050868361120891906136f5565b9250611091565b509293505050505b949350505050565b600c54600d54426000808061123d600954600a54600b549192909190565b9250925092508381146112865760006112568286613674565b905061126281856136d6565b61126c90886136f5565b965061127881846136d6565b61128290876136f5565b9550505b505050909192565b60008061129c8360016121ed565b90506000805b82518110156112e2578281815181106112bd576112bd61370d565b6020026020010151826112d091906136f5565b91506112db81613745565b90506112a2565b506112178482613723565b6001600160a01b03831660008181526003602090815260408083203380855292528220549192909190821480159061132757506000198114155b1561139d5760006113388583613674565b6001600160a01b038881166000818152600360209081526040808320948916808452948252918290208590559051848152939450919290917f8c5be1e5ebec7d5bd14f71427d1e84f3dd0314c0f7b2291e5b200ac8c7c3b925910160405180910390a3505b6113a8868686612e10565b6001925050505b9392505050565b600881815481106113c657600080fd5b60009182526020909120600490910201805460018201546002830154600390930154919350919084565b6000806113fb611b44565b905060008061140861121f565b508451919350915042141561147b576008805461142790600290613674565b815481106114375761143761370d565b906000526020600020906004020160405180608001604052908160008201548152602001600182015481526020016002820154815260200160038201548152505092505b825160009061148a9042613674565b905060008185602001518561149f9190613674565b6114a99190613723565b90506000828660400151856114be9190613674565b6114c89190613723565b90506114d6888a8484612b1b565b9998505050505050505050565b60606112178484846001610fbe565b600060115460011461150357600080fd5b6002601155600954600a546040516370a0823160e01b81523060048201526000907f00000000000000000000000000000000000000000000000000000000000000006001600160a01b0316906370a0823190602401602060405180830381865afa158015611575573d6000803e3d6000fd5b505050506040513d601f19601f820116820180604052508101906115999190613645565b6040516370a0823160e01b81523060048201529091506000906001600160a01b037f000000000000000000000000000000000000000000000000000000000000000016906370a0823190602401602060405180830381865afa158015611603573d6000803e3d6000fd5b505050506040513d601f19601f820116820180604052508101906116279190613645565b905060006116358584613674565b905060006116438584613674565b60025490915080611681576103e861166361165e84866136d6565b612ebe565b61166d9190613674565b975061167c60006103e8612f2e565b6116b6565b6116b38761168f83866136d6565b6116999190613723565b876116a484866136d6565b6116ae9190613723565b612fb8565b97505b600088116117065760405162461bcd60e51b815260206004820152600360248201527f494c4d00000000000000000000000000000000000000000000000000000000006044820152606401610971565b6117108989612f2e565b61171c85858989612932565b604080518481526020810184905233917f4c209b5fc8ad50758f13e2e1088ba56a560dff690a1c6fef26394f4c03821c4f910160405180910390a250506001601155509395945050505050565b60008060008061177a85600161242c565b9150915060008060005b84518110156117eb5784818151811061179f5761179f61370d565b6020026020010151836117b291906136f5565b92508381815181106117c6576117c661370d565b6020026020010151826117d991906136f5565b91506117e481613745565b9050611784565b506117f68783613723565b6118008883613723565b9550955050505050915091565b60008060115460011461181f57600080fd5b6002601155600954600a546040516370a0823160e01b81523060048201527f0000000000000000000000000000000000000000000000000000000000000000907f0000000000000000000000000000000000000000000000000000000000000000906000906001600160a01b038416906370a0823190602401602060405180830381865afa1580156118b5573d6000803e3d6000fd5b505050506040513d601f19601f820116820180604052508101906118d99190613645565b6040516370a0823160e01b81523060048201529091506000906001600160a01b038416906370a0823190602401602060405180830381865afa158015611923573d6000803e3d6000fd5b505050506040513d601f19601f820116820180604052508101906119479190613645565b30600090815260046020526040902054600254919250908061196985846136d6565b6119739190613723565b99508061198084846136d6565b61198a9190613723565b985060008a11801561199c5750600089115b6119e85760405162461bcd60e51b815260206004820152600360248201527f494c4200000000000000000000000000000000000000000000000000000000006044820152606401610971565b6119f23083612fce565b6119fd868c8c612815565b611a08858c8b612815565b6040516370a0823160e01b81523060048201526001600160a01b038716906370a0823190602401602060405180830381865afa158015611a4c573d6000803e3d6000fd5b505050506040513d601f19601f82011682018060405250810190611a709190613645565b6040516370a0823160e01b81523060048201529094506001600160a01b038616906370a0823190602401602060405180830381865afa158015611ab7573d6000803e3d6000fd5b505050506040513d601f19601f82011682018060405250810190611adb9190613645565b9250611ae984848a8a612932565b604080518b8152602081018b90526001600160a01b038d169133917fdccd412f0b1252819cb1fd330b93224ca42612892bb3f4f789976e6d81936496910160405180910390a350505050505050506001601181905550915091565b611b6f6040518060800160405280600081526020016000815260200160008152602001600081525090565b60088054611b7f90600190613674565b81548110611b8f57611b8f61370d565b9060005260206000209060040201604051806080016040529081600082015481526020016001820154815260200160028201548152602001600382015481525050905090565b60018054610ed09061368b565b60007f000000000000000000000000000000000000000000000000000000000000000015611d1d5760007f0000000000000000000000000000000000000000000000000000000000000000611c3f85670de0b6b3a76400006136d6565b611c499190613723565b905060007f0000000000000000000000000000000000000000000000000000000000000000611c8085670de0b6b3a76400006136d6565b611c8a9190613723565b90506000670de0b6b3a7640000611ca183856136d6565b611cab9190613723565b90506000670de0b6b3a7640000611cc284806136d6565b611ccc9190613723565b670de0b6b3a7640000611cdf86806136d6565b611ce99190613723565b611cf391906136f5565b9050670de0b6b3a7640000611d0882846136d6565b611d129190613723565b945050505050610fb8565b611d2782846136d6565b9050610fb8565b600080611d3e8585856001610fbe565b90506000805b8251811015611d8657828181518110611d5f57611d5f61370d565b602002602001015182611d7291906136f5565b915080611d7e81613745565b915050611d44565b50611d918482613723565b9695505050505050565b6000611da8338484612e10565b50600192915050565b601154600114611dc057600080fd5b60026011556009546040516370a0823160e01b81523060048201527f0000000000000000000000000000000000000000000000000000000000000000917f000000000000000000000000000000000000000000000000000000000000000091611e8d9184918691906001600160a01b038416906370a08231906024015b602060405180830381865afa158015611e5a573d6000803e3d6000fd5b505050506040513d601f19601f82011682018060405250810190611e7e9190613645565b611e889190613674565b612815565b600a546040516370a0823160e01b8152306004820152611ec59183918691906001600160a01b038416906370a0823190602401611e3d565b5050600160115550565b42841015611f1f5760405162461bcd60e51b815260206004820152600f60248201527f4261736556313a204558504952454400000000000000000000000000000000006044820152606401610971565b7f8b73c3c69bb8fe3d512ecc4cf759cc79239f7b179b0ffacaa9a75d522b39400f6000604051611f4f9190613760565b6040805191829003822060208301939093528101919091527fc89efdaa54c0f20c7adf612882df0950f5a951637e0307cdcb4c672f298b8bc660608201524660808201523060a082015260c00160408051601f19818403018152918152815160209283012060058190556001600160a01b038a166000908152600690935290822080547f6e71edae12b1b97f4d1f60370fef10105fa2faae0126114a169c64845d6126c9918b918b918b91908761200583613745565b909155506040805160208101969096526001600160a01b0394851690860152929091166060840152608083015260a082015260c0810187905260e001604051602081830303815290604052805190602001206040516020016120999291907f190100000000000000000000000000000000000000000000000000000000000081526002810192909252602282015260420190565b60408051601f198184030181528282528051602091820120600080855291840180845281905260ff88169284019290925260608301869052608083018590529092509060019060a0016020604051602081039080840390855afa158015612104573d6000803e3d6000fd5b5050604051601f1901519150506001600160a01b0381161580159061213a5750886001600160a01b0316816001600160a01b0316145b6121865760405162461bcd60e51b815260206004820152601960248201527f4261736556313a20494e56414c49445f5349474e4154555245000000000000006044820152606401610971565b6001600160a01b038981166000818152600360209081526040808320948d16808452948252918290208b905590518a81527f8c5be1e5ebec7d5bd14f71427d1e84f3dd0314c0f7b2291e5b200ac8c7c3b925910160405180910390a3505050505050505050565b606060008367ffffffffffffffff81111561220a5761220a6136c0565b604051908082528060200260200182016040528015612233578160200160208202803683370190505b5060085490915060009061224990600190613674565b905061225584866136d6565b8110156122a45760405162461bcd60e51b815260206004820152601b60248201527f504149523a3a4e4f5420524541445920464f522050524943494e4700000000006044820152606401610971565b60006122b085876136d6565b6122ba9083613674565b905060008060005b848410156123c6576122d488856136f5565b9250600884815481106122e9576122e961370d565b9060005260206000209060040201600001546008848154811061230e5761230e61370d565b90600052602060002090600402016000015461232a9190613674565b905080600885815481106123405761234061370d565b906000526020600020906004020160030154600885815481106123655761236561370d565b9060005260206000209060040201600301546123819190613674565b61238b9190613723565b86838151811061239d5761239d61370d565b60209081029190910101526123b38260016136f5565b91506123bf88856136f5565b93506122c2565b5093979650505050505050565b336001600160a01b037f0000000000000000000000000000000000000000000000000000000000000000161461240857600080fd5b600755565b600954600a546000919061242385858484612b1b565b95945050505050565b60608060008467ffffffffffffffff81111561244a5761244a6136c0565b604051908082528060200260200182016040528015612473578160200160208202803683370190505b50905060008567ffffffffffffffff811115612491576124916136c0565b6040519080825280602002602001820160405280156124ba578160200160208202803683370190505b506008549091506000906124d090600190613674565b90506124dc86886136d6565b81101561252b5760405162461bcd60e51b815260206004820152601b60248201527f504149523a3a4e4f5420524541445920464f522050524943494e4700000000006044820152606401610971565b600061253787896136d6565b6125419083613674565b905060008060005b848410156126ca5761255b8a856136f5565b9250600884815481106125705761257061370d565b906000526020600020906004020160000154600884815481106125955761259561370d565b9060005260206000209060040201600001546125b19190613674565b905080600885815481106125c7576125c761370d565b906000526020600020906004020160010154600885815481106125ec576125ec61370d565b9060005260206000209060040201600101546126089190613674565b6126129190613723565b8783815181106126245761262461370d565b60200260200101818152505080600885815481106126445761264461370d565b906000526020600020906004020160020154600885815481106126695761266961370d565b9060005260206000209060040201600201546126859190613674565b61268f9190613723565b8683815181106126a1576126a161370d565b60209081029190910101526126b78260016136f5565b91506126c38a856136f5565b9350612549565b509499939850929650505050505050565b6011546001146126ea57600080fd5b60026011556040516370a0823160e01b815230600482015261280e907f00000000000000000000000000000000000000000000000000000000000000006001600160a01b0316906370a0823190602401602060405180830381865afa158015612757573d6000803e3d6000fd5b505050506040513d601f19601f8201168201806040525081019061277b9190613645565b6040516370a0823160e01b81523060048201527f00000000000000000000000000000000000000000000000000000000000000006001600160a01b0316906370a0823190602401602060405180830381865afa1580156127df573d6000803e3d6000fd5b505050506040513d601f19601f820116820180604052508101906128039190613645565b600954600a54612932565b6001601155565b6000836001600160a01b03163b1161282c57600080fd5b604080516001600160a01b038481166024830152604480830185905283518084039091018152606490920183526020820180517bffffffffffffffffffffffffffffffffffffffffffffffffffffffff167fa9059cbb0000000000000000000000000000000000000000000000000000000017905291516000928392908716916128b691906137fc565b6000604051808303816000865af19150503d80600081146128f3576040519150601f19603f3d011682016040523d82523d6000602084013e6128f8565b606091505b509150915081801561292257508051158061292257508080602001905181019061292291906135d6565b61292b57600080fd5b5050505050565b600b5442906000906129449083613674565b905060008111801561295557508315155b801561296057508215155b156129cb5761296f81856136d6565b600c600082825461298091906136f5565b90915550612990905081846136d6565b600d60008282546129a191906136f5565b90915550506002546129b49082906136d6565b600e60008282546129c591906136f5565b90915550505b60006129d5611b44565b80519091506129e49084613674565b9150600754821115612aca5760408051608081018252848152600c5460208201908152600d54928201928352600e54606083019081526008805460018101825560009190915292517ff3f7a9fe364faab93b216da50a3214154f22a0a2b415b23a84c8169e8b636ee360049094029384015590517ff3f7a9fe364faab93b216da50a3214154f22a0a2b415b23a84c8169e8b636ee483015591517ff3f7a9fe364faab93b216da50a3214154f22a0a2b415b23a84c8169e8b636ee582015590517ff3f7a9fe364faab93b216da50a3214154f22a0a2b415b23a84c8169e8b636ee6909101555b6009879055600a869055600b83905560408051888152602081018890527fcf2aa50876cdfbb541206f89af0ee78d44a2abf8d328e37fa4917f982149848a910160405180910390a150505050505050565b60007f000000000000000000000000000000000000000000000000000000000000000015612d9e576000612b4f8484611be2565b90507f0000000000000000000000000000000000000000000000000000000000000000612b8485670de0b6b3a76400006136d6565b612b8e9190613723565b93507f0000000000000000000000000000000000000000000000000000000000000000612bc384670de0b6b3a76400006136d6565b612bcd9190613723565b92506000807f00000000000000000000000000000000000000000000000000000000000000006001600160a01b0316876001600160a01b031614612c12578486612c15565b85855b915091507f00000000000000000000000000000000000000000000000000000000000000006001600160a01b0316876001600160a01b031614612c94577f0000000000000000000000000000000000000000000000000000000000000000612c8589670de0b6b3a76400006136d6565b612c8f9190613723565b612cd1565b7f0000000000000000000000000000000000000000000000000000000000000000612cc789670de0b6b3a76400006136d6565b612cd19190613723565b97506000612ce9612ce2848b6136f5565b8584613050565b612cf39083613674565b9050670de0b6b3a76400007f00000000000000000000000000000000000000000000000000000000000000006001600160a01b0316896001600160a01b031614612d5d577f0000000000000000000000000000000000000000000000000000000000000000612d7f565b7f00000000000000000000000000000000000000000000000000000000000000005b612d8990836136d6565b612d939190613723565b945050505050611217565b6000807f00000000000000000000000000000000000000000000000000000000000000006001600160a01b0316866001600160a01b031614612de1578385612de4565b84845b9092509050612df387836136f5565b612dfd82896136d6565b612e079190613723565b92505050611217565b6001600160a01b03831660009081526004602052604081208054839290612e38908490613674565b90915550506001600160a01b03821660009081526004602052604081208054839290612e659084906136f5565b92505081905550816001600160a01b0316836001600160a01b03167fddf252ad1be2c89b69c2b068fc378daa952ba7f163c4a11628f55a4df523b3ef83604051612eb191815260200190565b60405180910390a3505050565b60006003821115612f1f5750806000612ed8600283613723565b612ee39060016136f5565b90505b81811015612f1957905080600281612efe8186613723565b612f0891906136f5565b612f129190613723565b9050612ee6565b50919050565b8115612f29575060015b919050565b8060026000828254612f4091906136f5565b90915550506001600160a01b03821660009081526004602052604081208054839290612f6d9084906136f5565b90915550506040518181526001600160a01b038316906000907fddf252ad1be2c89b69c2b068fc378daa952ba7f163c4a11628f55a4df523b3ef906020015b60405180910390a35050565b6000818310612fc757816113af565b5090919050565b8060026000828254612fe09190613674565b90915550506001600160a01b0382166000908152600460205260408120805483929061300d908490613674565b90915550506040518181526000906001600160a01b038416907fddf252ad1be2c89b69c2b068fc378daa952ba7f163c4a11628f55a4df523b3ef90602001612fac565b6000805b60ff8110156131565782600061306a878361315f565b9050858110156130ba57600061308088876131fc565b61308a8389613674565b61309c90670de0b6b3a76400006136d6565b6130a69190613723565b90506130b281876136f5565b9550506130fc565b60006130c688876131fc565b6130d08884613674565b6130e290670de0b6b3a76400006136d6565b6130ec9190613723565b90506130f88187613674565b9550505b818511156131255760016131108387613674565b11613120578493505050506113af565b613141565b60016131318684613674565b11613141578493505050506113af565b5050808061314e90613745565b915050613054565b50909392505050565b6000670de0b6b3a76400008281858161317882806136d6565b6131829190613723565b61318c91906136d6565b6131969190613723565b6131a091906136d6565b6131aa9190613723565b670de0b6b3a76400008084816131c082806136d6565b6131ca9190613723565b6131d491906136d6565b6131de9190613723565b6131e890866136d6565b6131f29190613723565b6113af91906136f5565b6000670de0b6b3a7640000838161321382806136d6565b61321d9190613723565b61322791906136d6565b6132319190613723565b670de0b6b3a76400008061324585806136d6565b61324f9190613723565b61325a8660036136d6565b6131e891906136d6565b80356001600160a01b0381168114612f2957600080fd5b60008060008060006080868803121561329357600080fd5b85359450602086013593506132aa60408701613264565b9250606086013567ffffffffffffffff808211156132c757600080fd5b818801915088601f8301126132db57600080fd5b8135818111156132ea57600080fd5b8960208285010111156132fc57600080fd5b9699959850939650602001949392505050565b60005b8381101561332a578181015183820152602001613312565b83811115613339576000848401525b50505050565b602081526000825180602084015261335e81604085016020870161330f565b601f01601f19169190910160400192915050565b6000806040838503121561338557600080fd5b61338e83613264565b946020939093013593505050565b600080600080608085870312156133b257600080fd5b6133bb85613264565b966020860135965060408601359560600135945092505050565b600081518084526020808501945080840160005b83811015613405578151875295820195908201906001016133e9565b509495945050505050565b6020815260006113af60208301846133d5565b60006020828403121561343557600080fd5b5035919050565b60006020828403121561344e57600080fd5b6113af82613264565b60008060006060848603121561346c57600080fd5b61347584613264565b925061348360208501613264565b9150604084013590509250925092565b6000806000606084860312156134a857600080fd5b6134b184613264565b95602085013595506040909401359392505050565b600080604083850312156134d957600080fd5b50508035926020909101359150565b600080600080600080600060e0888a03121561350357600080fd5b61350c88613264565b965061351a60208901613264565b95506040880135945060608801359350608088013560ff8116811461353e57600080fd5b9699959850939692959460a0840135945060c09093013592915050565b6000806040838503121561356e57600080fd5b61357783613264565b915061358560208401613264565b90509250929050565b600080604083850312156135a157600080fd5b8235915061358560208401613264565b6040815260006135c460408301856133d5565b828103602084015261242381856133d5565b6000602082840312156135e857600080fd5b815180151581146113af57600080fd5b6001600160a01b038616815284602082015283604082015260806060820152816080820152818360a0830137600081830160a090810191909152601f909201601f19160101949350505050565b60006020828403121561365757600080fd5b5051919050565b634e487b7160e01b600052601160045260246000fd5b6000828210156136865761368661365e565b500390565b600181811c9082168061369f57607f821691505b60208210811415612f1957634e487b7160e01b600052602260045260246000fd5b634e487b7160e01b600052604160045260246000fd5b60008160001904831182151516156136f0576136f061365e565b500290565b600082198211156137085761370861365e565b500190565b634e487b7160e01b600052603260045260246000fd5b60008261374057634e487b7160e01b600052601260045260246000fd5b500490565b60006000198214156137595761375961365e565b5060010190565b600080835481600182811c91508083168061377c57607f831692505b602080841082141561379c57634e487b7160e01b86526022600452602486fd5b8180156137b057600181146137c1576137ee565b60ff198616895284890196506137ee565b60008a81526020902060005b868110156137e65781548b8201529085019083016137cd565b505084890196505b509498975050505050505050565b6000825161380e81846020870161330f565b919091019291505056fea26469706673582212207a9bf39a077c8183478256b72ea0f120e3c4b4a2691bd5f9f93de978b9e9e81064736f6c634300080b0033a2646970667358221220a390b70ccca2c5869a9c2ec66ab4405a9de484b4d368dbf01e178a7dd5a8d29c64736f6c634300080b0033",
  "linkReferences": {},
  "deployedLinkReferences": {}
}