{
  "_format": "hh-sol-artifact-1",
  "contractName": "CErc20Storage",
  "sourceName": "contracts/canto/CTokenInterfaces.sol",
  "abi": [
    {
      "inputs": [],
      "name": "underlying",
      "outputs": [
        {
          "internalType": "address",
          "name": "",
          "type": "address"
        }
      ],
      "stateMutability": "view",
      "type": "function"
    }
  ],
  "bytecode": "0x6080604052348015600f57600080fd5b5060ab8061001e6000396000f3fe6080604052348015600f57600080fd5b506004361060285760003560e01c80636f307dc314602d575b600080fd5b600054604c9073ffffffffffffffffffffffffffffffffffffffff1681565b60405173ffffffffffffffffffffffffffffffffffffffff909116815260200160405180910390f3fea2646970667358221220952b70f062e7964d1d2da71a8a74dad7e76106c84ed1b8f9566f41f2897a6e2864736f6c634300080b0033",
  "linkReferences": {},
  "deployedLinkReferences": {}
}