{
  "_format": "hh-sol-artifact-1",
  "contractName": "Treasury",
  "sourceName": "contracts/Treasury.sol",
  "abi": [
    {
      "anonymous": false,
      "inputs": [
        {
          "indexed": true,
          "internalType": "address",
          "name": "previousOwner",
          "type": "address"
        },
        {
          "indexed": true,
          "internalType": "address",
          "name": "newOwner",
          "type": "address"
        }
      ],
      "name": "OwnershipTransferred",
      "type": "event"
    },
    {
      "inputs": [
        {
          "internalType": "address",
          "name": "spender",
          "type": "address"
        }
      ],
      "name": "addSpender",
      "outputs": [],
      "stateMutability": "nonpayable",
      "type": "function"
    },
    {
      "inputs": [],
      "name": "beto",
      "outputs": [
        {
          "internalType": "contract IERC20",
          "name": "",
          "type": "address"
        }
      ],
      "stateMutability": "view",
      "type": "function"
    },
    {
      "inputs": [],
      "name": "owner",
      "outputs": [
        {
          "internalType": "address",
          "name": "",
          "type": "address"
        }
      ],
      "stateMutability": "view",
      "type": "function"
    },
    {
      "inputs": [
        {
          "internalType": "address",
          "name": "spender",
          "type": "address"
        }
      ],
      "name": "removeSpender",
      "outputs": [],
      "stateMutability": "nonpayable",
      "type": "function"
    },
    {
      "inputs": [],
      "name": "renounceOwnership",
      "outputs": [],
      "stateMutability": "nonpayable",
      "type": "function"
    },
    {
      "inputs": [
        {
          "internalType": "address",
          "name": "addr",
          "type": "address"
        }
      ],
      "name": "setBeto",
      "outputs": [],
      "stateMutability": "nonpayable",
      "type": "function"
    },
    {
      "inputs": [
        {
          "internalType": "address",
          "name": "recipient",
          "type": "address"
        },
        {
          "internalType": "uint256",
          "name": "amount",
          "type": "uint256"
        }
      ],
      "name": "spend",
      "outputs": [],
      "stateMutability": "nonpayable",
      "type": "function"
    },
    {
      "inputs": [
        {
          "internalType": "address",
          "name": "",
          "type": "address"
        }
      ],
      "name": "spenders",
      "outputs": [
        {
          "internalType": "bool",
          "name": "",
          "type": "bool"
        }
      ],
      "stateMutability": "view",
      "type": "function"
    },
    {
      "inputs": [
        {
          "internalType": "address",
          "name": "newOwner",
          "type": "address"
        }
      ],
      "name": "transferOwnership",
      "outputs": [],
      "stateMutability": "nonpayable",
      "type": "function"
    }
  ],
  "bytecode": "0x608060405234801561001057600080fd5b5061001a3361001f565b61006f565b600080546001600160a01b038381166001600160a01b0319831681178455604051919092169283917f8be0079c531659141344cd1fd0a4f28419497f9722a3daafe3b4186f6b6457e09190a35050565b6105268061007e6000396000f3fe608060405234801561001057600080fd5b50600436106100a35760003560e01c80638da5cb5b11610076578063e7e31e7a1161005b578063e7e31e7a14610148578063f2fde38b1461015b578063f869fab91461016e57600080fd5b80638da5cb5b14610110578063af7d6ca31461013557600080fd5b80632f5c69ed146100a857806363a31bd4146100bd578063715018a6146100f55780638ce5877c146100fd575b600080fd5b6100bb6100b6366004610482565b610181565b005b6100e06100cb366004610482565b60026020526000908152604090205460ff1681565b60405190151581526020015b60405180910390f35b6100bb6101b8565b6100bb61010b366004610482565b6101cc565b6000546001600160a01b03165b6040516001600160a01b0390911681526020016100ec565b6100bb6101433660046104a4565b6101f5565b6100bb610156366004610482565b6102f3565b6100bb610169366004610482565b61031f565b60015461011d906001600160a01b031681565b6101896103af565b6001805473ffffffffffffffffffffffffffffffffffffffff19166001600160a01b0392909216919091179055565b6101c06103af565b6101ca6000610409565b565b6101d46103af565b6001600160a01b03166000908152600260205260409020805460ff19169055565b3360009081526002602052604090205460ff16151560011461025e5760405162461bcd60e51b815260206004820152600c60248201527f556e617574686f72697a6564000000000000000000000000000000000000000060448201526064015b60405180910390fd5b6001546040517fa9059cbb0000000000000000000000000000000000000000000000000000000081526001600160a01b038481166004830152602482018490529091169063a9059cbb906044016020604051808303816000875af11580156102ca573d6000803e3d6000fd5b505050506040513d601f19601f820116820180604052508101906102ee91906104ce565b505050565b6102fb6103af565b6001600160a01b03166000908152600260205260409020805460ff19166001179055565b6103276103af565b6001600160a01b0381166103a35760405162461bcd60e51b815260206004820152602660248201527f4f776e61626c653a206e6577206f776e657220697320746865207a65726f206160448201527f64647265737300000000000000000000000000000000000000000000000000006064820152608401610255565b6103ac81610409565b50565b6000546001600160a01b031633146101ca5760405162461bcd60e51b815260206004820181905260248201527f4f776e61626c653a2063616c6c6572206973206e6f7420746865206f776e65726044820152606401610255565b600080546001600160a01b0383811673ffffffffffffffffffffffffffffffffffffffff19831681178455604051919092169283917f8be0079c531659141344cd1fd0a4f28419497f9722a3daafe3b4186f6b6457e09190a35050565b80356001600160a01b038116811461047d57600080fd5b919050565b60006020828403121561049457600080fd5b61049d82610466565b9392505050565b600080604083850312156104b757600080fd5b6104c083610466565b946020939093013593505050565b6000602082840312156104e057600080fd5b8151801515811461049d57600080fdfea2646970667358221220070e8b16844361d70c61fcb5a709e487d7fdf198f9f212fb3c992336f7128b2c64736f6c634300080b0033",
  "linkReferences": {},
  "deployedLinkReferences": {}
}