{
  "_format": "hh-sol-artifact-1",
  "contractName": "Vesting",
  "sourceName": "contracts/Vesting.sol",
  "abi": [
    {
      "anonymous": false,
      "inputs": [
        {
          "indexed": true,
          "internalType": "address",
          "name": "previousOwner",
          "type": "address"
        },
        {
          "indexed": true,
          "internalType": "address",
          "name": "newOwner",
          "type": "address"
        }
      ],
      "name": "OwnershipTransferred",
      "type": "event"
    },
    {
      "inputs": [
        {
          "internalType": "uint256",
          "name": "amount",
          "type": "uint256"
        }
      ],
      "name": "addRound",
      "outputs": [],
      "stateMutability": "nonpayable",
      "type": "function"
    },
    {
      "inputs": [],
      "name": "beto",
      "outputs": [
        {
          "internalType": "contract IERC20",
          "name": "",
          "type": "address"
        }
      ],
      "stateMutability": "view",
      "type": "function"
    },
    {
      "inputs": [],
      "name": "distributor",
      "outputs": [
        {
          "internalType": "contract IDistributor",
          "name": "",
          "type": "address"
        }
      ],
      "stateMutability": "view",
      "type": "function"
    },
    {
      "inputs": [],
      "name": "owner",
      "outputs": [
        {
          "internalType": "address",
          "name": "",
          "type": "address"
        }
      ],
      "stateMutability": "view",
      "type": "function"
    },
    {
      "inputs": [],
      "name": "renounceOwnership",
      "outputs": [],
      "stateMutability": "nonpayable",
      "type": "function"
    },
    {
      "inputs": [],
      "name": "restVesting",
      "outputs": [
        {
          "internalType": "uint256",
          "name": "amount",
          "type": "uint256"
        },
        {
          "internalType": "uint256",
          "name": "withdrawedAmount",
          "type": "uint256"
        }
      ],
      "stateMutability": "view",
      "type": "function"
    },
    {
      "inputs": [
        {
          "internalType": "uint256",
          "name": "",
          "type": "uint256"
        }
      ],
      "name": "rounds",
      "outputs": [
        {
          "internalType": "uint256",
          "name": "",
          "type": "uint256"
        }
      ],
      "stateMutability": "view",
      "type": "function"
    },
    {
      "inputs": [
        {
          "internalType": "address",
          "name": "recipient",
          "type": "address"
        },
        {
          "internalType": "uint256",
          "name": "amount",
          "type": "uint256"
        }
      ],
      "name": "send",
      "outputs": [],
      "stateMutability": "nonpayable",
      "type": "function"
    },
    {
      "inputs": [
        {
          "internalType": "address",
          "name": "_beto",
          "type": "address"
        }
      ],
      "name": "setBeto",
      "outputs": [],
      "stateMutability": "nonpayable",
      "type": "function"
    },
    {
      "inputs": [
        {
          "internalType": "address",
          "name": "_distributor",
          "type": "address"
        }
      ],
      "name": "setDistributor",
      "outputs": [],
      "stateMutability": "nonpayable",
      "type": "function"
    },
    {
      "inputs": [
        {
          "internalType": "address",
          "name": "",
          "type": "address"
        }
      ],
      "name": "shares",
      "outputs": [
        {
          "internalType": "address",
          "name": "addr",
          "type": "address"
        },
        {
          "internalType": "string",
          "name": "description",
          "type": "string"
        },
        {
          "internalType": "uint256",
          "name": "share",
          "type": "uint256"
        },
        {
          "internalType": "uint64",
          "name": "unlockRound",
          "type": "uint64"
        }
      ],
      "stateMutability": "view",
      "type": "function"
    },
    {
      "inputs": [
        {
          "internalType": "address",
          "name": "newOwner",
          "type": "address"
        }
      ],
      "name": "transferOwnership",
      "outputs": [],
      "stateMutability": "nonpayable",
      "type": "function"
    },
    {
      "inputs": [
        {
          "internalType": "uint256",
          "name": "",
          "type": "uint256"
        }
      ],
      "name": "vestedAddress",
      "outputs": [
        {
          "internalType": "address",
          "name": "",
          "type": "address"
        }
      ],
      "stateMutability": "view",
      "type": "function"
    },
    {
      "inputs": [
        {
          "internalType": "address",
          "name": "",
          "type": "address"
        }
      ],
      "name": "vestings",
      "outputs": [
        {
          "internalType": "uint256",
          "name": "amount",
          "type": "uint256"
        },
        {
          "internalType": "uint256",
          "name": "withdrawedAmount",
          "type": "uint256"
        }
      ],
      "stateMutability": "view",
      "type": "function"
    },
    {
      "inputs": [
        {
          "internalType": "uint256",
          "name": "amount",
          "type": "uint256"
        }
      ],
      "name": "withdraw",
      "outputs": [],
      "stateMutability": "nonpayable",
      "type": "function"
    }
  ],
  "bytecode": "0x608060405234801561001057600080fd5b5061001a3361001f565b61006f565b600080546001600160a01b038381166001600160a01b0319831681178455604051919092169283917f8be0079c531659141344cd1fd0a4f28419497f9722a3daafe3b4186f6b6457e09190a35050565b610c3a8061007e6000396000f3fe608060405234801561001057600080fd5b50600436106100f55760003560e01c80638da5cb5b11610097578063d0679d3411610066578063d0679d341461020b578063daf498631461021e578063f2fde38b14610245578063f869fab91461025857600080fd5b80638da5cb5b146101b1578063bfe10928146101c2578063c9e9fe9c146101d5578063ce7c2ac2146101e857600080fd5b8063715018a6116100d3578063715018a61461015257806375619ab51461015a5780637fc4e5fc1461016d5780638c65c81f1461019057600080fd5b80632e1a7d4d146100fa5780632f5c69ed1461010f5780634ca57a5414610122575b600080fd5b61010d6101083660046109ed565b61026b565b005b61010d61011d366004610a22565b610472565b6101356101303660046109ed565b6104a9565b6040516001600160a01b0390911681526020015b60405180910390f35b61010d6104d3565b61010d610168366004610a22565b6104e7565b60035460045461017b919082565b60408051928352602083019190915201610149565b6101a361019e3660046109ed565b61051e565b604051908152602001610149565b6000546001600160a01b0316610135565b600254610135906001600160a01b031681565b61010d6101e33660046109ed565b61053f565b6101fb6101f6366004610a22565b6106e6565b6040516101499493929190610a44565b61010d610219366004610aca565b6107ac565b61017b61022c366004610a22565b6005602052600090815260409020805460019091015482565b61010d610253366004610a22565b6108a6565b600154610135906001600160a01b031681565b33600090815260066020908152604091829020600381015460025484517fa32bf5970000000000000000000000000000000000000000000000000000000081529451929467ffffffffffffffff909216936001600160a01b039091169263a32bf5979260048082019392918290030181865afa1580156102ef573d6000803e3d6000fd5b505050506040513d601f19601f820116820180604052508101906103139190610af4565b116103655760405162461bcd60e51b815260206004820152600260248201527f4e5000000000000000000000000000000000000000000000000000000000000060448201526064015b60405180910390fd5b33600090815260056020526040902060018101548154849161038691610b23565b116103b85760405162461bcd60e51b81526020600482015260026024820152614e4560f01b604482015260640161035c565b828160010160008282546103cc9190610b3a565b90915550506001546001600160a01b031663a9059cbb336040517fffffffff0000000000000000000000000000000000000000000000000000000060e084901b1681526001600160a01b039091166004820152602481018690526044016020604051808303816000875af1158015610448573d6000803e3d6000fd5b505050506040513d601f19601f8201168201806040525081019061046c9190610b52565b50505050565b61047a610936565b6001805473ffffffffffffffffffffffffffffffffffffffff19166001600160a01b0392909216919091179055565b600781815481106104b957600080fd5b6000918252602090912001546001600160a01b0316905081565b6104db610936565b6104e56000610990565b565b6104ef610936565b6002805473ffffffffffffffffffffffffffffffffffffffff19166001600160a01b0392909216919091179055565b6008818154811061052e57600080fd5b600091825260209091200154905081565b6001546001600160a01b03166323b872dd336040517fffffffff0000000000000000000000000000000000000000000000000000000060e084901b1681526001600160a01b039091166004820152306024820152604481018490526064016020604051808303816000875af11580156105bc573d6000803e3d6000fd5b505050506040513d601f19601f820116820180604052508101906105e09190610b52565b508060005b60075460ff8216101561069257600060078260ff168154811061060a5761060a610b74565b60009182526020808320909101546001600160a01b03168083526006909152604082206002015490925061063e9086610b8a565b6001600160a01b03831660009081526005602052604081208054929350839290919061066b908490610b3a565b9091555061067b90508185610b23565b93505050808061068a90610ba9565b9150506105e5565b5080600360000160008282546106a89190610b3a565b9091555050600880546001810182556000919091527ff3f7a9fe364faab93b216da50a3214154f22a0a2b415b23a84c8169e8b636ee3019190915550565b600660205260009081526040902080546001820180546001600160a01b03909216929161071290610bc9565b80601f016020809104026020016040519081016040528092919081815260200182805461073e90610bc9565b801561078b5780601f106107605761010080835404028352916020019161078b565b820191906000526020600020905b81548152906001019060200180831161076e57829003601f168201915b50505050600283015460039093015491929167ffffffffffffffff16905084565b6107b4610936565b60045460035482916107c591610b23565b116107f75760405162461bcd60e51b81526020600482015260026024820152614e4560f01b604482015260640161035c565b806003600101600082825461080c9190610b3a565b90915550506001546040517fa9059cbb0000000000000000000000000000000000000000000000000000000081526001600160a01b038481166004830152602482018490529091169063a9059cbb906044016020604051808303816000875af115801561087d573d6000803e3d6000fd5b505050506040513d601f19601f820116820180604052508101906108a19190610b52565b505050565b6108ae610936565b6001600160a01b03811661092a5760405162461bcd60e51b815260206004820152602660248201527f4f776e61626c653a206e6577206f776e657220697320746865207a65726f206160448201527f6464726573730000000000000000000000000000000000000000000000000000606482015260840161035c565b61093381610990565b50565b6000546001600160a01b031633146104e55760405162461bcd60e51b815260206004820181905260248201527f4f776e61626c653a2063616c6c6572206973206e6f7420746865206f776e6572604482015260640161035c565b600080546001600160a01b0383811673ffffffffffffffffffffffffffffffffffffffff19831681178455604051919092169283917f8be0079c531659141344cd1fd0a4f28419497f9722a3daafe3b4186f6b6457e09190a35050565b6000602082840312156109ff57600080fd5b5035919050565b80356001600160a01b0381168114610a1d57600080fd5b919050565b600060208284031215610a3457600080fd5b610a3d82610a06565b9392505050565b6001600160a01b038516815260006020608081840152855180608085015260005b81811015610a815787810183015185820160a001528201610a65565b81811115610a9357600060a083870101525b5060408401869052601f01601f1916830160a0019150610ac19050606083018467ffffffffffffffff169052565b95945050505050565b60008060408385031215610add57600080fd5b610ae683610a06565b946020939093013593505050565b600060208284031215610b0657600080fd5b5051919050565b634e487b7160e01b600052601160045260246000fd5b600082821015610b3557610b35610b0d565b500390565b60008219821115610b4d57610b4d610b0d565b500190565b600060208284031215610b6457600080fd5b81518015158114610a3d57600080fd5b634e487b7160e01b600052603260045260246000fd5b6000816000190483118215151615610ba457610ba4610b0d565b500290565b600060ff821660ff811415610bc057610bc0610b0d565b60010192915050565b600181811c90821680610bdd57607f821691505b60208210811415610bfe57634e487b7160e01b600052602260045260246000fd5b5091905056fea264697066735822122007cd57fad3a5271ae54c053639b243cc17dc06af147f847e8725a67f0bd0065364736f6c634300080b0033",
  "linkReferences": {},
  "deployedLinkReferences": {}
}