{
  "_format": "hh-sol-artifact-1",
  "contractName": "BetoadGovernor",
  "sourceName": "contracts/BetoadGovernor.sol",
  "abi": [
    {
      "inputs": [
        {
          "internalType": "contract IVotes",
          "name": "_token",
          "type": "address"
        },
        {
          "internalType": "contract TimelockController",
          "name": "_timelock",
          "type": "address"
        }
      ],
      "stateMutability": "nonpayable",
      "type": "constructor"
    },
    {
      "inputs": [],
      "name": "Empty",
      "type": "error"
    },
    {
      "anonymous": false,
      "inputs": [
        {
          "indexed": false,
          "internalType": "uint256",
          "name": "proposalId",
          "type": "uint256"
        }
      ],
      "name": "ProposalCanceled",
      "type": "event"
    },
    {
      "anonymous": false,
      "inputs": [
        {
          "indexed": false,
          "internalType": "uint256",
          "name": "proposalId",
          "type": "uint256"
        },
        {
          "indexed": false,
          "internalType": "address",
          "name": "proposer",
          "type": "address"
        },
        {
          "indexed": false,
          "internalType": "address[]",
          "name": "targets",
          "type": "address[]"
        },
        {
          "indexed": false,
          "internalType": "uint256[]",
          "name": "values",
          "type": "uint256[]"
        },
        {
          "indexed": false,
          "internalType": "string[]",
          "name": "signatures",
          "type": "string[]"
        },
        {
          "indexed": false,
          "internalType": "bytes[]",
          "name": "calldatas",
          "type": "bytes[]"
        },
        {
          "indexed": false,
          "internalType": "uint256",
          "name": "startBlock",
          "type": "uint256"
        },
        {
          "indexed": false,
          "internalType": "uint256",
          "name": "endBlock",
          "type": "uint256"
        },
        {
          "indexed": false,
          "internalType": "string",
          "name": "description",
          "type": "string"
        }
      ],
      "name": "ProposalCreated",
      "type": "event"
    },
    {
      "anonymous": false,
      "inputs": [
        {
          "indexed": false,
          "internalType": "uint256",
          "name": "proposalId",
          "type": "uint256"
        }
      ],
      "name": "ProposalExecuted",
      "type": "event"
    },
    {
      "anonymous": false,
      "inputs": [
        {
          "indexed": false,
          "internalType": "uint256",
          "name": "proposalId",
          "type": "uint256"
        },
        {
          "indexed": false,
          "internalType": "uint256",
          "name": "eta",
          "type": "uint256"
        }
      ],
      "name": "ProposalQueued",
      "type": "event"
    },
    {
      "anonymous": false,
      "inputs": [
        {
          "indexed": false,
          "internalType": "uint256",
          "name": "oldProposalThreshold",
          "type": "uint256"
        },
        {
          "indexed": false,
          "internalType": "uint256",
          "name": "newProposalThreshold",
          "type": "uint256"
        }
      ],
      "name": "ProposalThresholdSet",
      "type": "event"
    },
    {
      "anonymous": false,
      "inputs": [
        {
          "indexed": false,
          "internalType": "uint256",
          "name": "oldQuorumNumerator",
          "type": "uint256"
        },
        {
          "indexed": false,
          "internalType": "uint256",
          "name": "newQuorumNumerator",
          "type": "uint256"
        }
      ],
      "name": "QuorumNumeratorUpdated",
      "type": "event"
    },
    {
      "anonymous": false,
      "inputs": [
        {
          "indexed": false,
          "internalType": "address",
          "name": "oldTimelock",
          "type": "address"
        },
        {
          "indexed": false,
          "internalType": "address",
          "name": "newTimelock",
          "type": "address"
        }
      ],
      "name": "TimelockChange",
      "type": "event"
    },
    {
      "anonymous": false,
      "inputs": [
        {
          "indexed": true,
          "internalType": "address",
          "name": "voter",
          "type": "address"
        },
        {
          "indexed": false,
          "internalType": "uint256",
          "name": "proposalId",
          "type": "uint256"
        },
        {
          "indexed": false,
          "internalType": "uint8",
          "name": "support",
          "type": "uint8"
        },
        {
          "indexed": false,
          "internalType": "uint256",
          "name": "weight",
          "type": "uint256"
        },
        {
          "indexed": false,
          "internalType": "string",
          "name": "reason",
          "type": "string"
        }
      ],
      "name": "VoteCast",
      "type": "event"
    },
    {
      "anonymous": false,
      "inputs": [
        {
          "indexed": true,
          "internalType": "address",
          "name": "voter",
          "type": "address"
        },
        {
          "indexed": false,
          "internalType": "uint256",
          "name": "proposalId",
          "type": "uint256"
        },
        {
          "indexed": false,
          "internalType": "uint8",
          "name": "support",
          "type": "uint8"
        },
        {
          "indexed": false,
          "internalType": "uint256",
          "name": "weight",
          "type": "uint256"
        },
        {
          "indexed": false,
          "internalType": "string",
          "name": "reason",
          "type": "string"
        },
        {
          "indexed": false,
          "internalType": "bytes",
          "name": "params",
          "type": "bytes"
        }
      ],
      "name": "VoteCastWithParams",
      "type": "event"
    },
    {
      "anonymous": false,
      "inputs": [
        {
          "indexed": false,
          "internalType": "uint256",
          "name": "oldVotingDelay",
          "type": "uint256"
        },
        {
          "indexed": false,
          "internalType": "uint256",
          "name": "newVotingDelay",
          "type": "uint256"
        }
      ],
      "name": "VotingDelaySet",
      "type": "event"
    },
    {
      "anonymous": false,
      "inputs": [
        {
          "indexed": false,
          "internalType": "uint256",
          "name": "oldVotingPeriod",
          "type": "uint256"
        },
        {
          "indexed": false,
          "internalType": "uint256",
          "name": "newVotingPeriod",
          "type": "uint256"
        }
      ],
      "name": "VotingPeriodSet",
      "type": "event"
    },
    {
      "inputs": [],
      "name": "BALLOT_TYPEHASH",
      "outputs": [
        {
          "internalType": "bytes32",
          "name": "",
          "type": "bytes32"
        }
      ],
      "stateMutability": "view",
      "type": "function"
    },
    {
      "inputs": [],
      "name": "COUNTING_MODE",
      "outputs": [
        {
          "internalType": "string",
          "name": "",
          "type": "string"
        }
      ],
      "stateMutability": "pure",
      "type": "function"
    },
    {
      "inputs": [],
      "name": "EXTENDED_BALLOT_TYPEHASH",
      "outputs": [
        {
          "internalType": "bytes32",
          "name": "",
          "type": "bytes32"
        }
      ],
      "stateMutability": "view",
      "type": "function"
    },
    {
      "inputs": [
        {
          "internalType": "uint256",
          "name": "proposalId",
          "type": "uint256"
        }
      ],
      "name": "cancel",
      "outputs": [],
      "stateMutability": "nonpayable",
      "type": "function"
    },
    {
      "inputs": [
        {
          "internalType": "uint256",
          "name": "proposalId",
          "type": "uint256"
        },
        {
          "internalType": "uint8",
          "name": "support",
          "type": "uint8"
        }
      ],
      "name": "castVote",
      "outputs": [
        {
          "internalType": "uint256",
          "name": "",
          "type": "uint256"
        }
      ],
      "stateMutability": "nonpayable",
      "type": "function"
    },
    {
      "inputs": [
        {
          "internalType": "uint256",
          "name": "proposalId",
          "type": "uint256"
        },
        {
          "internalType": "uint8",
          "name": "support",
          "type": "uint8"
        },
        {
          "internalType": "uint8",
          "name": "v",
          "type": "uint8"
        },
        {
          "internalType": "bytes32",
          "name": "r",
          "type": "bytes32"
        },
        {
          "internalType": "bytes32",
          "name": "s",
          "type": "bytes32"
        }
      ],
      "name": "castVoteBySig",
      "outputs": [
        {
          "internalType": "uint256",
          "name": "",
          "type": "uint256"
        }
      ],
      "stateMutability": "nonpayable",
      "type": "function"
    },
    {
      "inputs": [
        {
          "internalType": "uint256",
          "name": "proposalId",
          "type": "uint256"
        },
        {
          "internalType": "uint8",
          "name": "support",
          "type": "uint8"
        },
        {
          "internalType": "string",
          "name": "reason",
          "type": "string"
        }
      ],
      "name": "castVoteWithReason",
      "outputs": [
        {
          "internalType": "uint256",
          "name": "",
          "type": "uint256"
        }
      ],
      "stateMutability": "nonpayable",
      "type": "function"
    },
    {
      "inputs": [
        {
          "internalType": "uint256",
          "name": "proposalId",
          "type": "uint256"
        },
        {
          "internalType": "uint8",
          "name": "support",
          "type": "uint8"
        },
        {
          "internalType": "string",
          "name": "reason",
          "type": "string"
        },
        {
          "internalType": "bytes",
          "name": "params",
          "type": "bytes"
        }
      ],
      "name": "castVoteWithReasonAndParams",
      "outputs": [
        {
          "internalType": "uint256",
          "name": "",
          "type": "uint256"
        }
      ],
      "stateMutability": "nonpayable",
      "type": "function"
    },
    {
      "inputs": [
        {
          "internalType": "uint256",
          "name": "proposalId",
          "type": "uint256"
        },
        {
          "internalType": "uint8",
          "name": "support",
          "type": "uint8"
        },
        {
          "internalType": "string",
          "name": "reason",
          "type": "string"
        },
        {
          "internalType": "bytes",
          "name": "params",
          "type": "bytes"
        },
        {
          "internalType": "uint8",
          "name": "v",
          "type": "uint8"
        },
        {
          "internalType": "bytes32",
          "name": "r",
          "type": "bytes32"
        },
        {
          "internalType": "bytes32",
          "name": "s",
          "type": "bytes32"
        }
      ],
      "name": "castVoteWithReasonAndParamsBySig",
      "outputs": [
        {
          "internalType": "uint256",
          "name": "",
          "type": "uint256"
        }
      ],
      "stateMutability": "nonpayable",
      "type": "function"
    },
    {
      "inputs": [
        {
          "internalType": "address[]",
          "name": "targets",
          "type": "address[]"
        },
        {
          "internalType": "uint256[]",
          "name": "values",
          "type": "uint256[]"
        },
        {
          "internalType": "bytes[]",
          "name": "calldatas",
          "type": "bytes[]"
        },
        {
          "internalType": "bytes32",
          "name": "descriptionHash",
          "type": "bytes32"
        }
      ],
      "name": "execute",
      "outputs": [
        {
          "internalType": "uint256",
          "name": "",
          "type": "uint256"
        }
      ],
      "stateMutability": "payable",
      "type": "function"
    },
    {
      "inputs": [
        {
          "internalType": "uint256",
          "name": "proposalId",
          "type": "uint256"
        }
      ],
      "name": "execute",
      "outputs": [],
      "stateMutability": "payable",
      "type": "function"
    },
    {
      "inputs": [
        {
          "internalType": "uint256",
          "name": "proposalId",
          "type": "uint256"
        }
      ],
      "name": "getActions",
      "outputs": [
        {
          "internalType": "address[]",
          "name": "targets",
          "type": "address[]"
        },
        {
          "internalType": "uint256[]",
          "name": "values",
          "type": "uint256[]"
        },
        {
          "internalType": "string[]",
          "name": "signatures",
          "type": "string[]"
        },
        {
          "internalType": "bytes[]",
          "name": "calldatas",
          "type": "bytes[]"
        }
      ],
      "stateMutability": "view",
      "type": "function"
    },
    {
      "inputs": [
        {
          "internalType": "uint256",
          "name": "proposalId",
          "type": "uint256"
        },
        {
          "internalType": "address",
          "name": "voter",
          "type": "address"
        }
      ],
      "name": "getReceipt",
      "outputs": [
        {
          "components": [
            {
              "internalType": "bool",
              "name": "hasVoted",
              "type": "bool"
            },
            {
              "internalType": "uint8",
              "name": "support",
              "type": "uint8"
            },
            {
              "internalType": "uint96",
              "name": "votes",
              "type": "uint96"
            }
          ],
          "internalType": "struct IGovernorCompatibilityBravo.Receipt",
          "name": "",
          "type": "tuple"
        }
      ],
      "stateMutability": "view",
      "type": "function"
    },
    {
      "inputs": [
        {
          "internalType": "address",
          "name": "account",
          "type": "address"
        },
        {
          "internalType": "uint256",
          "name": "blockNumber",
          "type": "uint256"
        }
      ],
      "name": "getVotes",
      "outputs": [
        {
          "internalType": "uint256",
          "name": "",
          "type": "uint256"
        }
      ],
      "stateMutability": "view",
      "type": "function"
    },
    {
      "inputs": [
        {
          "internalType": "address",
          "name": "account",
          "type": "address"
        },
        {
          "internalType": "uint256",
          "name": "blockNumber",
          "type": "uint256"
        },
        {
          "internalType": "bytes",
          "name": "params",
          "type": "bytes"
        }
      ],
      "name": "getVotesWithParams",
      "outputs": [
        {
          "internalType": "uint256",
          "name": "",
          "type": "uint256"
        }
      ],
      "stateMutability": "view",
      "type": "function"
    },
    {
      "inputs": [
        {
          "internalType": "uint256",
          "name": "proposalId",
          "type": "uint256"
        },
        {
          "internalType": "address",
          "name": "account",
          "type": "address"
        }
      ],
      "name": "hasVoted",
      "outputs": [
        {
          "internalType": "bool",
          "name": "",
          "type": "bool"
        }
      ],
      "stateMutability": "view",
      "type": "function"
    },
    {
      "inputs": [
        {
          "internalType": "address[]",
          "name": "targets",
          "type": "address[]"
        },
        {
          "internalType": "uint256[]",
          "name": "values",
          "type": "uint256[]"
        },
        {
          "internalType": "bytes[]",
          "name": "calldatas",
          "type": "bytes[]"
        },
        {
          "internalType": "bytes32",
          "name": "descriptionHash",
          "type": "bytes32"
        }
      ],
      "name": "hashProposal",
      "outputs": [
        {
          "internalType": "uint256",
          "name": "",
          "type": "uint256"
        }
      ],
      "stateMutability": "pure",
      "type": "function"
    },
    {
      "inputs": [],
      "name": "name",
      "outputs": [
        {
          "internalType": "string",
          "name": "",
          "type": "string"
        }
      ],
      "stateMutability": "view",
      "type": "function"
    },
    {
      "inputs": [
        {
          "internalType": "address",
          "name": "",
          "type": "address"
        },
        {
          "internalType": "address",
          "name": "",
          "type": "address"
        },
        {
          "internalType": "uint256[]",
          "name": "",
          "type": "uint256[]"
        },
        {
          "internalType": "uint256[]",
          "name": "",
          "type": "uint256[]"
        },
        {
          "internalType": "bytes",
          "name": "",
          "type": "bytes"
        }
      ],
      "name": "onERC1155BatchReceived",
      "outputs": [
        {
          "internalType": "bytes4",
          "name": "",
          "type": "bytes4"
        }
      ],
      "stateMutability": "nonpayable",
      "type": "function"
    },
    {
      "inputs": [
        {
          "internalType": "address",
          "name": "",
          "type": "address"
        },
        {
          "internalType": "address",
          "name": "",
          "type": "address"
        },
        {
          "internalType": "uint256",
          "name": "",
          "type": "uint256"
        },
        {
          "internalType": "uint256",
          "name": "",
          "type": "uint256"
        },
        {
          "internalType": "bytes",
          "name": "",
          "type": "bytes"
        }
      ],
      "name": "onERC1155Received",
      "outputs": [
        {
          "internalType": "bytes4",
          "name": "",
          "type": "bytes4"
        }
      ],
      "stateMutability": "nonpayable",
      "type": "function"
    },
    {
      "inputs": [
        {
          "internalType": "address",
          "name": "",
          "type": "address"
        },
        {
          "internalType": "address",
          "name": "",
          "type": "address"
        },
        {
          "internalType": "uint256",
          "name": "",
          "type": "uint256"
        },
        {
          "internalType": "bytes",
          "name": "",
          "type": "bytes"
        }
      ],
      "name": "onERC721Received",
      "outputs": [
        {
          "internalType": "bytes4",
          "name": "",
          "type": "bytes4"
        }
      ],
      "stateMutability": "nonpayable",
      "type": "function"
    },
    {
      "inputs": [
        {
          "internalType": "uint256",
          "name": "proposalId",
          "type": "uint256"
        }
      ],
      "name": "proposalDeadline",
      "outputs": [
        {
          "internalType": "uint256",
          "name": "",
          "type": "uint256"
        }
      ],
      "stateMutability": "view",
      "type": "function"
    },
    {
      "inputs": [
        {
          "internalType": "uint256",
          "name": "proposalId",
          "type": "uint256"
        }
      ],
      "name": "proposalEta",
      "outputs": [
        {
          "internalType": "uint256",
          "name": "",
          "type": "uint256"
        }
      ],
      "stateMutability": "view",
      "type": "function"
    },
    {
      "inputs": [
        {
          "internalType": "uint256",
          "name": "proposalId",
          "type": "uint256"
        }
      ],
      "name": "proposalSnapshot",
      "outputs": [
        {
          "internalType": "uint256",
          "name": "",
          "type": "uint256"
        }
      ],
      "stateMutability": "view",
      "type": "function"
    },
    {
      "inputs": [],
      "name": "proposalThreshold",
      "outputs": [
        {
          "internalType": "uint256",
          "name": "",
          "type": "uint256"
        }
      ],
      "stateMutability": "view",
      "type": "function"
    },
    {
      "inputs": [
        {
          "internalType": "uint256",
          "name": "proposalId",
          "type": "uint256"
        }
      ],
      "name": "proposals",
      "outputs": [
        {
          "internalType": "uint256",
          "name": "id",
          "type": "uint256"
        },
        {
          "internalType": "address",
          "name": "proposer",
          "type": "address"
        },
        {
          "internalType": "uint256",
          "name": "eta",
          "type": "uint256"
        },
        {
          "internalType": "uint256",
          "name": "startBlock",
          "type": "uint256"
        },
        {
          "internalType": "uint256",
          "name": "endBlock",
          "type": "uint256"
        },
        {
          "internalType": "uint256",
          "name": "forVotes",
          "type": "uint256"
        },
        {
          "internalType": "uint256",
          "name": "againstVotes",
          "type": "uint256"
        },
        {
          "internalType": "uint256",
          "name": "abstainVotes",
          "type": "uint256"
        },
        {
          "internalType": "bool",
          "name": "canceled",
          "type": "bool"
        },
        {
          "internalType": "bool",
          "name": "executed",
          "type": "bool"
        }
      ],
      "stateMutability": "view",
      "type": "function"
    },
    {
      "inputs": [
        {
          "internalType": "address[]",
          "name": "targets",
          "type": "address[]"
        },
        {
          "internalType": "uint256[]",
          "name": "values",
          "type": "uint256[]"
        },
        {
          "internalType": "bytes[]",
          "name": "calldatas",
          "type": "bytes[]"
        },
        {
          "internalType": "string",
          "name": "description",
          "type": "string"
        }
      ],
      "name": "propose",
      "outputs": [
        {
          "internalType": "uint256",
          "name": "",
          "type": "uint256"
        }
      ],
      "stateMutability": "nonpayable",
      "type": "function"
    },
    {
      "inputs": [
        {
          "internalType": "address[]",
          "name": "targets",
          "type": "address[]"
        },
        {
          "internalType": "uint256[]",
          "name": "values",
          "type": "uint256[]"
        },
        {
          "internalType": "string[]",
          "name": "signatures",
          "type": "string[]"
        },
        {
          "internalType": "bytes[]",
          "name": "calldatas",
          "type": "bytes[]"
        },
        {
          "internalType": "string",
          "name": "description",
          "type": "string"
        }
      ],
      "name": "propose",
      "outputs": [
        {
          "internalType": "uint256",
          "name": "",
          "type": "uint256"
        }
      ],
      "stateMutability": "nonpayable",
      "type": "function"
    },
    {
      "inputs": [
        {
          "internalType": "address[]",
          "name": "targets",
          "type": "address[]"
        },
        {
          "internalType": "uint256[]",
          "name": "values",
          "type": "uint256[]"
        },
        {
          "internalType": "bytes[]",
          "name": "calldatas",
          "type": "bytes[]"
        },
        {
          "internalType": "bytes32",
          "name": "descriptionHash",
          "type": "bytes32"
        }
      ],
      "name": "queue",
      "outputs": [
        {
          "internalType": "uint256",
          "name": "",
          "type": "uint256"
        }
      ],
      "stateMutability": "nonpayable",
      "type": "function"
    },
    {
      "inputs": [
        {
          "internalType": "uint256",
          "name": "proposalId",
          "type": "uint256"
        }
      ],
      "name": "queue",
      "outputs": [],
      "stateMutability": "nonpayable",
      "type": "function"
    },
    {
      "inputs": [
        {
          "internalType": "uint256",
          "name": "blockNumber",
          "type": "uint256"
        }
      ],
      "name": "quorum",
      "outputs": [
        {
          "internalType": "uint256",
          "name": "",
          "type": "uint256"
        }
      ],
      "stateMutability": "view",
      "type": "function"
    },
    {
      "inputs": [],
      "name": "quorumDenominator",
      "outputs": [
        {
          "internalType": "uint256",
          "name": "",
          "type": "uint256"
        }
      ],
      "stateMutability": "view",
      "type": "function"
    },
    {
      "inputs": [
        {
          "internalType": "uint256",
          "name": "blockNumber",
          "type": "uint256"
        }
      ],
      "name": "quorumNumerator",
      "outputs": [
        {
          "internalType": "uint256",
          "name": "",
          "type": "uint256"
        }
      ],
      "stateMutability": "view",
      "type": "function"
    },
    {
      "inputs": [],
      "name": "quorumNumerator",
      "outputs": [
        {
          "internalType": "uint256",
          "name": "",
          "type": "uint256"
        }
      ],
      "stateMutability": "view",
      "type": "function"
    },
    {
      "inputs": [],
      "name": "quorumVotes",
      "outputs": [
        {
          "internalType": "uint256",
          "name": "",
          "type": "uint256"
        }
      ],
      "stateMutability": "view",
      "type": "function"
    },
    {
      "inputs": [
        {
          "internalType": "address",
          "name": "target",
          "type": "address"
        },
        {
          "internalType": "uint256",
          "name": "value",
          "type": "uint256"
        },
        {
          "internalType": "bytes",
          "name": "data",
          "type": "bytes"
        }
      ],
      "name": "relay",
      "outputs": [],
      "stateMutability": "nonpayable",
      "type": "function"
    },
    {
      "inputs": [
        {
          "internalType": "uint256",
          "name": "newProposalThreshold",
          "type": "uint256"
        }
      ],
      "name": "setProposalThreshold",
      "outputs": [],
      "stateMutability": "nonpayable",
      "type": "function"
    },
    {
      "inputs": [
        {
          "internalType": "uint256",
          "name": "newVotingDelay",
          "type": "uint256"
        }
      ],
      "name": "setVotingDelay",
      "outputs": [],
      "stateMutability": "nonpayable",
      "type": "function"
    },
    {
      "inputs": [
        {
          "internalType": "uint256",
          "name": "newVotingPeriod",
          "type": "uint256"
        }
      ],
      "name": "setVotingPeriod",
      "outputs": [],
      "stateMutability": "nonpayable",
      "type": "function"
    },
    {
      "inputs": [
        {
          "internalType": "uint256",
          "name": "proposalId",
          "type": "uint256"
        }
      ],
      "name": "state",
      "outputs": [
        {
          "internalType": "enum IGovernor.ProposalState",
          "name": "",
          "type": "uint8"
        }
      ],
      "stateMutability": "view",
      "type": "function"
    },
    {
      "inputs": [
        {
          "internalType": "bytes4",
          "name": "interfaceId",
          "type": "bytes4"
        }
      ],
      "name": "supportsInterface",
      "outputs": [
        {
          "internalType": "bool",
          "name": "",
          "type": "bool"
        }
      ],
      "stateMutability": "view",
      "type": "function"
    },
    {
      "inputs": [],
      "name": "timelock",
      "outputs": [
        {
          "internalType": "address",
          "name": "",
          "type": "address"
        }
      ],
      "stateMutability": "view",
      "type": "function"
    },
    {
      "inputs": [],
      "name": "token",
      "outputs": [
        {
          "internalType": "contract IVotes",
          "name": "",
          "type": "address"
        }
      ],
      "stateMutability": "view",
      "type": "function"
    },
    {
      "inputs": [
        {
          "internalType": "uint256",
          "name": "newQuorumNumerator",
          "type": "uint256"
        }
      ],
      "name": "updateQuorumNumerator",
      "outputs": [],
      "stateMutability": "nonpayable",
      "type": "function"
    },
    {
      "inputs": [
        {
          "internalType": "contract TimelockController",
          "name": "newTimelock",
          "type": "address"
        }
      ],
      "name": "updateTimelock",
      "outputs": [],
      "stateMutability": "nonpayable",
      "type": "function"
    },
    {
      "inputs": [],
      "name": "version",
      "outputs": [
        {
          "internalType": "string",
          "name": "",
          "type": "string"
        }
      ],
      "stateMutability": "view",
      "type": "function"
    },
    {
      "inputs": [],
      "name": "votingDelay",
      "outputs": [
        {
          "internalType": "uint256",
          "name": "",
          "type": "uint256"
        }
      ],
      "stateMutability": "view",
      "type": "function"
    },
    {
      "inputs": [],
      "name": "votingPeriod",
      "outputs": [
        {
          "internalType": "uint256",
          "name": "",
          "type": "uint256"
        }
      ],
      "stateMutability": "view",
      "type": "function"
    },
    {
      "stateMutability": "payable",
      "type": "receive"
    }
  ],
  "bytecode": "0x6101606040523480156200001257600080fd5b50604051620060463803806200604683398101604081905262000035916200080c565b80600483600161a8c060006040518060400160405280600a81526020016926bca3b7bb32b93737b960b11b81525080620000746200016e60201b60201c565b815160208084019190912082518383012060e08290526101008190524660a0818152604080517f8b73c3c69bb8fe3d512ecc4cf759cc79239f7b179b0ffacaa9a75d522b39400f81880181905281830187905260608201869052608082019490945230818401528151808203909301835260c00190528051940193909320919290916080523060c05261012052505082516200011a925060009150602084019062000757565b506200012890508362000189565b6200013382620001ca565b6200013e8162000271565b5050506001600160a01b0316610140526200015981620002b2565b5062000165816200042a565b505050620008c4565b6040805180820190915260018152603160f81b602082015290565b60045460408051918252602082018390527fc565b045403dc03c2eea82b81a0465edad9e2e7fc4d97e11421c209da93d7a93910160405180910390a1600455565b60008111620002305760405162461bcd60e51b815260206004820152602760248201527f476f7665726e6f7253657474696e67733a20766f74696e6720706572696f6420604482015266746f6f206c6f7760c81b60648201526084015b60405180910390fd5b60055460408051918252602082018390527f7e3f7f0708a84de9203036abaa450dccc85ad5ff52f78c170f3edb55cf5e8828910160405180910390a1600555565b60065460408051918252602082018390527fccb45da8d5717e6c4544694297c4ba5cf151d455c9bb0ed4fc7a38411bc05461910160405180910390a1600655565b6064811115620003375760405162461bcd60e51b815260206004820152604360248201527f476f7665726e6f72566f74657351756f72756d4672616374696f6e3a2071756f60448201527f72756d4e756d657261746f72206f7665722071756f72756d44656e6f6d696e616064820152623a37b960e91b608482015260a40162000227565b60006200034362000493565b90508015801590620003555750600954155b15620003d05760096000016040518060400160405280600063ffffffff1681526020016200038e84620004c260201b620024ce1760201c565b6001600160e01b0390811690915282546001810184556000938452602093849020835194909301519091166401000000000263ffffffff909316929092179101555b620003eb8260096200053160201b620025511790919060201c565b505060408051828152602081018490527f0553476bf02ef2726e8ce5ced78d63e26e602e4a2257b1f559418e24b4633997910160405180910390a15050565b600a54604080516001600160a01b03928316815291831660208301527f08f74ea46ef7894f65eabfb5e6e695de773a000b47c529ab559178069b226401910160405180910390a1600a80546001600160a01b0319166001600160a01b0392909216919091179055565b60095460009015620004bb57620004b660096200068d60201b6200267c1760201c565b905090565b5060085490565b60006001600160e01b038211156200052d5760405162461bcd60e51b815260206004820152602760248201527f53616665436173743a2076616c756520646f65736e27742066697420696e20326044820152663234206269747360c81b606482015260840162000227565b5090565b815460009081908162000544866200068d565b90506000821180156200058857504386620005616001856200084b565b8154811062000574576200057462000871565b60009182526020909120015463ffffffff16145b15620005fc57620005a485620004c260201b620024ce1760201c565b86620005b26001856200084b565b81548110620005c557620005c562000871565b9060005260206000200160000160046101000a8154816001600160e01b0302191690836001600160e01b0316021790555062000684565b8560000160405180604001604052806200062143620006f060201b620026d81760201c565b63ffffffff1681526020016200064288620004c260201b620024ce1760201c565b6001600160e01b0390811690915282546001810184556000938452602093849020835194909301519091166401000000000263ffffffff909316929092179101555b95939450505050565b80546000908015620006dd5782620006a76001836200084b565b81548110620006ba57620006ba62000871565b60009182526020909120015464010000000090046001600160e01b0316620006e0565b60005b6001600160e01b03169392505050565b600063ffffffff8211156200052d5760405162461bcd60e51b815260206004820152602660248201527f53616665436173743a2076616c756520646f65736e27742066697420696e203360448201526532206269747360d01b606482015260840162000227565b828054620007659062000887565b90600052602060002090601f016020900481019282620007895760008555620007d4565b82601f10620007a457805160ff1916838001178555620007d4565b82800160010185558215620007d4579182015b82811115620007d4578251825591602001919060010190620007b7565b506200052d9291505b808211156200052d5760008155600101620007dd565b6001600160a01b03811681146200080957600080fd5b50565b600080604083850312156200082057600080fd5b82516200082d81620007f3565b60208401519092506200084081620007f3565b809150509250929050565b6000828210156200086c57634e487b7160e01b600052601160045260246000fd5b500390565b634e487b7160e01b600052603260045260246000fd5b600181811c908216806200089c57607f821691505b60208210811415620008be57634e487b7160e01b600052602260045260246000fd5b50919050565b60805160a05160c05160e0516101005161012051610140516157196200092d60003960008181610b4401528181613170015261347701526000613657015260006136a601526000613681015260006135da015260006136040152600061362e01526157196000f3fe6080604052600436106103175760003560e01c80637d5e81e21161019a578063da95691a116100e1578063eb9019d41161008a578063f8ce560a11610064578063f8ce560a14610b12578063fc0c546a14610b32578063fe0d94c114610b6657600080fd5b8063eb9019d414610a8d578063ece40cc114610aad578063f23a6e6114610acd57600080fd5b8063deaaa7cc116100bb578063deaaa7cc14610965578063e23a9a5214610999578063ea0217cf14610a6d57600080fd5b8063da95691a146108df578063dd4e2ba5146108ff578063ddf0b0091461094557600080fd5b8063b58131b011610143578063c28bc2fa1161011d578063c28bc2fa1461086d578063c59057e41461088d578063d33219b4146108ad57600080fd5b8063b58131b0146107f3578063bc197c8114610808578063c01f9e371461084d57600080fd5b8063a7713a7011610174578063a7713a701461079e578063a890c910146107b3578063ab58fb8e146107d357600080fd5b80637d5e81e21461074a57806397c3d3341461076a5780639a802a6d1461077e57600080fd5b8063328dd9821161025e57806354fd4d501161020757806360c4247f116101e157806360c4247f146106ea57806370b0f6601461070a5780637b3c71d31461072a57600080fd5b806354fd4d501461066457806356781388146106aa5780635f398a14146106ca57600080fd5b80633e4f49e6116102385780633e4f49e6146105cd57806340e58ee5146105fa578063438596321461061a57600080fd5b8063328dd982146105685780633932abb1146105985780633bccf4fd146105ad57600080fd5b8063150b7a02116102c05780632656227d1161029a5780632656227d146105015780632d63f693146105145780632fe3e2611461053457600080fd5b8063150b7a021461046f578063160cbed7146104cc57806324bc1a64146104ec57600080fd5b806303420181116102f1578063034201811461040d57806306f3f9e61461042d57806306fdde031461044d57600080fd5b8063013cf08b1461033f57806301ffc9a7146103ba57806302a251a3146103ea57600080fd5b3661033a5730610325610b79565b6001600160a01b03161461033857600080fd5b005b600080fd5b34801561034b57600080fd5b5061035f61035a366004614796565b610b92565b604080519a8b526001600160a01b0390991660208b0152978901969096526060880194909452608087019290925260a086015260c085015260e084015215156101008301521515610120820152610140015b60405180910390f35b3480156103c657600080fd5b506103da6103d53660046147af565b610c3d565b60405190151581526020016103b1565b3480156103f657600080fd5b506103ff610c4e565b6040519081526020016103b1565b34801561041957600080fd5b506103ff6104283660046148e8565b610c59565b34801561043957600080fd5b50610338610448366004614796565b610d51565b34801561045957600080fd5b50610462610e15565b6040516103b191906149eb565b34801561047b57600080fd5b506104b361048a366004614a13565b7f150b7a0200000000000000000000000000000000000000000000000000000000949350505050565b6040516001600160e01b031990911681526020016103b1565b3480156104d857600080fd5b506103ff6104e7366004614bf2565b610ea7565b3480156104f857600080fd5b506103ff61112d565b6103ff61050f366004614bf2565b61113d565b34801561052057600080fd5b506103ff61052f366004614796565b611264565b34801561054057600080fd5b506103ff7fb3b3f3b703cd84ce352197dcff232b1b5d3cfb2025ce47cf04742d0651f1af8881565b34801561057457600080fd5b50610588610583366004614796565b61129d565b6040516103b19493929190614d4b565b3480156105a457600080fd5b506103ff61152e565b3480156105b957600080fd5b506103ff6105c8366004614d98565b611539565b3480156105d957600080fd5b506105ed6105e8366004614796565b6115af565b6040516103b19190614dfc565b34801561060657600080fd5b50610338610615366004614796565b6115ba565b34801561062657600080fd5b506103da610635366004614e24565b60008281526007602090815260408083206001600160a01b038516845260080190915290205460ff1692915050565b34801561067057600080fd5b5060408051808201909152600181527f31000000000000000000000000000000000000000000000000000000000000006020820152610462565b3480156106b657600080fd5b506103ff6106c5366004614e54565b6118e8565b3480156106d657600080fd5b506103ff6106e5366004614e80565b611911565b3480156106f657600080fd5b506103ff610705366004614796565b61195b565b34801561071657600080fd5b50610338610725366004614796565b6119f1565b34801561073657600080fd5b506103ff610745366004614f04565b611aad565b34801561075657600080fd5b506103ff610765366004614f5e565b611aff565b34801561077657600080fd5b5060646103ff565b34801561078a57600080fd5b506103ff610799366004614fff565b611b16565b3480156107aa57600080fd5b506103ff611b2d565b3480156107bf57600080fd5b506103386107ce366004615058565b611b49565b3480156107df57600080fd5b506103ff6107ee366004614796565b611c05565b3480156107ff57600080fd5b506103ff611cb8565b34801561081457600080fd5b506104b3610823366004615075565b7fbc197c810000000000000000000000000000000000000000000000000000000095945050505050565b34801561085957600080fd5b506103ff610868366004614796565b611cc3565b34801561087957600080fd5b50610338610888366004615109565b611cf3565b34801561089957600080fd5b506103ff6108a8366004614bf2565b611def565b3480156108b957600080fd5b50600a546001600160a01b03165b6040516001600160a01b0390911681526020016103b1565b3480156108eb57600080fd5b506103ff6108fa3660046151cd565b611e29565b34801561090b57600080fd5b5060408051808201909152601a81527f737570706f72743d627261766f2671756f72756d3d627261766f0000000000006020820152610462565b34801561095157600080fd5b50610338610960366004614796565b611e4e565b34801561097157600080fd5b506103ff7f150214d74d59b7d1e90c73fc22ef3d991dd0a76b046543d4d80ab92d2a50328f81565b3480156109a557600080fd5b50610a386109b4366004614e24565b60408051606081018252600080825260208201819052918101919091525060009182526007602090815260408084206001600160a01b0393909316845260089092018152918190208151606081018352905460ff8082161515835261010082041693820193909352620100009092046bffffffffffffffffffffffff169082015290565b6040805182511515815260208084015160ff1690820152918101516bffffffffffffffffffffffff16908201526060016103b1565b348015610a7957600080fd5b50610338610a88366004614796565b6120bc565b348015610a9957600080fd5b506103ff610aa836600461526f565b612178565b348015610ab957600080fd5b50610338610ac8366004614796565b612199565b348015610ad957600080fd5b506104b3610ae836600461529b565b7ff23a6e610000000000000000000000000000000000000000000000000000000095945050505050565b348015610b1e57600080fd5b506103ff610b2d366004614796565b612255565b348015610b3e57600080fd5b506108c77f000000000000000000000000000000000000000000000000000000000000000081565b610338610b74366004614796565b612260565b6000610b8d600a546001600160a01b031690565b905090565b8060008080808080808080610ba68a611c05565b9750610bb18b611264565b9650610bbc8b611cc3565b60008c81526007602081905260408220805460058201546006830154938301546001600160a01b039092169e50949a50939850909650919450610bfe8d6115af565b90506002816007811115610c1457610c14614de6565b1493506007816007811115610c2b57610c2b614de6565b14925050509193959799509193959799565b6000610c4882612754565b92915050565b6000610b8d60055490565b600080610cfd610cf57fb3b3f3b703cd84ce352197dcff232b1b5d3cfb2025ce47cf04742d0651f1af888c8c8c8c604051610c95929190615304565b60405180910390208b80519060200120604051602001610cda959493929190948552602085019390935260ff9190911660408401526060830152608082015260a00190565b60405160208183030381529060405280519060200120612792565b8686866127fb565b9050610d438a828b8b8b8080601f0160208091040260200160405190810160405280939291908181526020018383808284376000920191909152508d9250612819915050565b9a9950505050505050505050565b610d59610b79565b6001600160a01b0316336001600160a01b031614610dbe5760405162461bcd60e51b815260206004820152601860248201527f476f7665726e6f723a206f6e6c79476f7665726e616e6365000000000000000060448201526064015b60405180910390fd5b30610dc7610b79565b6001600160a01b031614610e095760008036604051610de7929190615304565b604051809103902090505b80610dfd6002612996565b14610e0757610df2565b505b610e1281612a46565b50565b606060008054610e2490615314565b80601f0160208091040260200160405190810160405280929190818152602001828054610e5090615314565b8015610e9d5780601f10610e7257610100808354040283529160200191610e9d565b820191906000526020600020905b815481529060010190602001808311610e8057829003601f168201915b5050505050905090565b600080610eb686868686611def565b90506004610ec3826115af565b6007811115610ed457610ed4614de6565b14610f2b5760405162461bcd60e51b815260206004820152602160248201527f476f7665726e6f723a2070726f706f73616c206e6f74207375636365737366756044820152601b60fa1b6064820152608401610db5565b600a54604080517ff27a0c9200000000000000000000000000000000000000000000000000000000815290516000926001600160a01b03169163f27a0c929160048083019260209291908290030181865afa158015610f8e573d6000803e3d6000fd5b505050506040513d601f19601f82011682018060405250810190610fb2919061534f565b600a546040517fb1c5f4270000000000000000000000000000000000000000000000000000000081529192506001600160a01b03169063b1c5f42790611005908a908a908a906000908b90600401615368565b602060405180830381865afa158015611022573d6000803e3d6000fd5b505050506040513d601f19601f82011682018060405250810190611046919061534f565b6000838152600b602052604080822092909255600a5491517f8f2a0bb00000000000000000000000000000000000000000000000000000000081526001600160a01b0390921691638f2a0bb0916110aa918b918b918b91908b9089906004016153b6565b600060405180830381600087803b1580156110c457600080fd5b505af11580156110d8573d6000803e3d6000fd5b505050507f9a2e42fd6722813d69113e7d0079d3d940171428df7373df9c7f7617cfda289282824261110a9190615424565b604080519283526020830191909152015b60405180910390a15095945050505050565b6000610b8d610b2d60014361543c565b60008061114c86868686611def565b90506000611159826115af565b9050600481600781111561116f5761116f614de6565b148061118c5750600581600781111561118a5761118a614de6565b145b6111e25760405162461bcd60e51b815260206004820152602160248201527f476f7665726e6f723a2070726f706f73616c206e6f74207375636365737366756044820152601b60fa1b6064820152608401610db5565b600082815260016020818152604092839020600201805460ff191690921790915590518381527f712ae1383f79ac853f8d882153778e0260ef8f03b504e2866e0593e04d2b291f910160405180910390a16112408288888888612bad565b61124d8288888888612c4f565b61125a8288888888612c5c565b5095945050505050565b600081815260016020908152604080832081519283019091525467ffffffffffffffff16908190525b67ffffffffffffffff1692915050565b6060806060806000600760008781526020019081526020016000209050806001018160020182600301836004018380548060200260200160405190810160405280929190818152602001828054801561131f57602002820191906000526020600020905b81546001600160a01b03168152600190910190602001808311611301575b505050505093508280548060200260200160405190810160405280929190818152602001828054801561137157602002820191906000526020600020905b81548152602001906001019080831161135d575b5050505050925081805480602002602001604051908101604052809291908181526020016000905b828210156114455783829060005260206000200180546113b890615314565b80601f01602080910402602001604051908101604052809291908181526020018280546113e490615314565b80156114315780601f1061140657610100808354040283529160200191611431565b820191906000526020600020905b81548152906001019060200180831161141457829003601f168201915b505050505081526020019060010190611399565b50505050915080805480602002602001604051908101604052809291908181526020016000905b8282101561151857838290600052602060002001805461148b90615314565b80601f01602080910402602001604051908101604052809291908181526020018280546114b790615314565b80156115045780601f106114d957610100808354040283529160200191611504565b820191906000526020600020905b8154815290600101906020018083116114e757829003601f168201915b50505050508152602001906001019061146c565b5050505090509450945094509450509193509193565b6000610b8d60045490565b604080517f150214d74d59b7d1e90c73fc22ef3d991dd0a76b046543d4d80ab92d2a50328f602082015290810186905260ff85166060820152600090819061158790610cf590608001610cda565b90506115a487828860405180602001604052806000815250612c95565b979650505050505050565b6000610c4882612cb8565b600081815260076020526040902080546001600160a01b0316336001600160a01b0316148061160857506115ec611cb8565b8154611606906001600160a01b0316610aa860014361543c565b105b61167a5760405162461bcd60e51b815260206004820152602760248201527f476f7665726e6f72427261766f3a2070726f706f7365722061626f766520746860448201527f726573686f6c64000000000000000000000000000000000000000000000000006064820152608401610db5565b6118e3816001018054806020026020016040519081016040528092919081815260200182805480156116d557602002820191906000526020600020905b81546001600160a01b031681526001909101906020018083116116b7575b50505050508260020180548060200260200160405190810160405280929190818152602001828054801561172857602002820191906000526020600020905b815481526020019060010190808311611714575b50505050506118d984600301805480602002602001604051908101604052809291908181526020016000905b8282101561180057838290600052602060002001805461177390615314565b80601f016020809104026020016040519081016040528092919081815260200182805461179f90615314565b80156117ec5780601f106117c1576101008083540402835291602001916117ec565b820191906000526020600020905b8154815290600101906020018083116117cf57829003601f168201915b505050505081526020019060010190611754565b50505060048701805460408051602080840282018101909252828152935060009084015b828210156118d057838290600052602060002001805461184390615314565b80601f016020809104026020016040519081016040528092919081815260200182805461186f90615314565b80156118bc5780601f10611891576101008083540402835291602001916118bc565b820191906000526020600020905b81548152906001019060200180831161189f57829003601f168201915b505050505081526020019060010190611824565b50505050612e34565b8460090154612f67565b505050565b60008033905061190984828560405180602001604052806000815250612c95565b949350505050565b6000803390506115a487828888888080601f0160208091040260200160405190810160405280939291908181526020018383808284376000920191909152508a9250612819915050565b60095460009080611970575050600854919050565b6000600961197f60018461543c565b8154811061198f5761198f615453565b60009182526020918290206040805180820190915291015463ffffffff81168083526401000000009091046001600160e01b031692820192909252915084106119e657602001516001600160e01b03169392505050565b611909600985612f75565b6119f9610b79565b6001600160a01b0316336001600160a01b031614611a595760405162461bcd60e51b815260206004820152601860248201527f476f7665726e6f723a206f6e6c79476f7665726e616e636500000000000000006044820152606401610db5565b30611a62610b79565b6001600160a01b031614611aa45760008036604051611a82929190615304565b604051809103902090505b80611a986002612996565b14611aa257611a8d565b505b610e1281613084565b600080339050611af586828787878080601f016020809104026020016040519081016040528093929190818152602001838380828437600092019190915250612c9592505050565b9695505050505050565b6000611b0d858585856130c5565b95945050505050565b6000611b2384848461312e565b90505b9392505050565b60095460009015611b4257610b8d600961267c565b5060085490565b611b51610b79565b6001600160a01b0316336001600160a01b031614611bb15760405162461bcd60e51b815260206004820152601860248201527f476f7665726e6f723a206f6e6c79476f7665726e616e636500000000000000006044820152606401610db5565b30611bba610b79565b6001600160a01b031614611bfc5760008036604051611bda929190615304565b604051809103902090505b80611bf06002612996565b14611bfa57611be5565b505b610e12816131dd565b600a546000828152600b60205260408082205490517fd45c44350000000000000000000000000000000000000000000000000000000081526004810191909152909182916001600160a01b039091169063d45c443590602401602060405180830381865afa158015611c7b573d6000803e3d6000fd5b505050506040513d601f19601f82011682018060405250810190611c9f919061534f565b905080600114611caf5780611b26565b60009392505050565b6000610b8d60065490565b600081815260016020818152604080842081519283019091529091015467ffffffffffffffff169081905261128d565b611cfb610b79565b6001600160a01b0316336001600160a01b031614611d5b5760405162461bcd60e51b815260206004820152601860248201527f476f7665726e6f723a206f6e6c79476f7665726e616e636500000000000000006044820152606401610db5565b30611d64610b79565b6001600160a01b031614611da65760008036604051611d84929190615304565b604051809103902090505b80611d9a6002612996565b14611da457611d8f565b505b611de88483838080601f016020809104026020016040519081016040528093929190818152602001838380828437600092019190915250889250613253915050565b5050505050565b600084848484604051602001611e089493929190615469565b60408051601f19818403018152919052805160209091012095945050505050565b6000611e39338787878787613279565b611af58686611e488787612e34565b85611aff565b60008181526007602090815260409182902060018101805484518185028101850190955280855291936118e393909290830182828015611eb757602002820191906000526020600020905b81546001600160a01b03168152600190910190602001808311611e99575b505050505082600201805480602002602001604051908101604052809291908181526020018280548015611f0a57602002820191906000526020600020905b815481526020019060010190808311611ef6575b50505050506120b284600301805480602002602001604051908101604052809291908181526020016000905b82821015611fe2578382906000526020600020018054611f5590615314565b80601f0160208091040260200160405190810160405280929190818152602001828054611f8190615314565b8015611fce5780601f10611fa357610100808354040283529160200191611fce565b820191906000526020600020905b815481529060010190602001808311611fb157829003601f168201915b505050505081526020019060010190611f36565b50505060048701805460408051602080840282018101909252828152935060009084015b828210156118d057838290600052602060002001805461202590615314565b80601f016020809104026020016040519081016040528092919081815260200182805461205190615314565b801561209e5780601f106120735761010080835404028352916020019161209e565b820191906000526020600020905b81548152906001019060200180831161208157829003601f168201915b505050505081526020019060010190612006565b8460090154610ea7565b6120c4610b79565b6001600160a01b0316336001600160a01b0316146121245760405162461bcd60e51b815260206004820152601860248201527f476f7665726e6f723a206f6e6c79476f7665726e616e636500000000000000006044820152606401610db5565b3061212d610b79565b6001600160a01b03161461216f576000803660405161214d929190615304565b604051809103902090505b806121636002612996565b1461216d57612158565b505b610e1281613343565b6000611b26838361219460408051602081019091526000815290565b61312e565b6121a1610b79565b6001600160a01b0316336001600160a01b0316146122015760405162461bcd60e51b815260206004820152601860248201527f476f7665726e6f723a206f6e6c79476f7665726e616e636500000000000000006044820152606401610db5565b3061220a610b79565b6001600160a01b03161461224c576000803660405161222a929190615304565b604051809103902090505b806122406002612996565b1461224a57612235565b505b610e12816133fa565b6000610c488261343b565b60008181526007602090815260409182902060018101805484518185028101850190955280855291936118e3939092908301828280156122c957602002820191906000526020600020905b81546001600160a01b031681526001909101906020018083116122ab575b50505050508260020180548060200260200160405190810160405280929190818152602001828054801561231c57602002820191906000526020600020905b815481526020019060010190808311612308575b50505050506124c484600301805480602002602001604051908101604052809291908181526020016000905b828210156123f457838290600052602060002001805461236790615314565b80601f016020809104026020016040519081016040528092919081815260200182805461239390615314565b80156123e05780601f106123b5576101008083540402835291602001916123e0565b820191906000526020600020905b8154815290600101906020018083116123c357829003601f168201915b505050505081526020019060010190612348565b50505060048701805460408051602080840282018101909252828152935060009084015b828210156118d057838290600052602060002001805461243790615314565b80601f016020809104026020016040519081016040528092919081815260200182805461246390615314565b80156124b05780601f10612485576101008083540402835291602001916124b0565b820191906000526020600020905b81548152906001019060200180831161249357829003601f168201915b505050505081526020019060010190612418565b846009015461113d565b60006001600160e01b0382111561254d5760405162461bcd60e51b815260206004820152602760248201527f53616665436173743a2076616c756520646f65736e27742066697420696e203260448201527f32342062697473000000000000000000000000000000000000000000000000006064820152608401610db5565b5090565b81546000908190816125628661267c565b90506000821180156125a05750438661257c60018561543c565b8154811061258c5761258c615453565b60009182526020909120015463ffffffff16145b15612600576125ae856124ce565b866125ba60018561543c565b815481106125ca576125ca615453565b9060005260206000200160000160046101000a8154816001600160e01b0302191690836001600160e01b0316021790555061266e565b856000016040518060400160405280612618436126d8565b63ffffffff16815260200161262c886124ce565b6001600160e01b0390811690915282546001810184556000938452602093849020835194909301519091166401000000000263ffffffff909316929092179101555b9250839150505b9250929050565b805460009080156126c5578261269360018361543c565b815481106126a3576126a3615453565b60009182526020909120015464010000000090046001600160e01b03166126c8565b60005b6001600160e01b03169392505050565b600063ffffffff82111561254d5760405162461bcd60e51b815260206004820152602660248201527f53616665436173743a2076616c756520646f65736e27742066697420696e203360448201527f32206269747300000000000000000000000000000000000000000000000000006064820152608401610db5565b60006001600160e01b031982167f6e665ced000000000000000000000000000000000000000000000000000000001480610c485750610c48826134fe565b6000610c4861279f6135cd565b836040517f19010000000000000000000000000000000000000000000000000000000000006020820152602281018390526042810182905260009060620160405160208183030381529060405280519060200120905092915050565b600080600061280c878787876136f4565b9150915061125a816137e1565b6000858152600160208190526040822090612833886115af565b600781111561284457612844614de6565b146128b75760405162461bcd60e51b815260206004820152602360248201527f476f7665726e6f723a20766f7465206e6f742063757272656e746c792061637460448201527f69766500000000000000000000000000000000000000000000000000000000006064820152608401610db5565b6040805160208101909152815467ffffffffffffffff16908190526000906128e19088908661312e565b90506128f0888888848861399c565b835161294257866001600160a01b03167fb8e138887d0aa13bab447e82de9d5c1777041ecd21ca36ba824ff1e6c07ddda48988848960405161293594939291906154b4565b60405180910390a26115a4565b866001600160a01b03167fe2babfbac5889a709b63bb7f598b324e08bc5a4fb9ec647fb3cbc9ec07eb871289888489896040516129839594939291906154dc565b60405180910390a2979650505050505050565b60006129b18254600f81810b600160801b909204900b131590565b156129e8576040517f3db2a12a00000000000000000000000000000000000000000000000000000000815260040160405180910390fd5b508054600f0b6000818152600180840160205260408220805492905583547fffffffffffffffffffffffffffffffff000000000000000000000000000000001692016fffffffffffffffffffffffffffffffff169190911790915590565b6064811115612ae35760405162461bcd60e51b815260206004820152604360248201527f476f7665726e6f72566f74657351756f72756d4672616374696f6e3a2071756f60448201527f72756d4e756d657261746f72206f7665722071756f72756d44656e6f6d696e6160648201527f746f720000000000000000000000000000000000000000000000000000000000608482015260a401610db5565b6000612aed611b2d565b90508015801590612afe5750600954155b15612b6357604080518082019091526000815260099060208101612b21846124ce565b6001600160e01b0390811690915282546001810184556000938452602093849020835194909301519091166401000000000263ffffffff909316929092179101555b612b6e600983612551565b505060408051828152602081018490527f0553476bf02ef2726e8ce5ced78d63e26e602e4a2257b1f559418e24b4633997910160405180910390a15050565b30612bb6610b79565b6001600160a01b031614611de85760005b8451811015612c4757306001600160a01b0316858281518110612bec57612bec615453565b60200260200101516001600160a01b03161415612c3757612c37838281518110612c1857612c18615453565b6020026020010151805190602001206002613b6790919063ffffffff16565b612c4081615522565b9050612bc7565b505050505050565b611de88585858585613bac565b30612c65610b79565b6001600160a01b031614611de857600254600f81810b600160801b909204900b1315611de8576000600255611de8565b6000611b0d85858585612cb360408051602081019091526000815290565b612819565b600080612cc483613c39565b90506004816007811115612cda57612cda614de6565b14612ce55792915050565b6000838152600b602052604090205480612d00575092915050565b600a546040517f2ab0f529000000000000000000000000000000000000000000000000000000008152600481018390526001600160a01b0390911690632ab0f52990602401602060405180830381865afa158015612d62573d6000803e3d6000fd5b505050506040513d601f19601f82011682018060405250810190612d86919061553d565b15612d95575060079392505050565b600a546040517f584b153e000000000000000000000000000000000000000000000000000000008152600481018390526001600160a01b039091169063584b153e90602401602060405180830381865afa158015612df7573d6000803e3d6000fd5b505050506040513d601f19601f82011682018060405250810190612e1b919061553d565b15612e2a575060059392505050565b5060029392505050565b60606000825167ffffffffffffffff811115612e5257612e52614831565b604051908082528060200260200182016040528015612e8557816020015b6060815260200190600190039081612e705790505b50905060005b8451811015612f5f57848181518110612ea657612ea6615453565b602002602001015151600014612f1657848181518110612ec857612ec8615453565b602002602001015180519060200120848281518110612ee957612ee9615453565b6020026020010151604051602001612f0292919061555f565b604051602081830303815290604052612f31565b838181518110612f2857612f28615453565b60200260200101515b828281518110612f4357612f43615453565b602002602001018190525080612f5890615522565b9050612e8b565b509392505050565b6000611b0d85858585613d48565b6000438210612fc65760405162461bcd60e51b815260206004820181905260248201527f436865636b706f696e74733a20626c6f636b206e6f7420796574206d696e65646044820152606401610db5565b825460005b8181101561302b576000612fdf8284613e13565b905084866000018281548110612ff757612ff7615453565b60009182526020909120015463ffffffff16111561301757809250613025565b613022816001615424565b91505b50612fcb565b811561306f578461303d60018461543c565b8154811061304d5761304d615453565b60009182526020909120015464010000000090046001600160e01b0316613072565b60005b6001600160e01b031695945050505050565b60045460408051918252602082018390527fc565b045403dc03c2eea82b81a0465edad9e2e7fc4d97e11421c209da93d7a93910160405180910390a1600455565b6000613122338686865167ffffffffffffffff8111156130e7576130e7614831565b60405190808252806020026020018201604052801561311a57816020015b60608152602001906001900390816131055790505b508787613279565b611b0d85858585613e2e565b6040517f3a46b1a80000000000000000000000000000000000000000000000000000000081526001600160a01b038481166004830152602482018490526000917f000000000000000000000000000000000000000000000000000000000000000090911690633a46b1a890604401602060405180830381865afa1580156131b9573d6000803e3d6000fd5b505050506040513d601f19601f82011682018060405250810190611b23919061534f565b600a54604080516001600160a01b03928316815291831660208301527f08f74ea46ef7894f65eabfb5e6e695de773a000b47c529ab559178069b226401910160405180910390a1600a805473ffffffffffffffffffffffffffffffffffffffff19166001600160a01b0392909216919091179055565b6060611b238484846040518060600160405280602981526020016156bb60299139614191565b80516020820120600061329787876132918888612e34565b85611def565b600081815260076020526040902060098101549192509061333857805473ffffffffffffffffffffffffffffffffffffffff19166001600160a01b038a1617815587516132ed90600183019060208b019061453f565b50865161330390600283019060208a01906145ad565b50855161331990600383019060208901906145e8565b50845161332f9060048301906020880190614641565b50600981018390555b505050505050505050565b600081116133b95760405162461bcd60e51b815260206004820152602760248201527f476f7665726e6f7253657474696e67733a20766f74696e6720706572696f642060448201527f746f6f206c6f77000000000000000000000000000000000000000000000000006064820152608401610db5565b60055460408051918252602082018390527f7e3f7f0708a84de9203036abaa450dccc85ad5ff52f78c170f3edb55cf5e8828910160405180910390a1600555565b60065460408051918252602082018390527fccb45da8d5717e6c4544694297c4ba5cf151d455c9bb0ed4fc7a38411bc05461910160405180910390a1600655565b600060646134488361195b565b6040517f8e539e8c000000000000000000000000000000000000000000000000000000008152600481018590527f00000000000000000000000000000000000000000000000000000000000000006001600160a01b031690638e539e8c90602401602060405180830381865afa1580156134c6573d6000803e3d6000fd5b505050506040513d601f19601f820116820180604052508101906134ea919061534f565b6134f4919061558f565b610c4891906155ae565b60006001600160e01b031982167fbf26d89700000000000000000000000000000000000000000000000000000000148061356157506001600160e01b031982167f79dd796f00000000000000000000000000000000000000000000000000000000145b8061359557506001600160e01b031982167f4e2312e000000000000000000000000000000000000000000000000000000000145b80610c4857507f01ffc9a7000000000000000000000000000000000000000000000000000000006001600160e01b0319831614610c48565b6000306001600160a01b037f00000000000000000000000000000000000000000000000000000000000000001614801561362657507f000000000000000000000000000000000000000000000000000000000000000046145b1561365057507f000000000000000000000000000000000000000000000000000000000000000090565b50604080517f00000000000000000000000000000000000000000000000000000000000000006020808301919091527f0000000000000000000000000000000000000000000000000000000000000000828401527f000000000000000000000000000000000000000000000000000000000000000060608301524660808301523060a0808401919091528351808403909101815260c0909201909252805191012090565b6000807f7fffffffffffffffffffffffffffffff5d576e7357a4501ddfe92f46681b20a083111561372b57506000905060036137d8565b8460ff16601b1415801561374357508460ff16601c14155b1561375457506000905060046137d8565b6040805160008082526020820180845289905260ff881692820192909252606081018690526080810185905260019060a0016020604051602081039080840390855afa1580156137a8573d6000803e3d6000fd5b5050604051601f1901519150506001600160a01b0381166137d1576000600192509250506137d8565b9150600090505b94509492505050565b60008160048111156137f5576137f5614de6565b14156137fe5750565b600181600481111561381257613812614de6565b14156138605760405162461bcd60e51b815260206004820152601860248201527f45434453413a20696e76616c6964207369676e617475726500000000000000006044820152606401610db5565b600281600481111561387457613874614de6565b14156138c25760405162461bcd60e51b815260206004820152601f60248201527f45434453413a20696e76616c6964207369676e6174757265206c656e677468006044820152606401610db5565b60038160048111156138d6576138d6614de6565b141561392f5760405162461bcd60e51b815260206004820152602260248201527f45434453413a20696e76616c6964207369676e6174757265202773272076616c604482015261756560f01b6064820152608401610db5565b600481600481111561394357613943614de6565b1415610e125760405162461bcd60e51b815260206004820152602260248201527f45434453413a20696e76616c6964207369676e6174757265202776272076616c604482015261756560f01b6064820152608401610db5565b60008581526007602090815260408083206001600160a01b038816845260088101909252909120805460ff1615613a3b5760405162461bcd60e51b815260206004820152602d60248201527f476f7665726e6f72436f6d7061746962696c697479427261766f3a20766f746560448201527f20616c72656164792063617374000000000000000000000000000000000000006064820152608401610db5565b805460ff86166101000261ffff19909116176001178155613a5b846142ce565b81546bffffffffffffffffffffffff9190911662010000026dffffffffffffffffffffffff00001990911617815560ff8516613ab05783826006016000828254613aa59190615424565b90915550613b5e9050565b60ff851660011415613ad05783826005016000828254613aa59190615424565b60ff851660021415613af05783826007016000828254613aa59190615424565b60405162461bcd60e51b815260206004820152602d60248201527f476f7665726e6f72436f6d7061746962696c697479427261766f3a20696e766160448201527f6c696420766f74652074797065000000000000000000000000000000000000006064820152608401610db5565b50505050505050565b8154600160801b90819004600f0b6000818152600180860160205260409091209390935583546fffffffffffffffffffffffffffffffff908116939091011602179055565b600a546040517fe38335e50000000000000000000000000000000000000000000000000000000081526001600160a01b039091169063e38335e5903490613c00908890889088906000908990600401615368565b6000604051808303818588803b158015613c1957600080fd5b505af1158015613c2d573d6000803e3d6000fd5b50505050505050505050565b6000818152600160205260408120600281015460ff1615613c5d5750600792915050565b6002810154610100900460ff1615613c785750600292915050565b6000613c8384611264565b905080613cd25760405162461bcd60e51b815260206004820152601d60248201527f476f7665726e6f723a20756e6b6e6f776e2070726f706f73616c2069640000006044820152606401610db5565b438110613ce3575060009392505050565b6000613cee85611cc3565b9050438110613d0257506001949350505050565b613d0b85614352565b8015613d2d575060008581526007602052604090206006810154600590910154115b15613d3d57506004949350505050565b506003949350505050565b600080613d578686868661437a565b6000818152600b602052604090205490915015611b0d57600a546000828152600b6020526040908190205490517fc4d252f50000000000000000000000000000000000000000000000000000000081526001600160a01b039092169163c4d252f591613dc99160040190815260200190565b600060405180830381600087803b158015613de357600080fd5b505af1158015613df7573d6000803e3d6000fd5b5050506000828152600b60205260408120555095945050505050565b6000613e2260028484186155ae565b611b2690848416615424565b6000613e38611cb8565b613e4733610aa860014361543c565b1015613ebb5760405162461bcd60e51b815260206004820152603160248201527f476f7665726e6f723a2070726f706f73657220766f7465732062656c6f77207060448201527f726f706f73616c207468726573686f6c640000000000000000000000000000006064820152608401610db5565b6000613ed08686868680519060200120611def565b90508451865114613f2d5760405162461bcd60e51b815260206004820152602160248201527f476f7665726e6f723a20696e76616c69642070726f706f73616c206c656e67746044820152600d60fb1b6064820152608401610db5565b8351865114613f885760405162461bcd60e51b815260206004820152602160248201527f476f7665726e6f723a20696e76616c69642070726f706f73616c206c656e67746044820152600d60fb1b6064820152608401610db5565b6000865111613fd95760405162461bcd60e51b815260206004820152601860248201527f476f7665726e6f723a20656d7074792070726f706f73616c00000000000000006044820152606401610db5565b6000818152600160209081526040918290208251918201909252815467ffffffffffffffff1690819052156140765760405162461bcd60e51b815260206004820152602160248201527f476f7665726e6f723a2070726f706f73616c20616c726561647920657869737460448201527f73000000000000000000000000000000000000000000000000000000000000006064820152608401610db5565b600061408861408361152e565b614486565b61409143614486565b61409b91906155d0565b905060006140aa614083610c4e565b6140b490836155d0565b835467ffffffffffffffff191667ffffffffffffffff8416178455905060018301805467ffffffffffffffff191667ffffffffffffffff83161790557f7d84a6263ae0d98d3329bd7b46bb4e8d6f98cd35a7adb45c274c8b7fd5ebd5e084338b8b8d5167ffffffffffffffff81111561412f5761412f614831565b60405190808252806020026020018201604052801561416257816020015b606081526020019060019003908161414d5790505b508c88888e60405161417c999897969594939291906155fc565b60405180910390a15091979650505050505050565b6060824710156142095760405162461bcd60e51b815260206004820152602660248201527f416464726573733a20696e73756666696369656e742062616c616e636520666f60448201527f722063616c6c00000000000000000000000000000000000000000000000000006064820152608401610db5565b6001600160a01b0385163b6142605760405162461bcd60e51b815260206004820152601d60248201527f416464726573733a2063616c6c20746f206e6f6e2d636f6e74726163740000006044820152606401610db5565b600080866001600160a01b0316858760405161427c919061569e565b60006040518083038185875af1925050503d80600081146142b9576040519150601f19603f3d011682016040523d82523d6000602084013e6142be565b606091505b50915091506115a4828286614506565b60006bffffffffffffffffffffffff82111561254d5760405162461bcd60e51b815260206004820152602660248201527f53616665436173743a2076616c756520646f65736e27742066697420696e203960448201527f36206269747300000000000000000000000000000000000000000000000000006064820152608401610db5565b60008181526007602052604081206005810154614371610b2d85611264565b11159392505050565b60008061438986868686611def565b90506000614396826115af565b905060028160078111156143ac576143ac614de6565b141580156143cc575060068160078111156143c9576143c9614de6565b14155b80156143ea575060078160078111156143e7576143e7614de6565b14155b6144365760405162461bcd60e51b815260206004820152601d60248201527f476f7665726e6f723a2070726f706f73616c206e6f74206163746976650000006044820152606401610db5565b60008281526001602052604090819020600201805461ff001916610100179055517f789cf55be980739dad1d0699b93b58e806b51c9d96619bfa8fe0a28abaa7b30c9061111b9084815260200190565b600067ffffffffffffffff82111561254d5760405162461bcd60e51b815260206004820152602660248201527f53616665436173743a2076616c756520646f65736e27742066697420696e203660448201527f34206269747300000000000000000000000000000000000000000000000000006064820152608401610db5565b60608315614515575081611b26565b8251156145255782518084602001fd5b8160405162461bcd60e51b8152600401610db591906149eb565b8280548282559060005260206000209081019282156145a1579160200282015b828111156145a1578251825473ffffffffffffffffffffffffffffffffffffffff19166001600160a01b0390911617825560209092019160019091019061455f565b5061254d92915061469a565b8280548282559060005260206000209081019282156145a1579160200282015b828111156145a15782518255916020019190600101906145cd565b828054828255906000526020600020908101928215614635579160200282015b8281111561463557825180516146259184916020909101906146af565b5091602001919060010190614608565b5061254d929150614722565b82805482825590600052602060002090810192821561468e579160200282015b8281111561468e578251805161467e9184916020909101906146af565b5091602001919060010190614661565b5061254d92915061473f565b5b8082111561254d576000815560010161469b565b8280546146bb90615314565b90600052602060002090601f0160209004810192826146dd57600085556145a1565b82601f106146f657805160ff19168380011785556145a1565b828001600101855582156145a157918201828111156145a15782518255916020019190600101906145cd565b8082111561254d576000614736828261475c565b50600101614722565b8082111561254d576000614753828261475c565b5060010161473f565b50805461476890615314565b6000825580601f10614778575050565b601f016020900490600052602060002090810190610e12919061469a565b6000602082840312156147a857600080fd5b5035919050565b6000602082840312156147c157600080fd5b81356001600160e01b031981168114611b2657600080fd5b803560ff811681146147ea57600080fd5b919050565b60008083601f84011261480157600080fd5b50813567ffffffffffffffff81111561481957600080fd5b60208301915083602082850101111561267557600080fd5b634e487b7160e01b600052604160045260246000fd5b604051601f8201601f1916810167ffffffffffffffff8111828210171561487057614870614831565b604052919050565b600082601f83011261488957600080fd5b813567ffffffffffffffff8111156148a3576148a3614831565b6148b6601f8201601f1916602001614847565b8181528460208386010111156148cb57600080fd5b816020850160208301376000918101602001919091529392505050565b60008060008060008060008060e0898b03121561490457600080fd5b8835975061491460208a016147d9565b9650604089013567ffffffffffffffff8082111561493157600080fd5b61493d8c838d016147ef565b909850965060608b013591508082111561495657600080fd5b506149638b828c01614878565b94505061497260808a016147d9565b925060a0890135915060c089013590509295985092959890939650565b60005b838110156149aa578181015183820152602001614992565b838111156149b9576000848401525b50505050565b600081518084526149d781602086016020860161498f565b601f01601f19169290920160200192915050565b602081526000611b2660208301846149bf565b6001600160a01b0381168114610e1257600080fd5b60008060008060808587031215614a2957600080fd5b8435614a34816149fe565b93506020850135614a44816149fe565b925060408501359150606085013567ffffffffffffffff811115614a6757600080fd5b614a7387828801614878565b91505092959194509250565b600067ffffffffffffffff821115614a9957614a99614831565b5060051b60200190565b600082601f830112614ab457600080fd5b81356020614ac9614ac483614a7f565b614847565b82815260059290921b84018101918181019086841115614ae857600080fd5b8286015b84811015614b0c578035614aff816149fe565b8352918301918301614aec565b509695505050505050565b600082601f830112614b2857600080fd5b81356020614b38614ac483614a7f565b82815260059290921b84018101918181019086841115614b5757600080fd5b8286015b84811015614b0c5780358352918301918301614b5b565b600082601f830112614b8357600080fd5b81356020614b93614ac483614a7f565b82815260059290921b84018101918181019086841115614bb257600080fd5b8286015b84811015614b0c57803567ffffffffffffffff811115614bd65760008081fd5b614be48986838b0101614878565b845250918301918301614bb6565b60008060008060808587031215614c0857600080fd5b843567ffffffffffffffff80821115614c2057600080fd5b614c2c88838901614aa3565b95506020870135915080821115614c4257600080fd5b614c4e88838901614b17565b94506040870135915080821115614c6457600080fd5b50614c7187828801614b72565b949793965093946060013593505050565b600081518084526020808501945080840160005b83811015614cbb5781516001600160a01b031687529582019590820190600101614c96565b509495945050505050565b600081518084526020808501945080840160005b83811015614cbb57815187529582019590820190600101614cda565b600081518084526020808501808196508360051b8101915082860160005b85811015614d3e578284038952614d2c8483516149bf565b98850198935090840190600101614d14565b5091979650505050505050565b608081526000614d5e6080830187614c82565b8281036020840152614d708187614cc6565b90508281036040840152614d848186614cf6565b905082810360608401526115a48185614cf6565b600080600080600060a08688031215614db057600080fd5b85359450614dc0602087016147d9565b9350614dce604087016147d9565b94979396509394606081013594506080013592915050565b634e487b7160e01b600052602160045260246000fd5b6020810160088310614e1e57634e487b7160e01b600052602160045260246000fd5b91905290565b60008060408385031215614e3757600080fd5b823591506020830135614e49816149fe565b809150509250929050565b60008060408385031215614e6757600080fd5b82359150614e77602084016147d9565b90509250929050565b600080600080600060808688031215614e9857600080fd5b85359450614ea8602087016147d9565b9350604086013567ffffffffffffffff80821115614ec557600080fd5b614ed189838a016147ef565b90955093506060880135915080821115614eea57600080fd5b50614ef788828901614878565b9150509295509295909350565b60008060008060608587031215614f1a57600080fd5b84359350614f2a602086016147d9565b9250604085013567ffffffffffffffff811115614f4657600080fd5b614f52878288016147ef565b95989497509550505050565b60008060008060808587031215614f7457600080fd5b843567ffffffffffffffff80821115614f8c57600080fd5b614f9888838901614aa3565b95506020870135915080821115614fae57600080fd5b614fba88838901614b17565b94506040870135915080821115614fd057600080fd5b614fdc88838901614b72565b93506060870135915080821115614ff257600080fd5b50614a7387828801614878565b60008060006060848603121561501457600080fd5b833561501f816149fe565b925060208401359150604084013567ffffffffffffffff81111561504257600080fd5b61504e86828701614878565b9150509250925092565b60006020828403121561506a57600080fd5b8135611b26816149fe565b600080600080600060a0868803121561508d57600080fd5b8535615098816149fe565b945060208601356150a8816149fe565b9350604086013567ffffffffffffffff808211156150c557600080fd5b6150d189838a01614b17565b945060608801359150808211156150e757600080fd5b6150f389838a01614b17565b93506080880135915080821115614eea57600080fd5b6000806000806060858703121561511f57600080fd5b843561512a816149fe565b935060208501359250604085013567ffffffffffffffff811115614f4657600080fd5b600082601f83011261515e57600080fd5b8135602061516e614ac483614a7f565b82815260059290921b8401810191818101908684111561518d57600080fd5b8286015b84811015614b0c57803567ffffffffffffffff8111156151b15760008081fd5b6151bf8986838b0101614878565b845250918301918301615191565b600080600080600060a086880312156151e557600080fd5b853567ffffffffffffffff808211156151fd57600080fd5b61520989838a01614aa3565b9650602088013591508082111561521f57600080fd5b61522b89838a01614b17565b9550604088013591508082111561524157600080fd5b61524d89838a0161514d565b9450606088013591508082111561526357600080fd5b6150f389838a01614b72565b6000806040838503121561528257600080fd5b823561528d816149fe565b946020939093013593505050565b600080600080600060a086880312156152b357600080fd5b85356152be816149fe565b945060208601356152ce816149fe565b93506040860135925060608601359150608086013567ffffffffffffffff8111156152f857600080fd5b614ef788828901614878565b8183823760009101908152919050565b600181811c9082168061532857607f821691505b6020821081141561534957634e487b7160e01b600052602260045260246000fd5b50919050565b60006020828403121561536157600080fd5b5051919050565b60a08152600061537b60a0830188614c82565b828103602084015261538d8188614cc6565b905082810360408401526153a18187614cf6565b60608401959095525050608001529392505050565b60c0815260006153c960c0830189614c82565b82810360208401526153db8189614cc6565b905082810360408401526153ef8188614cf6565b60608401969096525050608081019290925260a0909101529392505050565b634e487b7160e01b600052601160045260246000fd5b600082198211156154375761543761540e565b500190565b60008282101561544e5761544e61540e565b500390565b634e487b7160e01b600052603260045260246000fd5b60808152600061547c6080830187614c82565b828103602084015261548e8187614cc6565b905082810360408401526154a28186614cf6565b91505082606083015295945050505050565b84815260ff84166020820152826040820152608060608201526000611af560808301846149bf565b85815260ff8516602082015283604082015260a06060820152600061550460a08301856149bf565b828103608084015261551681856149bf565b98975050505050505050565b60006000198214156155365761553661540e565b5060010190565b60006020828403121561554f57600080fd5b81518015158114611b2657600080fd5b6001600160e01b0319831681526000825161558181600485016020870161498f565b919091016004019392505050565b60008160001904831182151516156155a9576155a961540e565b500290565b6000826155cb57634e487b7160e01b600052601260045260246000fd5b500490565b600067ffffffffffffffff8083168185168083038211156155f3576155f361540e565b01949350505050565b60006101208b83526001600160a01b038b1660208401528060408401526156258184018b614c82565b90508281036060840152615639818a614cc6565b9050828103608084015261564d8189614cf6565b905082810360a08401526156618188614cf6565b67ffffffffffffffff87811660c0860152861660e0850152838103610100850152905061568e81856149bf565b9c9b505050505050505050505050565b600082516156b081846020870161498f565b919091019291505056fe416464726573733a206c6f772d6c6576656c2063616c6c20776974682076616c7565206661696c6564a26469706673582212200b93fa3693c8117072a96a29c5237b3925d32f31ee1629338fd0f14dde50d53564736f6c634300080b0033",
  "linkReferences": {},
  "deployedLinkReferences": {}
}